{
    "componentChunkName": "component---src-templates-docs-js",
    "path": "/ig/developers/docs/transactions/",
    "result": {"data":{"siteData":{"siteMetadata":{"editContentUrl":"https://github.com/ethereum/ethereum-org-website/tree/dev/"}},"pageData":{"fields":{"slug":"/en/developers/docs/transactions/"},"frontmatter":{"title":"Transactions","description":"An overview of Ethereum transactions – how they work, their data structure, and how to send them via an application.","lang":"en","incomplete":null,"sidebar":true,"sidebarDepth":null,"isOutdated":null},"body":"var _excluded = [\"components\"];\n\nfunction _extends() { _extends = Object.assign || function (target) { for (var i = 1; i < arguments.length; i++) { var source = arguments[i]; for (var key in source) { if (Object.prototype.hasOwnProperty.call(source, key)) { target[key] = source[key]; } } } return target; }; return _extends.apply(this, arguments); }\n\nfunction _objectWithoutProperties(source, excluded) { if (source == null) return {}; var target = _objectWithoutPropertiesLoose(source, excluded); var key, i; if (Object.getOwnPropertySymbols) { var sourceSymbolKeys = Object.getOwnPropertySymbols(source); for (i = 0; i < sourceSymbolKeys.length; i++) { key = sourceSymbolKeys[i]; if (excluded.indexOf(key) >= 0) continue; if (!Object.prototype.propertyIsEnumerable.call(source, key)) continue; target[key] = source[key]; } } return target; }\n\nfunction _objectWithoutPropertiesLoose(source, excluded) { if (source == null) return {}; var target = {}; var sourceKeys = Object.keys(source); var key, i; for (i = 0; i < sourceKeys.length; i++) { key = sourceKeys[i]; if (excluded.indexOf(key) >= 0) continue; target[key] = source[key]; } return target; }\n\n/* @jsxRuntime classic */\n\n/* @jsx mdx */\nvar _frontmatter = {\n  \"title\": \"Transactions\",\n  \"description\": \"An overview of Ethereum transactions – how they work, their data structure, and how to send them via an application.\",\n  \"lang\": \"en\",\n  \"sidebar\": true\n};\nvar layoutProps = {\n  _frontmatter: _frontmatter\n};\nvar MDXLayout = \"wrapper\";\nreturn function MDXContent(_ref) {\n  var components = _ref.components,\n      props = _objectWithoutProperties(_ref, _excluded);\n\n  return mdx(MDXLayout, _extends({}, layoutProps, props, {\n    components: components,\n    mdxType: \"MDXLayout\"\n  }), mdx(\"p\", null, \"Transactions are cryptographically signed instructions from accounts. An account will initiate a transaction to update the state of the Ethereum network. The simplest transaction is transferring ETH from one account to another.\"), mdx(\"h2\", {\n    \"id\": \"prerequisites\",\n    \"style\": {\n      \"position\": \"relative\"\n    }\n  }, mdx(\"a\", {\n    parentName: \"h2\",\n    \"href\": \"#prerequisites\",\n    \"aria-label\": \"prerequisites permalink\",\n    \"className\": \"header-anchor before\"\n  }, mdx(\"svg\", {\n    parentName: \"a\",\n    \"aria-hidden\": \"true\",\n    \"focusable\": \"false\",\n    \"height\": \"16\",\n    \"version\": \"1.1\",\n    \"viewBox\": \"0 0 16 16\",\n    \"width\": \"16\"\n  }, mdx(\"path\", {\n    parentName: \"svg\",\n    \"fillRule\": \"evenodd\",\n    \"d\": \"M4 9h1v1H4c-1.5 0-3-1.69-3-3.5S2.55 3 4 3h4c1.45 0 3 1.69 3 3.5 0 1.41-.91 2.72-2 3.25V8.59c.58-.45 1-1.27 1-2.09C10 5.22 8.98 4 8 4H4c-.98 0-2 1.22-2 2.5S3 9 4 9zm9-3h-1v1h1c1 0 2 1.22 2 2.5S13.98 12 13 12H9c-.98 0-2-1.22-2-2.5 0-.83.42-1.64 1-2.09V6.25c-1.09.53-2 1.84-2 3.25C6 11.31 7.55 13 9 13h4c1.45 0 3-1.69 3-3.5S14.5 6 13 6z\"\n  }))), \"Prerequisites\"), mdx(\"p\", null, \"To help you better understand this page, we recommend you first read \", mdx(\"a\", {\n    parentName: \"p\",\n    \"href\": \"/developers/docs/accounts/\"\n  }, \"Accounts\"), \" and our \", mdx(\"a\", {\n    parentName: \"p\",\n    \"href\": \"/developers/docs/intro-to-ethereum/\"\n  }, \"introduction to Ethereum\"), \".\"), mdx(\"h2\", {\n    \"id\": \"whats-a-transaction\",\n    \"style\": {\n      \"position\": \"relative\"\n    }\n  }, mdx(\"a\", {\n    parentName: \"h2\",\n    \"href\": \"#whats-a-transaction\",\n    \"aria-label\": \"whats a transaction permalink\",\n    \"className\": \"header-anchor before\"\n  }, mdx(\"svg\", {\n    parentName: \"a\",\n    \"aria-hidden\": \"true\",\n    \"focusable\": \"false\",\n    \"height\": \"16\",\n    \"version\": \"1.1\",\n    \"viewBox\": \"0 0 16 16\",\n    \"width\": \"16\"\n  }, mdx(\"path\", {\n    parentName: \"svg\",\n    \"fillRule\": \"evenodd\",\n    \"d\": \"M4 9h1v1H4c-1.5 0-3-1.69-3-3.5S2.55 3 4 3h4c1.45 0 3 1.69 3 3.5 0 1.41-.91 2.72-2 3.25V8.59c.58-.45 1-1.27 1-2.09C10 5.22 8.98 4 8 4H4c-.98 0-2 1.22-2 2.5S3 9 4 9zm9-3h-1v1h1c1 0 2 1.22 2 2.5S13.98 12 13 12H9c-.98 0-2-1.22-2-2.5 0-.83.42-1.64 1-2.09V6.25c-1.09.53-2 1.84-2 3.25C6 11.31 7.55 13 9 13h4c1.45 0 3-1.69 3-3.5S14.5 6 13 6z\"\n  }))), \"What's a transaction?\"), mdx(\"p\", null, \"An Ethereum transaction refers to an action initiated by an externally-owned account, in other words an account managed by a human, not a contract. For example, if Bob sends Alice 1 ETH, Bob's account must be debited and Alice's must be credited. This state-changing action takes place within a transaction.\"), mdx(\"p\", null, mdx(\"span\", {\n    parentName: \"p\",\n    \"className\": \"gatsby-resp-image-wrapper\",\n    \"style\": {\n      \"position\": \"relative\",\n      \"display\": \"block\",\n      \"marginLeft\": \"auto\",\n      \"marginRight\": \"auto\",\n      \"maxWidth\": \"1080px\"\n    }\n  }, \"\\n      \", mdx(\"a\", {\n    parentName: \"span\",\n    \"className\": \"gatsby-resp-image-link\",\n    \"href\": \"/static/570dedb843948d6bef5e21a6769d5c35/302a4/tx.png\",\n    \"style\": {\n      \"display\": \"block\"\n    },\n    \"target\": \"_blank\",\n    \"rel\": \"noopener\"\n  }, \"\\n    \", mdx(\"span\", {\n    parentName: \"a\",\n    \"className\": \"gatsby-resp-image-background-image\",\n    \"style\": {\n      \"paddingBottom\": \"56.333333333333336%\",\n      \"position\": \"relative\",\n      \"bottom\": \"0\",\n      \"left\": \"0\",\n      \"backgroundImage\": \"url('data:image/png;base64,iVBORw0KGgoAAAANSUhEUgAAABQAAAALCAYAAAB/Ca1DAAAACXBIWXMAAAsTAAALEwEAmpwYAAACN0lEQVQoz22Sv2sTYRjHvzFSs1SxOhVKSdpiyOQogv+Ag7g7OdhBSgeHRpxsldKhWJPmencmlx93lw7VEHRVl4gONYNTERo1DTQ1mMTcj5RSpa/Pc8SaFA8+vMfz/T7f5733XmxsLGJuroVotNlbW7Q2vbUf1vr5n39mpgaEQjswDNu/vu6czucHSSYtpNIuNKIgf/LeuXbSx72cMTGxA0xN1TkQVCTcHg7MvIPUszbePH0JMQ2I28DblSLVOp72z+vyAC+DszA5uYtMxp7O5eylXM5ZIB4Rj7NZ+6Eqty8W4h8hblHgDaAQ3wTXWGNPz8s9S5zhBY6NVaDr9hZNELpueRgGYwspeRiGEOhGr1xwo1fP87uU+h1m7S+63umt9tbo6GfQM0vb7ZY07btIJCr7yWT9IJXaOzRMx9aUxiURhJ/Cztn3r50V13GmGHt/2TC7lixXf0nSlwNFqe1nsy0KdEuABgwPf6AdOmWelMu1hWk6BE93REpthx88Fygt66feLev+u68Esko9QtoRh2QyzWM/7bA8Pl7ln7IHOpMihTaIryR8I2p0ptuKaocMuYrZgvDdeyF8ebkCWe0GWaPQmmG47OWeBmcEg3RtRkZeQ5KsoUSiFYjHfwTW1joBSerQagViKy3fHU2gPL+AzflF3DTpDJ/s+lhjbyzWIO/PXo81FA5vA5FIDbJsQVUtKMogsVgHq6uDcO2kj3s5g7PAlzGdtvmzB6BrcDyoH66xdtLPGZz1Bxq766aA8czeAAAAAElFTkSuQmCC')\",\n      \"backgroundSize\": \"cover\",\n      \"display\": \"block\"\n    }\n  }), \"\\n  \", mdx(\"img\", {\n    parentName: \"a\",\n    \"className\": \"gatsby-resp-image-image\",\n    \"alt\": \"Diagram showing a transaction cause state change\",\n    \"title\": \"Diagram showing a transaction cause state change\",\n    \"src\": \"/static/570dedb843948d6bef5e21a6769d5c35/302a4/tx.png\",\n    \"srcSet\": [\"/static/570dedb843948d6bef5e21a6769d5c35/5a46d/tx.png 300w\", \"/static/570dedb843948d6bef5e21a6769d5c35/0a47e/tx.png 600w\", \"/static/570dedb843948d6bef5e21a6769d5c35/302a4/tx.png 1080w\"],\n    \"sizes\": \"(max-width: 1080px) 100vw, 1080px\",\n    \"style\": {\n      \"width\": \"100%\",\n      \"height\": \"100%\",\n      \"margin\": \"0\",\n      \"verticalAlign\": \"middle\",\n      \"position\": \"absolute\",\n      \"top\": \"0\",\n      \"left\": \"0\"\n    },\n    \"loading\": \"lazy\",\n    \"decoding\": \"async\"\n  }), \"\\n  \"), \"\\n    \"), \"\\n\", mdx(\"em\", {\n    parentName: \"p\"\n  }, \"Diagram adapted from \", mdx(\"a\", {\n    parentName: \"em\",\n    \"href\": \"https://takenobu-hs.github.io/downloads/ethereum_evm_illustrated.pdf\"\n  }, \"Ethereum EVM illustrated\"))), mdx(\"p\", null, \"Transactions, which change the state of the EVM, need to be broadcast to the whole network. Any node can broadcast a request for a transaction to be executed on the EVM; after this happens, a miner will execute the transaction and propagate the resulting state change to the rest of the network.\"), mdx(\"p\", null, \"Transactions require a fee and must be mined to become valid. To make this overview simpler we'll cover gas fees and mining elsewhere.\"), mdx(\"p\", null, \"A submitted transaction includes the following information:\"), mdx(\"ul\", null, mdx(\"li\", {\n    parentName: \"ul\"\n  }, mdx(\"inlineCode\", {\n    parentName: \"li\"\n  }, \"recipient\"), \" \\u2013 the receiving address (if an externally-owned account, the transaction will transfer value. If a contract account, the transaction will execute the contract code)\"), mdx(\"li\", {\n    parentName: \"ul\"\n  }, mdx(\"inlineCode\", {\n    parentName: \"li\"\n  }, \"signature\"), \" \\u2013 the identifier of the sender. This is generated when the sender's private key signs the transaction and confirms the sender has authorized this transaction\"), mdx(\"li\", {\n    parentName: \"ul\"\n  }, mdx(\"inlineCode\", {\n    parentName: \"li\"\n  }, \"value\"), \" \\u2013 amount of ETH to transfer from sender to recipient (in WEI, a denomination of ETH)\"), mdx(\"li\", {\n    parentName: \"ul\"\n  }, mdx(\"inlineCode\", {\n    parentName: \"li\"\n  }, \"data\"), \" \\u2013 optional field to include arbitrary data\"), mdx(\"li\", {\n    parentName: \"ul\"\n  }, mdx(\"inlineCode\", {\n    parentName: \"li\"\n  }, \"gasLimit\"), \" \\u2013 the maximum amount of gas units that can be consumed by the transaction. Units of gas represent computational steps\"), mdx(\"li\", {\n    parentName: \"ul\"\n  }, mdx(\"inlineCode\", {\n    parentName: \"li\"\n  }, \"maxPriorityFeePerGas\"), \" - the maximum amount of gas to be included as a tip to the miner\"), mdx(\"li\", {\n    parentName: \"ul\"\n  }, mdx(\"inlineCode\", {\n    parentName: \"li\"\n  }, \"maxFeePerGas\"), \" - the maximum amount of gas willing to be paid for the transaction (inclusive of \", mdx(\"inlineCode\", {\n    parentName: \"li\"\n  }, \"baseFeePerGas\"), \" and \", mdx(\"inlineCode\", {\n    parentName: \"li\"\n  }, \"maxPriorityFeePerGas\"), \")\")), mdx(\"p\", null, \"Gas is a reference to the computation required to process the transaction by a miner. Users have to pay a fee for this computation. The \", mdx(\"inlineCode\", {\n    parentName: \"p\"\n  }, \"gasLimit\"), \", and \", mdx(\"inlineCode\", {\n    parentName: \"p\"\n  }, \"maxPriorityFeePerGas\"), \" determine the maximum transaction fee paid to the miner. \", mdx(\"a\", {\n    parentName: \"p\",\n    \"href\": \"/developers/docs/gas/\"\n  }, \"More on Gas\"), \".\"), mdx(\"p\", null, \"The transaction object will look a little like this:\"), mdx(\"pre\", null, mdx(\"code\", {\n    parentName: \"pre\",\n    \"className\": \"language-js\"\n  }, \"{\\n  from: \\\"0xEA674fdDe714fd979de3EdF0F56AA9716B898ec8\\\",\\n  to: \\\"0xac03bb73b6a9e108530aff4df5077c2b3d481e5a\\\",\\n  gasLimit: \\\"21000\\\",\\n  maxFeePerGas: \\\"300\\\",\\n  maxPriorityFeePerGas: \\\"10\\\",\\n  nonce: \\\"0\\\",\\n  value: \\\"10000000000\\\"\\n}\\n\")), mdx(\"p\", null, \"But a transaction object needs to be signed using the sender's private key. This proves that the transaction could only have come from the sender and was not sent fraudulently.\"), mdx(\"p\", null, \"An Ethereum client like Geth will handle this signing process.\"), mdx(\"p\", null, \"Example \", mdx(\"a\", {\n    parentName: \"p\",\n    \"href\": \"https://eth.wiki/json-rpc/API\"\n  }, \"JSON-RPC\"), \" call:\"), mdx(\"pre\", null, mdx(\"code\", {\n    parentName: \"pre\",\n    \"className\": \"language-json\"\n  }, \"{\\n  \\\"id\\\": 2,\\n  \\\"jsonrpc\\\": \\\"2.0\\\",\\n  \\\"method\\\": \\\"account_signTransaction\\\",\\n  \\\"params\\\": [\\n    {\\n      \\\"from\\\": \\\"0x1923f626bb8dc025849e00f99c25fe2b2f7fb0db\\\",\\n      \\\"gas\\\": \\\"0x55555\\\",\\n      \\\"maxFeePerGas\\\": \\\"0x1234\\\",\\n      \\\"maxPriorityFeePerGas\\\": \\\"0x1234\\\",\\n      \\\"input\\\": \\\"0xabcd\\\",\\n      \\\"nonce\\\": \\\"0x0\\\",\\n      \\\"to\\\": \\\"0x07a565b7ed7d7a678680a4c162885bedbb695fe0\\\",\\n      \\\"value\\\": \\\"0x1234\\\"\\n    }\\n  ]\\n}\\n\")), mdx(\"p\", null, \"Example response:\"), mdx(\"pre\", null, mdx(\"code\", {\n    parentName: \"pre\",\n    \"className\": \"language-json\"\n  }, \"{\\n  \\\"jsonrpc\\\": \\\"2.0\\\",\\n  \\\"id\\\": 2,\\n  \\\"result\\\": {\\n    \\\"raw\\\": \\\"0xf88380018203339407a565b7ed7d7a678680a4c162885bedbb695fe080a44401a6e4000000000000000000000000000000000000000000000000000000000000001226a0223a7c9bcf5531c99be5ea7082183816eb20cfe0bbc322e97cc5c7f71ab8b20ea02aadee6b34b45bb15bc42d9c09de4a6754e7000908da72d48cc7704971491663\\\",\\n    \\\"tx\\\": {\\n      \\\"nonce\\\": \\\"0x0\\\",\\n      \\\"maxFeePerGas\\\": \\\"0x1234\\\",\\n      \\\"maxPriorityFeePerGas\\\": \\\"0x1234\\\",\\n      \\\"gas\\\": \\\"0x55555\\\",\\n      \\\"to\\\": \\\"0x07a565b7ed7d7a678680a4c162885bedbb695fe0\\\",\\n      \\\"value\\\": \\\"0x1234\\\",\\n      \\\"input\\\": \\\"0xabcd\\\",\\n      \\\"v\\\": \\\"0x26\\\",\\n      \\\"r\\\": \\\"0x223a7c9bcf5531c99be5ea7082183816eb20cfe0bbc322e97cc5c7f71ab8b20e\\\",\\n      \\\"s\\\": \\\"0x2aadee6b34b45bb15bc42d9c09de4a6754e7000908da72d48cc7704971491663\\\",\\n      \\\"hash\\\": \\\"0xeba2df809e7a612a0a0d444ccfa5c839624bdc00dd29e3340d46df3870f8a30e\\\"\\n    }\\n  }\\n}\\n\")), mdx(\"ul\", null, mdx(\"li\", {\n    parentName: \"ul\"\n  }, \"the \", mdx(\"inlineCode\", {\n    parentName: \"li\"\n  }, \"raw\"), \" is the signed transaction in Recursive Length Prefix (RLP) encoded form\"), mdx(\"li\", {\n    parentName: \"ul\"\n  }, \"the \", mdx(\"inlineCode\", {\n    parentName: \"li\"\n  }, \"tx\"), \" is the signed transaction in JSON form\")), mdx(\"p\", null, \"With the signature hash, the transaction can be cryptographically proven that it came from the sender and submitted to the network.\"), mdx(\"h2\", {\n    \"id\": \"types-of-transactions\",\n    \"style\": {\n      \"position\": \"relative\"\n    }\n  }, mdx(\"a\", {\n    parentName: \"h2\",\n    \"href\": \"#types-of-transactions\",\n    \"aria-label\": \"types of transactions permalink\",\n    \"className\": \"header-anchor before\"\n  }, mdx(\"svg\", {\n    parentName: \"a\",\n    \"aria-hidden\": \"true\",\n    \"focusable\": \"false\",\n    \"height\": \"16\",\n    \"version\": \"1.1\",\n    \"viewBox\": \"0 0 16 16\",\n    \"width\": \"16\"\n  }, mdx(\"path\", {\n    parentName: \"svg\",\n    \"fillRule\": \"evenodd\",\n    \"d\": \"M4 9h1v1H4c-1.5 0-3-1.69-3-3.5S2.55 3 4 3h4c1.45 0 3 1.69 3 3.5 0 1.41-.91 2.72-2 3.25V8.59c.58-.45 1-1.27 1-2.09C10 5.22 8.98 4 8 4H4c-.98 0-2 1.22-2 2.5S3 9 4 9zm9-3h-1v1h1c1 0 2 1.22 2 2.5S13.98 12 13 12H9c-.98 0-2-1.22-2-2.5 0-.83.42-1.64 1-2.09V6.25c-1.09.53-2 1.84-2 3.25C6 11.31 7.55 13 9 13h4c1.45 0 3-1.69 3-3.5S14.5 6 13 6z\"\n  }))), \"Types of transactions\"), mdx(\"p\", null, \"On Ethereum there are a few different types of transactions:\"), mdx(\"ul\", null, mdx(\"li\", {\n    parentName: \"ul\"\n  }, \"Regular transactions: a transaction from one wallet to another.\"), mdx(\"li\", {\n    parentName: \"ul\"\n  }, \"Contract deployment transactions: a transaction without a 'to' address, where the data field is used for the contract code.\")), mdx(\"h3\", {\n    \"id\": \"on-gas\",\n    \"style\": {\n      \"position\": \"relative\"\n    }\n  }, mdx(\"a\", {\n    parentName: \"h3\",\n    \"href\": \"#on-gas\",\n    \"aria-label\": \"on gas permalink\",\n    \"className\": \"header-anchor before\"\n  }, mdx(\"svg\", {\n    parentName: \"a\",\n    \"aria-hidden\": \"true\",\n    \"focusable\": \"false\",\n    \"height\": \"16\",\n    \"version\": \"1.1\",\n    \"viewBox\": \"0 0 16 16\",\n    \"width\": \"16\"\n  }, mdx(\"path\", {\n    parentName: \"svg\",\n    \"fillRule\": \"evenodd\",\n    \"d\": \"M4 9h1v1H4c-1.5 0-3-1.69-3-3.5S2.55 3 4 3h4c1.45 0 3 1.69 3 3.5 0 1.41-.91 2.72-2 3.25V8.59c.58-.45 1-1.27 1-2.09C10 5.22 8.98 4 8 4H4c-.98 0-2 1.22-2 2.5S3 9 4 9zm9-3h-1v1h1c1 0 2 1.22 2 2.5S13.98 12 13 12H9c-.98 0-2-1.22-2-2.5 0-.83.42-1.64 1-2.09V6.25c-1.09.53-2 1.84-2 3.25C6 11.31 7.55 13 9 13h4c1.45 0 3-1.69 3-3.5S14.5 6 13 6z\"\n  }))), \"On gas\"), mdx(\"p\", null, \"As mentioned, transactions cost \", mdx(\"a\", {\n    parentName: \"p\",\n    \"href\": \"/developers/docs/gas/\"\n  }, \"gas\"), \" to execute. Simple transfer transactions require 21000 units of Gas.\"), mdx(\"p\", null, \"So for Bob to send Alice 1 ETH at a \", mdx(\"inlineCode\", {\n    parentName: \"p\"\n  }, \"baseFeePerGas\"), \" of 190 gwei and \", mdx(\"inlineCode\", {\n    parentName: \"p\"\n  }, \"maxPriorityFeePerGas\"), \" of 10 gwei, Bob will need to pay the following fee:\"), mdx(\"pre\", null, mdx(\"code\", {\n    parentName: \"pre\"\n  }, \"(190 + 10) * 21000 = 4,200,000 gwei\\n--or--\\n0.0042 ETH\\n\")), mdx(\"p\", null, \"Bob's account will be debited \", mdx(\"strong\", {\n    parentName: \"p\"\n  }, \"-1.0042 ETH\")), mdx(\"p\", null, \"Alice's account will be credited \", mdx(\"strong\", {\n    parentName: \"p\"\n  }, \"+1.0 ETH\")), mdx(\"p\", null, \"The base fee will be burned \", mdx(\"strong\", {\n    parentName: \"p\"\n  }, \"-0.00399 ETH\")), mdx(\"p\", null, \"Miner keeps the tip \", mdx(\"strong\", {\n    parentName: \"p\"\n  }, \"+0.000210 ETH\")), mdx(\"p\", null, \"Gas is required for any smart contract interaction too.\"), mdx(\"p\", null, mdx(\"span\", {\n    parentName: \"p\",\n    \"className\": \"gatsby-resp-image-wrapper\",\n    \"style\": {\n      \"position\": \"relative\",\n      \"display\": \"block\",\n      \"marginLeft\": \"auto\",\n      \"marginRight\": \"auto\",\n      \"maxWidth\": \"1080px\"\n    }\n  }, \"\\n      \", mdx(\"a\", {\n    parentName: \"span\",\n    \"className\": \"gatsby-resp-image-link\",\n    \"href\": \"/static/c3638b26a1210d2c73a7ec2335c57351/302a4/gas-tx.png\",\n    \"style\": {\n      \"display\": \"block\"\n    },\n    \"target\": \"_blank\",\n    \"rel\": \"noopener\"\n  }, \"\\n    \", mdx(\"span\", {\n    parentName: \"a\",\n    \"className\": \"gatsby-resp-image-background-image\",\n    \"style\": {\n      \"paddingBottom\": \"56.333333333333336%\",\n      \"position\": \"relative\",\n      \"bottom\": \"0\",\n      \"left\": \"0\",\n      \"backgroundImage\": \"url('data:image/png;base64,iVBORw0KGgoAAAANSUhEUgAAABQAAAALCAYAAAB/Ca1DAAAACXBIWXMAAAsTAAALEwEAmpwYAAACyUlEQVQoz5WSbUhTYRSAz151u5upEKwCNXLTZWqiQRRE/bH6kUFGH0IQQRZR6nTbNa0wKRND1BCzZLSPUhTB/MLUFBWdBpofm/WjMLS0cCjOb3Nuu6f3bkn0J+jCw3tfzn2fe95zDiAA5FYi5BkRSnWr8Mq4CHrDChgMywIK/PdjLpqDqvLPqRXPPxXrtT+yjcblfIN+6egL4wbUaMcJqkPh38j/rBo5ACJCWflcQcnTb2/Lnk3XG4wrvTrD2sVK7TQktyDhNFsfh3pQy8CVsQ/wKj0bRzlBSQR3jKNi6A0A3uqGvz7ZdK8E94M3qoJFVMhQoQf67tnLGDsbySxqDogX1bHiNTZaTGMiR1oIAHfvIFlXRW7Dc8DgFWDqqPhDgoJMtnVJOZXMB9N3C5x3Yn5nKCeYHiiw5pwW8AnEvUGIaEJQtiE4VTIJZigIaHjB685gU/98dU/PTN3w8HrryIg95Ut73yV7zrEdSxWPgGPDJTRDCS+11Hd613xHMPXMXjD12dr7THMtJtNCLqZIhQ6llECNHcHSPBQx+H4JBwdsODK6hpbhFX0D/dFKSZI/p1HwMn+KHy2+7+TDmwF8dlUvrUVPShbxceEylpb/7MMFEDYpdhG4T4MfazuCzRZn7Zhls8lscXSZ31lvoS8w6/ln/DhNGF9HIaeWC6lQNJOXJLk9jtDQuH6+usI20Ky1YHflWD+WBTLjx0UEXJlRBJOlIueoCXADwTZhhe4h9Jpo7TxMJeLN7CNAr+PuNN/FVWUUJGYhdKjLAasehEyVFg5/LSlunE+ND8BrfIPVMjoaYRLUXRdgYbwXFp8i9oKzXrO6XCGXoRBQET86hMr5mSQuCrJBZCrlpBc/x5aEyz4DsF2Aaf6MIyOWAKr2ABUyzsxoD1kxDMcqGLwhcY/MX2ND2dq72L2M4+4hMccGibhMWhY2XIzKnfALPNeVtmIWABEAAAAASUVORK5CYII=')\",\n      \"backgroundSize\": \"cover\",\n      \"display\": \"block\"\n    }\n  }), \"\\n  \", mdx(\"img\", {\n    parentName: \"a\",\n    \"className\": \"gatsby-resp-image-image\",\n    \"alt\": \"Diagram showing how unused gas is refunded\",\n    \"title\": \"Diagram showing how unused gas is refunded\",\n    \"src\": \"/static/c3638b26a1210d2c73a7ec2335c57351/302a4/gas-tx.png\",\n    \"srcSet\": [\"/static/c3638b26a1210d2c73a7ec2335c57351/5a46d/gas-tx.png 300w\", \"/static/c3638b26a1210d2c73a7ec2335c57351/0a47e/gas-tx.png 600w\", \"/static/c3638b26a1210d2c73a7ec2335c57351/302a4/gas-tx.png 1080w\"],\n    \"sizes\": \"(max-width: 1080px) 100vw, 1080px\",\n    \"style\": {\n      \"width\": \"100%\",\n      \"height\": \"100%\",\n      \"margin\": \"0\",\n      \"verticalAlign\": \"middle\",\n      \"position\": \"absolute\",\n      \"top\": \"0\",\n      \"left\": \"0\"\n    },\n    \"loading\": \"lazy\",\n    \"decoding\": \"async\"\n  }), \"\\n  \"), \"\\n    \"), \"\\n\", mdx(\"em\", {\n    parentName: \"p\"\n  }, \"Diagram adapted from \", mdx(\"a\", {\n    parentName: \"em\",\n    \"href\": \"https://takenobu-hs.github.io/downloads/ethereum_evm_illustrated.pdf\"\n  }, \"Ethereum EVM illustrated\"))), mdx(\"p\", null, \"Any gas not used in a transaction is refunded to the user account.\"), mdx(\"h2\", {\n    \"id\": \"transaction-lifecycle\",\n    \"style\": {\n      \"position\": \"relative\"\n    }\n  }, mdx(\"a\", {\n    parentName: \"h2\",\n    \"href\": \"#transaction-lifecycle\",\n    \"aria-label\": \"transaction lifecycle permalink\",\n    \"className\": \"header-anchor before\"\n  }, mdx(\"svg\", {\n    parentName: \"a\",\n    \"aria-hidden\": \"true\",\n    \"focusable\": \"false\",\n    \"height\": \"16\",\n    \"version\": \"1.1\",\n    \"viewBox\": \"0 0 16 16\",\n    \"width\": \"16\"\n  }, mdx(\"path\", {\n    parentName: \"svg\",\n    \"fillRule\": \"evenodd\",\n    \"d\": \"M4 9h1v1H4c-1.5 0-3-1.69-3-3.5S2.55 3 4 3h4c1.45 0 3 1.69 3 3.5 0 1.41-.91 2.72-2 3.25V8.59c.58-.45 1-1.27 1-2.09C10 5.22 8.98 4 8 4H4c-.98 0-2 1.22-2 2.5S3 9 4 9zm9-3h-1v1h1c1 0 2 1.22 2 2.5S13.98 12 13 12H9c-.98 0-2-1.22-2-2.5 0-.83.42-1.64 1-2.09V6.25c-1.09.53-2 1.84-2 3.25C6 11.31 7.55 13 9 13h4c1.45 0 3-1.69 3-3.5S14.5 6 13 6z\"\n  }))), \"Transaction lifecycle\"), mdx(\"p\", null, \"Once the transaction has been submitted the following happens:\"), mdx(\"ol\", null, mdx(\"li\", {\n    parentName: \"ol\"\n  }, \"Once you send a transaction, cryptography generates a transaction hash:\\n\", mdx(\"inlineCode\", {\n    parentName: \"li\"\n  }, \"0x97d99bc7729211111a21b12c933c949d4f31684f1d6954ff477d0477538ff017\")), mdx(\"li\", {\n    parentName: \"ol\"\n  }, \"The transaction is then broadcast to the network and included in a pool with lots of other transactions.\"), mdx(\"li\", {\n    parentName: \"ol\"\n  }, \"A miner must pick your transaction and include it in a block in order to verify the transaction and consider it \\\"successful\\\".\", mdx(\"ul\", {\n    parentName: \"li\"\n  }, mdx(\"li\", {\n    parentName: \"ul\"\n  }, \"You may end up waiting at this stage if the network is busy and miners aren't able to keep up.\"))), mdx(\"li\", {\n    parentName: \"ol\"\n  }, \"Your transaction will receive \\\"confirmations\\\". The number of confirmations is the number of blocks created since the block that included your transaction. The higher the number, the greater the certainty that the network processed and recognized the transaction.\", mdx(\"ul\", {\n    parentName: \"li\"\n  }, mdx(\"li\", {\n    parentName: \"ul\"\n  }, \"Recent blocks may get re-organized, giving the impression the transaction was unsuccessful; however, the transaction may still be valid but included in a different block.\"), mdx(\"li\", {\n    parentName: \"ul\"\n  }, \"The probability of a re-organization diminishes with every subsequent block mined, i.e. the greater the number of confirmations, the more immutable the transaction is.\")))), mdx(\"h2\", {\n    \"id\": \"a-visual-demo\",\n    \"style\": {\n      \"position\": \"relative\"\n    }\n  }, mdx(\"a\", {\n    parentName: \"h2\",\n    \"href\": \"#a-visual-demo\",\n    \"aria-label\": \"a visual demo permalink\",\n    \"className\": \"header-anchor before\"\n  }, mdx(\"svg\", {\n    parentName: \"a\",\n    \"aria-hidden\": \"true\",\n    \"focusable\": \"false\",\n    \"height\": \"16\",\n    \"version\": \"1.1\",\n    \"viewBox\": \"0 0 16 16\",\n    \"width\": \"16\"\n  }, mdx(\"path\", {\n    parentName: \"svg\",\n    \"fillRule\": \"evenodd\",\n    \"d\": \"M4 9h1v1H4c-1.5 0-3-1.69-3-3.5S2.55 3 4 3h4c1.45 0 3 1.69 3 3.5 0 1.41-.91 2.72-2 3.25V8.59c.58-.45 1-1.27 1-2.09C10 5.22 8.98 4 8 4H4c-.98 0-2 1.22-2 2.5S3 9 4 9zm9-3h-1v1h1c1 0 2 1.22 2 2.5S13.98 12 13 12H9c-.98 0-2-1.22-2-2.5 0-.83.42-1.64 1-2.09V6.25c-1.09.53-2 1.84-2 3.25C6 11.31 7.55 13 9 13h4c1.45 0 3-1.69 3-3.5S14.5 6 13 6z\"\n  }))), \"A visual demo\"), mdx(\"p\", null, \"Watch Austin walk you through transactions, gas, and mining.\"), mdx(\"iframe\", {\n    width: \"100%\",\n    height: \"315\",\n    src: \"https://www.youtube.com/embed/er-0ihqFQB0\",\n    frameBorder: \"0\",\n    allow: \"accelerometer; autoplay; clipboard-write; encrypted-media; gyroscope; picture-in-picture\",\n    allowFullScreen: true\n  }), mdx(\"h2\", {\n    \"id\": \"typed-transaction-envelope\",\n    \"style\": {\n      \"position\": \"relative\"\n    }\n  }, mdx(\"a\", {\n    parentName: \"h2\",\n    \"href\": \"#typed-transaction-envelope\",\n    \"aria-label\": \"typed transaction envelope permalink\",\n    \"className\": \"header-anchor before\"\n  }, mdx(\"svg\", {\n    parentName: \"a\",\n    \"aria-hidden\": \"true\",\n    \"focusable\": \"false\",\n    \"height\": \"16\",\n    \"version\": \"1.1\",\n    \"viewBox\": \"0 0 16 16\",\n    \"width\": \"16\"\n  }, mdx(\"path\", {\n    parentName: \"svg\",\n    \"fillRule\": \"evenodd\",\n    \"d\": \"M4 9h1v1H4c-1.5 0-3-1.69-3-3.5S2.55 3 4 3h4c1.45 0 3 1.69 3 3.5 0 1.41-.91 2.72-2 3.25V8.59c.58-.45 1-1.27 1-2.09C10 5.22 8.98 4 8 4H4c-.98 0-2 1.22-2 2.5S3 9 4 9zm9-3h-1v1h1c1 0 2 1.22 2 2.5S13.98 12 13 12H9c-.98 0-2-1.22-2-2.5 0-.83.42-1.64 1-2.09V6.25c-1.09.53-2 1.84-2 3.25C6 11.31 7.55 13 9 13h4c1.45 0 3-1.69 3-3.5S14.5 6 13 6z\"\n  }))), \"Typed Transaction Envelope\"), mdx(\"p\", null, \"Ethereum originally had one format for transactions. Each transaction contained a nonce, gas price, gas limit, to address, value, data, v, r, and s. These fields are RLP-encoded, to look something like this:\"), mdx(\"p\", null, mdx(\"inlineCode\", {\n    parentName: \"p\"\n  }, \"RLP([nonce, gasPrice, gasLimit, to, value, data, v, r, s])\")), mdx(\"p\", null, \"Ethereum has evolved to support multiple types of transactions to allow for new features such as access lists and \", mdx(\"a\", {\n    parentName: \"p\",\n    \"href\": \"https://github.com/ethereum/EIPs/blob/master/EIPS/eip-1559.md\"\n  }, \"EIP-1559\"), \" to be implemented without affecting legacy transaction formats.\"), mdx(\"p\", null, mdx(\"a\", {\n    parentName: \"p\",\n    \"href\": \"https://eips.ethereum.org/EIPS/eip-2718\"\n  }, \"EIP-2718: Typed Transaction Envelope\"), \" defines a transaction type that is an envelope for future transaction types.\"), mdx(\"p\", null, \"EIP-2718 is a new generalised envelope for typed transactions. In the new standard, transactions are interpreted as:\"), mdx(\"p\", null, mdx(\"inlineCode\", {\n    parentName: \"p\"\n  }, \"TransactionType || TransactionPayload\")), mdx(\"p\", null, \"Where the fields are defined as:\"), mdx(\"ul\", null, mdx(\"li\", {\n    parentName: \"ul\"\n  }, mdx(\"inlineCode\", {\n    parentName: \"li\"\n  }, \"TransactionType\"), \" - a number between 0 and 0x7f, for a total of 128 possible transaction types.\"), mdx(\"li\", {\n    parentName: \"ul\"\n  }, mdx(\"inlineCode\", {\n    parentName: \"li\"\n  }, \"TransactionPayload\"), \" - an arbitrary byte array defined by the transaction type.\")), mdx(\"h2\", {\n    \"id\": \"further-reading\",\n    \"style\": {\n      \"position\": \"relative\"\n    }\n  }, mdx(\"a\", {\n    parentName: \"h2\",\n    \"href\": \"#further-reading\",\n    \"aria-label\": \"further reading permalink\",\n    \"className\": \"header-anchor before\"\n  }, mdx(\"svg\", {\n    parentName: \"a\",\n    \"aria-hidden\": \"true\",\n    \"focusable\": \"false\",\n    \"height\": \"16\",\n    \"version\": \"1.1\",\n    \"viewBox\": \"0 0 16 16\",\n    \"width\": \"16\"\n  }, mdx(\"path\", {\n    parentName: \"svg\",\n    \"fillRule\": \"evenodd\",\n    \"d\": \"M4 9h1v1H4c-1.5 0-3-1.69-3-3.5S2.55 3 4 3h4c1.45 0 3 1.69 3 3.5 0 1.41-.91 2.72-2 3.25V8.59c.58-.45 1-1.27 1-2.09C10 5.22 8.98 4 8 4H4c-.98 0-2 1.22-2 2.5S3 9 4 9zm9-3h-1v1h1c1 0 2 1.22 2 2.5S13.98 12 13 12H9c-.98 0-2-1.22-2-2.5 0-.83.42-1.64 1-2.09V6.25c-1.09.53-2 1.84-2 3.25C6 11.31 7.55 13 9 13h4c1.45 0 3-1.69 3-3.5S14.5 6 13 6z\"\n  }))), \"Further reading\"), mdx(\"ul\", null, mdx(\"li\", {\n    parentName: \"ul\"\n  }, mdx(\"a\", {\n    parentName: \"li\",\n    \"href\": \"https://eips.ethereum.org/EIPS/eip-2718\"\n  }, \"EIP-2718: Typed Transaction Envelope\"))), mdx(\"p\", null, mdx(\"em\", {\n    parentName: \"p\"\n  }, \"Know of a community resource that helped you? Edit this page and add it!\")), mdx(\"h2\", {\n    \"id\": \"related-topics\",\n    \"style\": {\n      \"position\": \"relative\"\n    }\n  }, mdx(\"a\", {\n    parentName: \"h2\",\n    \"href\": \"#related-topics\",\n    \"aria-label\": \"related topics permalink\",\n    \"className\": \"header-anchor before\"\n  }, mdx(\"svg\", {\n    parentName: \"a\",\n    \"aria-hidden\": \"true\",\n    \"focusable\": \"false\",\n    \"height\": \"16\",\n    \"version\": \"1.1\",\n    \"viewBox\": \"0 0 16 16\",\n    \"width\": \"16\"\n  }, mdx(\"path\", {\n    parentName: \"svg\",\n    \"fillRule\": \"evenodd\",\n    \"d\": \"M4 9h1v1H4c-1.5 0-3-1.69-3-3.5S2.55 3 4 3h4c1.45 0 3 1.69 3 3.5 0 1.41-.91 2.72-2 3.25V8.59c.58-.45 1-1.27 1-2.09C10 5.22 8.98 4 8 4H4c-.98 0-2 1.22-2 2.5S3 9 4 9zm9-3h-1v1h1c1 0 2 1.22 2 2.5S13.98 12 13 12H9c-.98 0-2-1.22-2-2.5 0-.83.42-1.64 1-2.09V6.25c-1.09.53-2 1.84-2 3.25C6 11.31 7.55 13 9 13h4c1.45 0 3-1.69 3-3.5S14.5 6 13 6z\"\n  }))), \"Related topics\"), mdx(\"ul\", null, mdx(\"li\", {\n    parentName: \"ul\"\n  }, mdx(\"a\", {\n    parentName: \"li\",\n    \"href\": \"/developers/docs/accounts/\"\n  }, \"Accounts\")), mdx(\"li\", {\n    parentName: \"ul\"\n  }, mdx(\"a\", {\n    parentName: \"li\",\n    \"href\": \"/developers/docs/evm/\"\n  }, \"Ethereum virtual machine (EVM)\")), mdx(\"li\", {\n    parentName: \"ul\"\n  }, mdx(\"a\", {\n    parentName: \"li\",\n    \"href\": \"/developers/docs/gas/\"\n  }, \"Gas\")), mdx(\"li\", {\n    parentName: \"ul\"\n  }, mdx(\"a\", {\n    parentName: \"li\",\n    \"href\": \"/developers/docs/consensus-mechanisms/pow/mining/\"\n  }, \"Mining\"))));\n}\n;\nMDXContent.isMDXComponent = true;","tableOfContents":{"items":[{"url":"#prerequisites-prerequisites","title":"Prerequisites {#prerequisites}"},{"url":"#whats-a-transaction-whats-a-transaction","title":"What's a transaction? {#whats-a-transaction}"},{"url":"#types-of-transactions-types-of-transactions","title":"Types of transactions {#types-of-transactions}","items":[{"url":"#on-gas-on-gas","title":"On gas {#on-gas}"}]},{"url":"#transaction-lifecycle-transaction-lifecycle","title":"Transaction lifecycle {#transaction-lifecycle}"},{"url":"#a-visual-demo-a-visual-demo","title":"A visual demo {#a-visual-demo}"},{"url":"#typed-transaction-envelope-typed-transaction-envelope","title":"Typed Transaction Envelope {#typed-transaction-envelope}"},{"url":"#further-reading-further-reading","title":"Further reading {#further-reading}"},{"url":"#related-topics-related-topics","title":"Related topics {#related-topics}"}]}}},"pageContext":{"slug":"/ig/developers/docs/transactions/","ignoreTranslationBanner":false,"isOutdated":false,"isContentEnglish":true,"relativePath":"src/content/developers/docs/transactions/index.md","intl":{"language":"ig","defaultLanguage":"en","languages":["en","ar","bg","bn","ca","cs","de","el","es","fa","fi","fr","hi","hr","hu","id","ig","it","ja","ko","lt","ml","nl","nb","pl","pt","pt-br","ro","ru","se","sk","sl","tr","uk","vi","zh","zh-tw"],"messages":{"about-ethereum-org":"Banyere ethereum.org","about-us":"Ihe gbasara anyi","community":"Ndi otu nwere otu mmasi","contact":"Ihe mkpoturu","contributing":"Itu utu","cookie-policy":"Nkwuputa nke Cookie na aru oru","decentralized-applications-dapps":"Ngwa komputa na aru oru na sistemu komputa (dapps)","developers":"Ndị mmeputa","developers-home":"Isi ulo oru ndi Mmeputa","documentation":"Akwukwo ntuaka","ef-blog":"Ebe mbido Bloogu nke Ethereum","eips":"Mmelite Atumatu aro nke Ethereum","ethereum":"Ethereum","ethereum-2-0":"Ethereum nke 2.0","ethereum-brand-assets":"Ihe Njirimara Ethereum","ethereum-community":"Ndi otu Ethereum nwere otu mmasi","ethereum-glossary":"Okwunkowa Ethereum","ethereum-wallets":"Akpaego Ethereum","ethereum-whitepaper":"Akwukwo akuko","get-eth":"Nweta ETH","get-started":"Bido oru","guides-and-resources":"Ntuziaka na ebe ihe enyemaka","how-ethereum-works":"Otu esi Ethereum arụ ọrụ","language-support":"Nkwado Asusu","languages":"Asusu gasi","learn":"Mụta","learn-by-coding":"Muta ihe site na eji koodu","learn-more":"Learn more","mainnet-ethereum":"Ethereum Bloockchainu na enyefe ego","nav-beginners":"Ndị mbido","page-enterprise":"Azumahia","page-index":"Ethereum","page-index-section-beginners-item-one":"Ethereum ohuru ohuru?","page-index-section-beginners-item-three":"Gịnị mere m ga-eji lebara ya anya?","page-index-section-beginners-item-two":"Gini bu Ethereum?","page-index-section-beginners-title":"Ndị mbido","page-index-section-developers-item-one":"Na-amalite ntuziaka","page-index-section-developers-item-three":"Ngwa ọhụrụ Onye nrụpụta","page-index-section-developers-item-two":"Mụta ịhazi mmebi iwu smart","page-index-section-developers-title":"Maka Ndị Mmepe","page-index-section-enterprise-item-one":"","page-index-section-enterprise-item-three":"","page-index-section-enterprise-item-two":"","page-index-section-enterprise-title":"","page-index-section-learn-item-one":"Nmalite nke mmalite","page-index-section-learn-item-three":"ETH 2.0","page-index-section-use-item-one":"Kedu ihe m ga - eme Ethereum taa?","page-index-section-use-item-three":"Gini bu obere akpa?","page-index-section-use-item-two":"Kedu ka m ga esi nweta ether?","page-index-section-use-title":"Jiri","page-last-updated":"Peeji emelitere emelitere ikpeazụ","privacy-policy":"Iwu ihe nzuzo","private-ethereum":"Ethereun nke onwe","search":"Ochucho","set-up-local-env":"Hazie gburugburu ebeulo","stablecoins":"Crptocurrency ana etinye na udi aku ndi ozo","terms-of-use":"Iwu nkwekorita maka Ojiji","translation-banner-body-new":"I na elele peeji a na asusu Bekee maka na anyi atugharibeghi ya. Nyere anyi aka tugharia asusu odinaya a.","translation-banner-body-update":"Enwere udi ohuru nke peeji a mana o no naani na asusu Bekee ugbu a. Nyere anyi aka tugharia nke kachasi ohuru.","translation-banner-button-join-translation-program":"Sonye mmemme ntughari asusu","translation-banner-button-learn-more":"Mutakwuo","translation-banner-button-see-english":"Lee Bekee","translation-banner-button-translate-page":"Tugharia peeji","translation-banner-title-new":"Nye aka tugharia asusu peeji a","translation-banner-title-update":"Nye aka tinye ozi ohuru na peeji a","tutorials":"Ihe omumu na aka onye nkuzi","use":"Jiri","use-ethereum":"Jiri Ethereum","website-last-updated":"Weebụsaịtị gara aga emelitere emelitere","what-is-ether":"Gini bu ether (ETH)?","what-is-ethereum":"Gini bu Ethereum?","page-developer-meta-title":"Ebe Ntụziaka Mmepụta Thereum","page-developers-about":"Banyere ebe ntụziaka mmepụta a","page-developers-about-desc":"ethereum.org di ebe a iji nyere gị aka ruo na Ethereum na dọkụmentì ncheputa echiche nke mbu yana ngwaọrụ eji arụpụta weebusaiti. Nakwa enwere nkuzi ga enyere gị aka ibido iru oru.","page-developers-about-desc-2":"Nke ndị Mmepụta Netwoọk Mozilla kpalitere mmụọ ya, anyị chere na Ethereum chọrọ ebe ọga edebe oke mmepụta odinaya yana ebe ntụziaka gasị. Dikà enyi anyị na Mozilla, ihe niile di ebe a bu nke di adị n'efu ma di njikere ka i gbàtịa ma melite.","page-developers-account-desc":"Nkwekọrịta gasi ma ọ bụ onye mmadụ no na netwọk","page-developers-accounts-link":"Akaụntụ","page-developers-advanced":"Emelitere","page-developers-api-desc":"Eji oba akwukwo ekwuritara mmemme na aru oru na blockchain","page-developers-api-link":"Ebe nchekwa data APIs","page-developers-aria-label":"Ndepụta nhọrọ mmemme ndi Mmeputa","page-developers-block-desc":"Mkpọkọta azụmahịa etinyèrè na blockchain","page-developers-block-explorers-desc":"Uzo isi aga na data Ethereum","page-developers-block-explorers-link":"Gbochie ndị na-eme nchọpụta","page-developers-blocks-link":"Blooku gasi","page-developers-browse-tutorials":"Chọgharịa ihe nkuzi gasi","page-developers-choose-stack":"Hazie nhọrọ gị","page-developers-contribute":"Tuo utu","page-developers-dev-env-desc":"IDEs kwesiri ekwesi maka mmepe ngwa kòmpụtà ahazighariri","page-developers-dev-env-link":"Gburugburu ebe mmepe","page-developers-discord":"Sonye ebe nkata","page-developers-docs-introductions":"Iwebada","page-developers-evm-desc":"Kọmputa nke na-ahazi azụmahịa","page-developers-evm-link":"(EVM) Ethererun na eme ka kọmputa ezigbo kọmputa","page-developers-explore-documentation":"Mee nchọpụta dọkụmentì ahu","page-developers-feedback":"O buru na enwere nzaghachi o bula, kpọtụrụ anyị na nchọta ihe GitHub màọbụ sava ebe nkata.","page-developers-frameworks-desc":"Ngwaọrụ eji enye aka eme ka mmepe na aga ọsisọ","page-developers-frameworks-link":"Usoro echiche mmepụta","page-developers-fundamentals":"Isi iwu","page-developers-gas-desc":"Ether chọrọ ike azụmahịa","page-developers-gas-link":"Onụahịa\n","page-developers-get-started":"Kedu etu i ga achọ isi ebido?","page-developers-improve-ethereum":"Nyere anyị aka mee ka ethereum.org di mma","page-developers-improve-ethereum-desc":"Dikà ethereum.or, dọkụmentì a bu mbò ndị otu intaneti. Mepụta PR ma oburu na i huru njehie, ohere mmelite, màọbụ ohere ọhụrụ iji nyere ndị mmepụta Ethereum aka.","page-developers-into-eth-desc":"Okwu iwebata blockchain na Ethereum","page-developers-intro-dapps-desc":"Okwu iwebata nhazighariri ngwa kọmputa","page-developers-intro-dapps-link":"Okwu iwebadat Ngwa komputa ahazighariri ","page-developers-intro-eth-link":"Okwu nwebata Ethereum","page-developers-intro-stack":"Okwu iwebata nhazi","page-developers-intro-stack-desc":"Okwu iwebata nhazi Ethereum","page-developers-js-libraries-desc":"Eji javascript ekwuritara nkwekọrịta azụmahịa na emere onwe ya","page-developers-js-libraries-link":"Oba akwukwo javascript","page-developers-language-desc":"Eji Ethereum na asusu ama ama","page-developers-languages":"Emepụta asụsụ kọmputa","page-developers-learn":"Muta ka esi emeputa Ethereum","page-developers-learn-desc":"Gụọ gbasara isi nchepụta echiche na nhazi Ethereum na dọkụmentì anyị","page-developers-learn-tutorials":"Muta site na nkuzi","page-developers-learn-tutorials-cta":"Lelee nkuzi gasi","page-developers-learn-tutorials-desc":"Mụta mmepe Ethereum otu nzọụkwụ n'otu oge site na aka ndị nrupụta ndị merela ya.","page-developers-meta-desc":"Enweta akwụkwọ ozi, nkuzi gasị, na ngwaọrụ maka ndị mmepụta oru na Ethereum.","page-developers-mining-desc":"Etu esi emepụta blooku ọhụrụ ma nweta nkwekọrịta mmadụ niile","page-developers-mining-link":"Mmepụta azụmahịa","page-developers-networks-desc":"Nchịkọta Bloockchain na enyefe ego na nnwàle netwoọk","page-developers-networks-link":"Netwoọk gasi","page-developers-node-clients-desc":"Etu esi ama ma blọọkụ na azụmahịa o bu eziokwu na netwoọk","page-developers-node-clients-link":" Ebe nzukọ na ndị ahịa gasị","page-developers-oracle-desc":"Ịhapụ chain data n'ime nkwekọrịta azụmahịa gị","page-developers-oracles-link":"Oracles","page-developers-play-code":"Jiri koodù gwurịta egwu","page-developers-read-docs":"Gụọ dọkụmentì","page-developers-scaling-desc":"Aziza maka azụmahịa ngwa ngwa","page-developers-scaling-link":"Nbawanye ikike","page-developers-smart-contract-security-desc":"Ihe nchekwa aga atule n'oge mmepe","page-developers-smart-contract-security-link":"Nche","page-developers-set-up":"Hazie gburugburu ebeulo","page-developers-setup-desc":"Nweta nhazi gị n ‘njikere maka iru site na ihazi gburugburu mmepe.","page-developers-smart-contracts-desc":"Ezi echiche dabere na ngwa kòmpụtà ahazighariri - nkwekorita ana emezuru onwe","page-developers-smart-contracts-link":"Nkwekọrịta azụmahịa na emere onwe ya","page-developers-stack":"Nhazi ahu","page-developers-start":"Bido na-eme nnwale","page-developers-start-desc":"I chọrọ ibu ụzọ anwale, juo ajụjụ mgbe emesia?","page-developers-storage-desc":"Etu esi eme echebe ngwa kòmpụtà ahazighariri","page-developers-storage-link":"Nchebe","page-developers-subtitle":"Akwụkwọ ntụziaka ndị nrupụta maka Ethereum. Site n'aka ndị nrupụta, maka ndị nrupụta.","page-developers-title-1":"Ethereum","page-developers-title-2":"onye mmepụta","page-developers-title-3":"ego","page-developers-token-standards-desc":"Nchịkọta ihe nnochi anya ego anabatara","page-developers-token-standards-link":"Ogo idị mma nnochianya ego anabatara","page-developers-transactions-desc":"Etu ọnọdụ Ethereum si agbanwe","page-developers-transactions-link":"Azụmahịa","page-developers-web3-desc":"Etu mmepe uwa web3 siri di iche","page-developers-web3-link":"Web2 vs Web3","page-index-hero-image-alt":"eserese dike ethereum.org","page-index-meta-description":"Ethereum bu ụzọ zuru ụwa nile, nke akwadopụtàrà maka ego na ụdịrị ngwa kòmpụtà ọhụrụ. Na Ethereum, ị nwere ike ide koodù na-achịkwa ego, ma ruo ngwa kòmpụtà ndị enwere ike inweta ebe ọ bụla n’ ụwa.","page-index-meta-title":"Peeji weebusaiti","page-index-sections-developers-desc":"Mụta banyere teknuzu dabere na Ethereum na ngwa kòmpụtà ya ka inwe ike ibido ruwa oru na ya.","page-index-sections-developers-image-alt":"Ihe ngosi eji aka arụ Ethereum glyph nke ejiri lego brik ruo","page-index-sections-developers-link-text":"Bido ruwa","page-index-sections-developers-title":"Ndị mmeputa","page-index-sections-enterprise-desc":"Hụ otu Ethereum nwere ike isi mepee ụdị azụmaahịa ọhụụ, belata ọnụahịa gị yana gosipụta azụmaahịa gị n'ọdịnihu.","page-index-sections-enterprise-image-alt":"Ihe ngos otu na-arụ ọrụ na arumaru Ethereum na akuku laptọọpụ","page-index-sections-enterprise-link-text":"Ethereum maka ụlọ ọrụ","page-index-sections-enterprise-title":"Azụmahịa","page-index-sections-individuals-desc":"Mee ka imara Ethereum, Ether, akpa ego intaneti, nnochianya ego na ihe ndị ọzọ ka ị wee malite eji ngwa komputa Ethereum.","page-index-sections-individuals-image-alt":"Ihe ngosi nkịta doge nọ odu na kòmpụtà","page-index-sections-individuals-link-text":"Bido oru na Ethereum","page-index-sections-individuals-title":"Banyere Ethereum","page-index-subtitle":"Na Ethereum, ị nwere ike ide koodu na-achịkwa uru dijitalụ, na aru oru dika esi hazie ya, ma ana enweta ya na ebe obula na ụwa niile.","page-index-title":"Ethereum bụ ebe nweta meghere emeghe nke uwa niile maka nhazighari ngwa komputa."},"routed":true,"originalPath":"/developers/docs/transactions/","redirect":false}}},
    "staticQueryHashes": ["1011117294","3003422828","4096231394"]}