{
    "componentChunkName": "component---src-templates-docs-js",
    "path": "/zh-tw/developers/docs/transactions/",
    "result": {"data":{"siteData":{"siteMetadata":{"editContentUrl":"https://github.com/ethereum/ethereum-org-website/tree/dev/"}},"pageData":{"fields":{"slug":"/en/developers/docs/transactions/"},"frontmatter":{"title":"Transactions","description":"An overview of Ethereum transactions – how they work, their data structure, and how to send them via an application.","lang":"en","incomplete":null,"sidebar":true,"sidebarDepth":null,"isOutdated":null},"body":"var _excluded = [\"components\"];\n\nfunction _extends() { _extends = Object.assign || function (target) { for (var i = 1; i < arguments.length; i++) { var source = arguments[i]; for (var key in source) { if (Object.prototype.hasOwnProperty.call(source, key)) { target[key] = source[key]; } } } return target; }; return _extends.apply(this, arguments); }\n\nfunction _objectWithoutProperties(source, excluded) { if (source == null) return {}; var target = _objectWithoutPropertiesLoose(source, excluded); var key, i; if (Object.getOwnPropertySymbols) { var sourceSymbolKeys = Object.getOwnPropertySymbols(source); for (i = 0; i < sourceSymbolKeys.length; i++) { key = sourceSymbolKeys[i]; if (excluded.indexOf(key) >= 0) continue; if (!Object.prototype.propertyIsEnumerable.call(source, key)) continue; target[key] = source[key]; } } return target; }\n\nfunction _objectWithoutPropertiesLoose(source, excluded) { if (source == null) return {}; var target = {}; var sourceKeys = Object.keys(source); var key, i; for (i = 0; i < sourceKeys.length; i++) { key = sourceKeys[i]; if (excluded.indexOf(key) >= 0) continue; target[key] = source[key]; } return target; }\n\n/* @jsxRuntime classic */\n\n/* @jsx mdx */\nvar _frontmatter = {\n  \"title\": \"Transactions\",\n  \"description\": \"An overview of Ethereum transactions – how they work, their data structure, and how to send them via an application.\",\n  \"lang\": \"en\",\n  \"sidebar\": true\n};\nvar layoutProps = {\n  _frontmatter: _frontmatter\n};\nvar MDXLayout = \"wrapper\";\nreturn function MDXContent(_ref) {\n  var components = _ref.components,\n      props = _objectWithoutProperties(_ref, _excluded);\n\n  return mdx(MDXLayout, _extends({}, layoutProps, props, {\n    components: components,\n    mdxType: \"MDXLayout\"\n  }), mdx(\"p\", null, \"Transactions are cryptographically signed instructions from accounts. An account will initiate a transaction to update the state of the Ethereum network. The simplest transaction is transferring ETH from one account to another.\"), mdx(\"h2\", {\n    \"id\": \"prerequisites\",\n    \"style\": {\n      \"position\": \"relative\"\n    }\n  }, mdx(\"a\", {\n    parentName: \"h2\",\n    \"href\": \"#prerequisites\",\n    \"aria-label\": \"prerequisites permalink\",\n    \"className\": \"header-anchor before\"\n  }, mdx(\"svg\", {\n    parentName: \"a\",\n    \"aria-hidden\": \"true\",\n    \"focusable\": \"false\",\n    \"height\": \"16\",\n    \"version\": \"1.1\",\n    \"viewBox\": \"0 0 16 16\",\n    \"width\": \"16\"\n  }, mdx(\"path\", {\n    parentName: \"svg\",\n    \"fillRule\": \"evenodd\",\n    \"d\": \"M4 9h1v1H4c-1.5 0-3-1.69-3-3.5S2.55 3 4 3h4c1.45 0 3 1.69 3 3.5 0 1.41-.91 2.72-2 3.25V8.59c.58-.45 1-1.27 1-2.09C10 5.22 8.98 4 8 4H4c-.98 0-2 1.22-2 2.5S3 9 4 9zm9-3h-1v1h1c1 0 2 1.22 2 2.5S13.98 12 13 12H9c-.98 0-2-1.22-2-2.5 0-.83.42-1.64 1-2.09V6.25c-1.09.53-2 1.84-2 3.25C6 11.31 7.55 13 9 13h4c1.45 0 3-1.69 3-3.5S14.5 6 13 6z\"\n  }))), \"Prerequisites\"), mdx(\"p\", null, \"To help you better understand this page, we recommend you first read \", mdx(\"a\", {\n    parentName: \"p\",\n    \"href\": \"/developers/docs/accounts/\"\n  }, \"Accounts\"), \" and our \", mdx(\"a\", {\n    parentName: \"p\",\n    \"href\": \"/developers/docs/intro-to-ethereum/\"\n  }, \"introduction to Ethereum\"), \".\"), mdx(\"h2\", {\n    \"id\": \"whats-a-transaction\",\n    \"style\": {\n      \"position\": \"relative\"\n    }\n  }, mdx(\"a\", {\n    parentName: \"h2\",\n    \"href\": \"#whats-a-transaction\",\n    \"aria-label\": \"whats a transaction permalink\",\n    \"className\": \"header-anchor before\"\n  }, mdx(\"svg\", {\n    parentName: \"a\",\n    \"aria-hidden\": \"true\",\n    \"focusable\": \"false\",\n    \"height\": \"16\",\n    \"version\": \"1.1\",\n    \"viewBox\": \"0 0 16 16\",\n    \"width\": \"16\"\n  }, mdx(\"path\", {\n    parentName: \"svg\",\n    \"fillRule\": \"evenodd\",\n    \"d\": \"M4 9h1v1H4c-1.5 0-3-1.69-3-3.5S2.55 3 4 3h4c1.45 0 3 1.69 3 3.5 0 1.41-.91 2.72-2 3.25V8.59c.58-.45 1-1.27 1-2.09C10 5.22 8.98 4 8 4H4c-.98 0-2 1.22-2 2.5S3 9 4 9zm9-3h-1v1h1c1 0 2 1.22 2 2.5S13.98 12 13 12H9c-.98 0-2-1.22-2-2.5 0-.83.42-1.64 1-2.09V6.25c-1.09.53-2 1.84-2 3.25C6 11.31 7.55 13 9 13h4c1.45 0 3-1.69 3-3.5S14.5 6 13 6z\"\n  }))), \"What's a transaction?\"), mdx(\"p\", null, \"An Ethereum transaction refers to an action initiated by an externally-owned account, in other words an account managed by a human, not a contract. For example, if Bob sends Alice 1 ETH, Bob's account must be debited and Alice's must be credited. This state-changing action takes place within a transaction.\"), mdx(\"p\", null, mdx(\"span\", {\n    parentName: \"p\",\n    \"className\": \"gatsby-resp-image-wrapper\",\n    \"style\": {\n      \"position\": \"relative\",\n      \"display\": \"block\",\n      \"marginLeft\": \"auto\",\n      \"marginRight\": \"auto\",\n      \"maxWidth\": \"1080px\"\n    }\n  }, \"\\n      \", mdx(\"a\", {\n    parentName: \"span\",\n    \"className\": \"gatsby-resp-image-link\",\n    \"href\": \"/static/570dedb843948d6bef5e21a6769d5c35/302a4/tx.png\",\n    \"style\": {\n      \"display\": \"block\"\n    },\n    \"target\": \"_blank\",\n    \"rel\": \"noopener\"\n  }, \"\\n    \", mdx(\"span\", {\n    parentName: \"a\",\n    \"className\": \"gatsby-resp-image-background-image\",\n    \"style\": {\n      \"paddingBottom\": \"56.333333333333336%\",\n      \"position\": \"relative\",\n      \"bottom\": \"0\",\n      \"left\": \"0\",\n      \"backgroundImage\": \"url('data:image/png;base64,iVBORw0KGgoAAAANSUhEUgAAABQAAAALCAYAAAB/Ca1DAAAACXBIWXMAAAsTAAALEwEAmpwYAAACN0lEQVQoz22Sv2sTYRjHvzFSs1SxOhVKSdpiyOQogv+Ag7g7OdhBSgeHRpxsldKhWJPmencmlx93lw7VEHRVl4gONYNTERo1DTQ1mMTcj5RSpa/Pc8SaFA8+vMfz/T7f5733XmxsLGJuroVotNlbW7Q2vbUf1vr5n39mpgaEQjswDNu/vu6czucHSSYtpNIuNKIgf/LeuXbSx72cMTGxA0xN1TkQVCTcHg7MvIPUszbePH0JMQ2I28DblSLVOp72z+vyAC+DszA5uYtMxp7O5eylXM5ZIB4Rj7NZ+6Eqty8W4h8hblHgDaAQ3wTXWGNPz8s9S5zhBY6NVaDr9hZNELpueRgGYwspeRiGEOhGr1xwo1fP87uU+h1m7S+63umt9tbo6GfQM0vb7ZY07btIJCr7yWT9IJXaOzRMx9aUxiURhJ/Cztn3r50V13GmGHt/2TC7lixXf0nSlwNFqe1nsy0KdEuABgwPf6AdOmWelMu1hWk6BE93REpthx88Fygt66feLev+u68Esko9QtoRh2QyzWM/7bA8Pl7ln7IHOpMihTaIryR8I2p0ptuKaocMuYrZgvDdeyF8ebkCWe0GWaPQmmG47OWeBmcEg3RtRkZeQ5KsoUSiFYjHfwTW1joBSerQagViKy3fHU2gPL+AzflF3DTpDJ/s+lhjbyzWIO/PXo81FA5vA5FIDbJsQVUtKMogsVgHq6uDcO2kj3s5g7PAlzGdtvmzB6BrcDyoH66xdtLPGZz1Bxq766aA8czeAAAAAElFTkSuQmCC')\",\n      \"backgroundSize\": \"cover\",\n      \"display\": \"block\"\n    }\n  }), \"\\n  \", mdx(\"img\", {\n    parentName: \"a\",\n    \"className\": \"gatsby-resp-image-image\",\n    \"alt\": \"Diagram showing a transaction cause state change\",\n    \"title\": \"Diagram showing a transaction cause state change\",\n    \"src\": \"/static/570dedb843948d6bef5e21a6769d5c35/302a4/tx.png\",\n    \"srcSet\": [\"/static/570dedb843948d6bef5e21a6769d5c35/5a46d/tx.png 300w\", \"/static/570dedb843948d6bef5e21a6769d5c35/0a47e/tx.png 600w\", \"/static/570dedb843948d6bef5e21a6769d5c35/302a4/tx.png 1080w\"],\n    \"sizes\": \"(max-width: 1080px) 100vw, 1080px\",\n    \"style\": {\n      \"width\": \"100%\",\n      \"height\": \"100%\",\n      \"margin\": \"0\",\n      \"verticalAlign\": \"middle\",\n      \"position\": \"absolute\",\n      \"top\": \"0\",\n      \"left\": \"0\"\n    },\n    \"loading\": \"lazy\",\n    \"decoding\": \"async\"\n  }), \"\\n  \"), \"\\n    \"), \"\\n\", mdx(\"em\", {\n    parentName: \"p\"\n  }, \"Diagram adapted from \", mdx(\"a\", {\n    parentName: \"em\",\n    \"href\": \"https://takenobu-hs.github.io/downloads/ethereum_evm_illustrated.pdf\"\n  }, \"Ethereum EVM illustrated\"))), mdx(\"p\", null, \"Transactions, which change the state of the EVM, need to be broadcast to the whole network. Any node can broadcast a request for a transaction to be executed on the EVM; after this happens, a miner will execute the transaction and propagate the resulting state change to the rest of the network.\"), mdx(\"p\", null, \"Transactions require a fee and must be mined to become valid. To make this overview simpler we'll cover gas fees and mining elsewhere.\"), mdx(\"p\", null, \"A submitted transaction includes the following information:\"), mdx(\"ul\", null, mdx(\"li\", {\n    parentName: \"ul\"\n  }, mdx(\"inlineCode\", {\n    parentName: \"li\"\n  }, \"recipient\"), \" \\u2013 the receiving address (if an externally-owned account, the transaction will transfer value. If a contract account, the transaction will execute the contract code)\"), mdx(\"li\", {\n    parentName: \"ul\"\n  }, mdx(\"inlineCode\", {\n    parentName: \"li\"\n  }, \"signature\"), \" \\u2013 the identifier of the sender. This is generated when the sender's private key signs the transaction and confirms the sender has authorized this transaction\"), mdx(\"li\", {\n    parentName: \"ul\"\n  }, mdx(\"inlineCode\", {\n    parentName: \"li\"\n  }, \"value\"), \" \\u2013 amount of ETH to transfer from sender to recipient (in WEI, a denomination of ETH)\"), mdx(\"li\", {\n    parentName: \"ul\"\n  }, mdx(\"inlineCode\", {\n    parentName: \"li\"\n  }, \"data\"), \" \\u2013 optional field to include arbitrary data\"), mdx(\"li\", {\n    parentName: \"ul\"\n  }, mdx(\"inlineCode\", {\n    parentName: \"li\"\n  }, \"gasLimit\"), \" \\u2013 the maximum amount of gas units that can be consumed by the transaction. Units of gas represent computational steps\"), mdx(\"li\", {\n    parentName: \"ul\"\n  }, mdx(\"inlineCode\", {\n    parentName: \"li\"\n  }, \"maxPriorityFeePerGas\"), \" - the maximum amount of gas to be included as a tip to the miner\"), mdx(\"li\", {\n    parentName: \"ul\"\n  }, mdx(\"inlineCode\", {\n    parentName: \"li\"\n  }, \"maxFeePerGas\"), \" - the maximum amount of gas willing to be paid for the transaction (inclusive of \", mdx(\"inlineCode\", {\n    parentName: \"li\"\n  }, \"baseFeePerGas\"), \" and \", mdx(\"inlineCode\", {\n    parentName: \"li\"\n  }, \"maxPriorityFeePerGas\"), \")\")), mdx(\"p\", null, \"Gas is a reference to the computation required to process the transaction by a miner. Users have to pay a fee for this computation. The \", mdx(\"inlineCode\", {\n    parentName: \"p\"\n  }, \"gasLimit\"), \", and \", mdx(\"inlineCode\", {\n    parentName: \"p\"\n  }, \"maxPriorityFeePerGas\"), \" determine the maximum transaction fee paid to the miner. \", mdx(\"a\", {\n    parentName: \"p\",\n    \"href\": \"/developers/docs/gas/\"\n  }, \"More on Gas\"), \".\"), mdx(\"p\", null, \"The transaction object will look a little like this:\"), mdx(\"pre\", null, mdx(\"code\", {\n    parentName: \"pre\",\n    \"className\": \"language-js\"\n  }, \"{\\n  from: \\\"0xEA674fdDe714fd979de3EdF0F56AA9716B898ec8\\\",\\n  to: \\\"0xac03bb73b6a9e108530aff4df5077c2b3d481e5a\\\",\\n  gasLimit: \\\"21000\\\",\\n  maxFeePerGas: \\\"300\\\",\\n  maxPriorityFeePerGas: \\\"10\\\",\\n  nonce: \\\"0\\\",\\n  value: \\\"10000000000\\\"\\n}\\n\")), mdx(\"p\", null, \"But a transaction object needs to be signed using the sender's private key. This proves that the transaction could only have come from the sender and was not sent fraudulently.\"), mdx(\"p\", null, \"An Ethereum client like Geth will handle this signing process.\"), mdx(\"p\", null, \"Example \", mdx(\"a\", {\n    parentName: \"p\",\n    \"href\": \"https://eth.wiki/json-rpc/API\"\n  }, \"JSON-RPC\"), \" call:\"), mdx(\"pre\", null, mdx(\"code\", {\n    parentName: \"pre\",\n    \"className\": \"language-json\"\n  }, \"{\\n  \\\"id\\\": 2,\\n  \\\"jsonrpc\\\": \\\"2.0\\\",\\n  \\\"method\\\": \\\"account_signTransaction\\\",\\n  \\\"params\\\": [\\n    {\\n      \\\"from\\\": \\\"0x1923f626bb8dc025849e00f99c25fe2b2f7fb0db\\\",\\n      \\\"gas\\\": \\\"0x55555\\\",\\n      \\\"maxFeePerGas\\\": \\\"0x1234\\\",\\n      \\\"maxPriorityFeePerGas\\\": \\\"0x1234\\\",\\n      \\\"input\\\": \\\"0xabcd\\\",\\n      \\\"nonce\\\": \\\"0x0\\\",\\n      \\\"to\\\": \\\"0x07a565b7ed7d7a678680a4c162885bedbb695fe0\\\",\\n      \\\"value\\\": \\\"0x1234\\\"\\n    }\\n  ]\\n}\\n\")), mdx(\"p\", null, \"Example response:\"), mdx(\"pre\", null, mdx(\"code\", {\n    parentName: \"pre\",\n    \"className\": \"language-json\"\n  }, \"{\\n  \\\"jsonrpc\\\": \\\"2.0\\\",\\n  \\\"id\\\": 2,\\n  \\\"result\\\": {\\n    \\\"raw\\\": \\\"0xf88380018203339407a565b7ed7d7a678680a4c162885bedbb695fe080a44401a6e4000000000000000000000000000000000000000000000000000000000000001226a0223a7c9bcf5531c99be5ea7082183816eb20cfe0bbc322e97cc5c7f71ab8b20ea02aadee6b34b45bb15bc42d9c09de4a6754e7000908da72d48cc7704971491663\\\",\\n    \\\"tx\\\": {\\n      \\\"nonce\\\": \\\"0x0\\\",\\n      \\\"maxFeePerGas\\\": \\\"0x1234\\\",\\n      \\\"maxPriorityFeePerGas\\\": \\\"0x1234\\\",\\n      \\\"gas\\\": \\\"0x55555\\\",\\n      \\\"to\\\": \\\"0x07a565b7ed7d7a678680a4c162885bedbb695fe0\\\",\\n      \\\"value\\\": \\\"0x1234\\\",\\n      \\\"input\\\": \\\"0xabcd\\\",\\n      \\\"v\\\": \\\"0x26\\\",\\n      \\\"r\\\": \\\"0x223a7c9bcf5531c99be5ea7082183816eb20cfe0bbc322e97cc5c7f71ab8b20e\\\",\\n      \\\"s\\\": \\\"0x2aadee6b34b45bb15bc42d9c09de4a6754e7000908da72d48cc7704971491663\\\",\\n      \\\"hash\\\": \\\"0xeba2df809e7a612a0a0d444ccfa5c839624bdc00dd29e3340d46df3870f8a30e\\\"\\n    }\\n  }\\n}\\n\")), mdx(\"ul\", null, mdx(\"li\", {\n    parentName: \"ul\"\n  }, \"the \", mdx(\"inlineCode\", {\n    parentName: \"li\"\n  }, \"raw\"), \" is the signed transaction in Recursive Length Prefix (RLP) encoded form\"), mdx(\"li\", {\n    parentName: \"ul\"\n  }, \"the \", mdx(\"inlineCode\", {\n    parentName: \"li\"\n  }, \"tx\"), \" is the signed transaction in JSON form\")), mdx(\"p\", null, \"With the signature hash, the transaction can be cryptographically proven that it came from the sender and submitted to the network.\"), mdx(\"h2\", {\n    \"id\": \"types-of-transactions\",\n    \"style\": {\n      \"position\": \"relative\"\n    }\n  }, mdx(\"a\", {\n    parentName: \"h2\",\n    \"href\": \"#types-of-transactions\",\n    \"aria-label\": \"types of transactions permalink\",\n    \"className\": \"header-anchor before\"\n  }, mdx(\"svg\", {\n    parentName: \"a\",\n    \"aria-hidden\": \"true\",\n    \"focusable\": \"false\",\n    \"height\": \"16\",\n    \"version\": \"1.1\",\n    \"viewBox\": \"0 0 16 16\",\n    \"width\": \"16\"\n  }, mdx(\"path\", {\n    parentName: \"svg\",\n    \"fillRule\": \"evenodd\",\n    \"d\": \"M4 9h1v1H4c-1.5 0-3-1.69-3-3.5S2.55 3 4 3h4c1.45 0 3 1.69 3 3.5 0 1.41-.91 2.72-2 3.25V8.59c.58-.45 1-1.27 1-2.09C10 5.22 8.98 4 8 4H4c-.98 0-2 1.22-2 2.5S3 9 4 9zm9-3h-1v1h1c1 0 2 1.22 2 2.5S13.98 12 13 12H9c-.98 0-2-1.22-2-2.5 0-.83.42-1.64 1-2.09V6.25c-1.09.53-2 1.84-2 3.25C6 11.31 7.55 13 9 13h4c1.45 0 3-1.69 3-3.5S14.5 6 13 6z\"\n  }))), \"Types of transactions\"), mdx(\"p\", null, \"On Ethereum there are a few different types of transactions:\"), mdx(\"ul\", null, mdx(\"li\", {\n    parentName: \"ul\"\n  }, \"Regular transactions: a transaction from one wallet to another.\"), mdx(\"li\", {\n    parentName: \"ul\"\n  }, \"Contract deployment transactions: a transaction without a 'to' address, where the data field is used for the contract code.\")), mdx(\"h3\", {\n    \"id\": \"on-gas\",\n    \"style\": {\n      \"position\": \"relative\"\n    }\n  }, mdx(\"a\", {\n    parentName: \"h3\",\n    \"href\": \"#on-gas\",\n    \"aria-label\": \"on gas permalink\",\n    \"className\": \"header-anchor before\"\n  }, mdx(\"svg\", {\n    parentName: \"a\",\n    \"aria-hidden\": \"true\",\n    \"focusable\": \"false\",\n    \"height\": \"16\",\n    \"version\": \"1.1\",\n    \"viewBox\": \"0 0 16 16\",\n    \"width\": \"16\"\n  }, mdx(\"path\", {\n    parentName: \"svg\",\n    \"fillRule\": \"evenodd\",\n    \"d\": \"M4 9h1v1H4c-1.5 0-3-1.69-3-3.5S2.55 3 4 3h4c1.45 0 3 1.69 3 3.5 0 1.41-.91 2.72-2 3.25V8.59c.58-.45 1-1.27 1-2.09C10 5.22 8.98 4 8 4H4c-.98 0-2 1.22-2 2.5S3 9 4 9zm9-3h-1v1h1c1 0 2 1.22 2 2.5S13.98 12 13 12H9c-.98 0-2-1.22-2-2.5 0-.83.42-1.64 1-2.09V6.25c-1.09.53-2 1.84-2 3.25C6 11.31 7.55 13 9 13h4c1.45 0 3-1.69 3-3.5S14.5 6 13 6z\"\n  }))), \"On gas\"), mdx(\"p\", null, \"As mentioned, transactions cost \", mdx(\"a\", {\n    parentName: \"p\",\n    \"href\": \"/developers/docs/gas/\"\n  }, \"gas\"), \" to execute. Simple transfer transactions require 21000 units of Gas.\"), mdx(\"p\", null, \"So for Bob to send Alice 1 ETH at a \", mdx(\"inlineCode\", {\n    parentName: \"p\"\n  }, \"baseFeePerGas\"), \" of 190 gwei and \", mdx(\"inlineCode\", {\n    parentName: \"p\"\n  }, \"maxPriorityFeePerGas\"), \" of 10 gwei, Bob will need to pay the following fee:\"), mdx(\"pre\", null, mdx(\"code\", {\n    parentName: \"pre\"\n  }, \"(190 + 10) * 21000 = 4,200,000 gwei\\n--or--\\n0.0042 ETH\\n\")), mdx(\"p\", null, \"Bob's account will be debited \", mdx(\"strong\", {\n    parentName: \"p\"\n  }, \"-1.0042 ETH\")), mdx(\"p\", null, \"Alice's account will be credited \", mdx(\"strong\", {\n    parentName: \"p\"\n  }, \"+1.0 ETH\")), mdx(\"p\", null, \"The base fee will be burned \", mdx(\"strong\", {\n    parentName: \"p\"\n  }, \"-0.00399 ETH\")), mdx(\"p\", null, \"Miner keeps the tip \", mdx(\"strong\", {\n    parentName: \"p\"\n  }, \"+0.000210 ETH\")), mdx(\"p\", null, \"Gas is required for any smart contract interaction too.\"), mdx(\"p\", null, mdx(\"span\", {\n    parentName: \"p\",\n    \"className\": \"gatsby-resp-image-wrapper\",\n    \"style\": {\n      \"position\": \"relative\",\n      \"display\": \"block\",\n      \"marginLeft\": \"auto\",\n      \"marginRight\": \"auto\",\n      \"maxWidth\": \"1080px\"\n    }\n  }, \"\\n      \", mdx(\"a\", {\n    parentName: \"span\",\n    \"className\": \"gatsby-resp-image-link\",\n    \"href\": \"/static/c3638b26a1210d2c73a7ec2335c57351/302a4/gas-tx.png\",\n    \"style\": {\n      \"display\": \"block\"\n    },\n    \"target\": \"_blank\",\n    \"rel\": \"noopener\"\n  }, \"\\n    \", mdx(\"span\", {\n    parentName: \"a\",\n    \"className\": \"gatsby-resp-image-background-image\",\n    \"style\": {\n      \"paddingBottom\": \"56.333333333333336%\",\n      \"position\": \"relative\",\n      \"bottom\": \"0\",\n      \"left\": \"0\",\n      \"backgroundImage\": \"url('data:image/png;base64,iVBORw0KGgoAAAANSUhEUgAAABQAAAALCAYAAAB/Ca1DAAAACXBIWXMAAAsTAAALEwEAmpwYAAACyUlEQVQoz5WSbUhTYRSAz151u5upEKwCNXLTZWqiQRRE/bH6kUFGH0IQQRZR6nTbNa0wKRND1BCzZLSPUhTB/MLUFBWdBpofm/WjMLS0cCjOb3Nuu6f3bkn0J+jCw3tfzn2fe95zDiAA5FYi5BkRSnWr8Mq4CHrDChgMywIK/PdjLpqDqvLPqRXPPxXrtT+yjcblfIN+6egL4wbUaMcJqkPh38j/rBo5ACJCWflcQcnTb2/Lnk3XG4wrvTrD2sVK7TQktyDhNFsfh3pQy8CVsQ/wKj0bRzlBSQR3jKNi6A0A3uqGvz7ZdK8E94M3qoJFVMhQoQf67tnLGDsbySxqDogX1bHiNTZaTGMiR1oIAHfvIFlXRW7Dc8DgFWDqqPhDgoJMtnVJOZXMB9N3C5x3Yn5nKCeYHiiw5pwW8AnEvUGIaEJQtiE4VTIJZigIaHjB685gU/98dU/PTN3w8HrryIg95Ut73yV7zrEdSxWPgGPDJTRDCS+11Hd613xHMPXMXjD12dr7THMtJtNCLqZIhQ6llECNHcHSPBQx+H4JBwdsODK6hpbhFX0D/dFKSZI/p1HwMn+KHy2+7+TDmwF8dlUvrUVPShbxceEylpb/7MMFEDYpdhG4T4MfazuCzRZn7Zhls8lscXSZ31lvoS8w6/ln/DhNGF9HIaeWC6lQNJOXJLk9jtDQuH6+usI20Ky1YHflWD+WBTLjx0UEXJlRBJOlIueoCXADwTZhhe4h9Jpo7TxMJeLN7CNAr+PuNN/FVWUUJGYhdKjLAasehEyVFg5/LSlunE+ND8BrfIPVMjoaYRLUXRdgYbwXFp8i9oKzXrO6XCGXoRBQET86hMr5mSQuCrJBZCrlpBc/x5aEyz4DsF2Aaf6MIyOWAKr2ABUyzsxoD1kxDMcqGLwhcY/MX2ND2dq72L2M4+4hMccGibhMWhY2XIzKnfALPNeVtmIWABEAAAAASUVORK5CYII=')\",\n      \"backgroundSize\": \"cover\",\n      \"display\": \"block\"\n    }\n  }), \"\\n  \", mdx(\"img\", {\n    parentName: \"a\",\n    \"className\": \"gatsby-resp-image-image\",\n    \"alt\": \"Diagram showing how unused gas is refunded\",\n    \"title\": \"Diagram showing how unused gas is refunded\",\n    \"src\": \"/static/c3638b26a1210d2c73a7ec2335c57351/302a4/gas-tx.png\",\n    \"srcSet\": [\"/static/c3638b26a1210d2c73a7ec2335c57351/5a46d/gas-tx.png 300w\", \"/static/c3638b26a1210d2c73a7ec2335c57351/0a47e/gas-tx.png 600w\", \"/static/c3638b26a1210d2c73a7ec2335c57351/302a4/gas-tx.png 1080w\"],\n    \"sizes\": \"(max-width: 1080px) 100vw, 1080px\",\n    \"style\": {\n      \"width\": \"100%\",\n      \"height\": \"100%\",\n      \"margin\": \"0\",\n      \"verticalAlign\": \"middle\",\n      \"position\": \"absolute\",\n      \"top\": \"0\",\n      \"left\": \"0\"\n    },\n    \"loading\": \"lazy\",\n    \"decoding\": \"async\"\n  }), \"\\n  \"), \"\\n    \"), \"\\n\", mdx(\"em\", {\n    parentName: \"p\"\n  }, \"Diagram adapted from \", mdx(\"a\", {\n    parentName: \"em\",\n    \"href\": \"https://takenobu-hs.github.io/downloads/ethereum_evm_illustrated.pdf\"\n  }, \"Ethereum EVM illustrated\"))), mdx(\"p\", null, \"Any gas not used in a transaction is refunded to the user account.\"), mdx(\"h2\", {\n    \"id\": \"transaction-lifecycle\",\n    \"style\": {\n      \"position\": \"relative\"\n    }\n  }, mdx(\"a\", {\n    parentName: \"h2\",\n    \"href\": \"#transaction-lifecycle\",\n    \"aria-label\": \"transaction lifecycle permalink\",\n    \"className\": \"header-anchor before\"\n  }, mdx(\"svg\", {\n    parentName: \"a\",\n    \"aria-hidden\": \"true\",\n    \"focusable\": \"false\",\n    \"height\": \"16\",\n    \"version\": \"1.1\",\n    \"viewBox\": \"0 0 16 16\",\n    \"width\": \"16\"\n  }, mdx(\"path\", {\n    parentName: \"svg\",\n    \"fillRule\": \"evenodd\",\n    \"d\": \"M4 9h1v1H4c-1.5 0-3-1.69-3-3.5S2.55 3 4 3h4c1.45 0 3 1.69 3 3.5 0 1.41-.91 2.72-2 3.25V8.59c.58-.45 1-1.27 1-2.09C10 5.22 8.98 4 8 4H4c-.98 0-2 1.22-2 2.5S3 9 4 9zm9-3h-1v1h1c1 0 2 1.22 2 2.5S13.98 12 13 12H9c-.98 0-2-1.22-2-2.5 0-.83.42-1.64 1-2.09V6.25c-1.09.53-2 1.84-2 3.25C6 11.31 7.55 13 9 13h4c1.45 0 3-1.69 3-3.5S14.5 6 13 6z\"\n  }))), \"Transaction lifecycle\"), mdx(\"p\", null, \"Once the transaction has been submitted the following happens:\"), mdx(\"ol\", null, mdx(\"li\", {\n    parentName: \"ol\"\n  }, \"Once you send a transaction, cryptography generates a transaction hash:\\n\", mdx(\"inlineCode\", {\n    parentName: \"li\"\n  }, \"0x97d99bc7729211111a21b12c933c949d4f31684f1d6954ff477d0477538ff017\")), mdx(\"li\", {\n    parentName: \"ol\"\n  }, \"The transaction is then broadcast to the network and included in a pool with lots of other transactions.\"), mdx(\"li\", {\n    parentName: \"ol\"\n  }, \"A miner must pick your transaction and include it in a block in order to verify the transaction and consider it \\\"successful\\\".\", mdx(\"ul\", {\n    parentName: \"li\"\n  }, mdx(\"li\", {\n    parentName: \"ul\"\n  }, \"You may end up waiting at this stage if the network is busy and miners aren't able to keep up.\"))), mdx(\"li\", {\n    parentName: \"ol\"\n  }, \"Your transaction will receive \\\"confirmations\\\". The number of confirmations is the number of blocks created since the block that included your transaction. The higher the number, the greater the certainty that the network processed and recognized the transaction.\", mdx(\"ul\", {\n    parentName: \"li\"\n  }, mdx(\"li\", {\n    parentName: \"ul\"\n  }, \"Recent blocks may get re-organized, giving the impression the transaction was unsuccessful; however, the transaction may still be valid but included in a different block.\"), mdx(\"li\", {\n    parentName: \"ul\"\n  }, \"The probability of a re-organization diminishes with every subsequent block mined, i.e. the greater the number of confirmations, the more immutable the transaction is.\")))), mdx(\"h2\", {\n    \"id\": \"a-visual-demo\",\n    \"style\": {\n      \"position\": \"relative\"\n    }\n  }, mdx(\"a\", {\n    parentName: \"h2\",\n    \"href\": \"#a-visual-demo\",\n    \"aria-label\": \"a visual demo permalink\",\n    \"className\": \"header-anchor before\"\n  }, mdx(\"svg\", {\n    parentName: \"a\",\n    \"aria-hidden\": \"true\",\n    \"focusable\": \"false\",\n    \"height\": \"16\",\n    \"version\": \"1.1\",\n    \"viewBox\": \"0 0 16 16\",\n    \"width\": \"16\"\n  }, mdx(\"path\", {\n    parentName: \"svg\",\n    \"fillRule\": \"evenodd\",\n    \"d\": \"M4 9h1v1H4c-1.5 0-3-1.69-3-3.5S2.55 3 4 3h4c1.45 0 3 1.69 3 3.5 0 1.41-.91 2.72-2 3.25V8.59c.58-.45 1-1.27 1-2.09C10 5.22 8.98 4 8 4H4c-.98 0-2 1.22-2 2.5S3 9 4 9zm9-3h-1v1h1c1 0 2 1.22 2 2.5S13.98 12 13 12H9c-.98 0-2-1.22-2-2.5 0-.83.42-1.64 1-2.09V6.25c-1.09.53-2 1.84-2 3.25C6 11.31 7.55 13 9 13h4c1.45 0 3-1.69 3-3.5S14.5 6 13 6z\"\n  }))), \"A visual demo\"), mdx(\"p\", null, \"Watch Austin walk you through transactions, gas, and mining.\"), mdx(\"iframe\", {\n    width: \"100%\",\n    height: \"315\",\n    src: \"https://www.youtube.com/embed/er-0ihqFQB0\",\n    frameBorder: \"0\",\n    allow: \"accelerometer; autoplay; clipboard-write; encrypted-media; gyroscope; picture-in-picture\",\n    allowFullScreen: true\n  }), mdx(\"h2\", {\n    \"id\": \"typed-transaction-envelope\",\n    \"style\": {\n      \"position\": \"relative\"\n    }\n  }, mdx(\"a\", {\n    parentName: \"h2\",\n    \"href\": \"#typed-transaction-envelope\",\n    \"aria-label\": \"typed transaction envelope permalink\",\n    \"className\": \"header-anchor before\"\n  }, mdx(\"svg\", {\n    parentName: \"a\",\n    \"aria-hidden\": \"true\",\n    \"focusable\": \"false\",\n    \"height\": \"16\",\n    \"version\": \"1.1\",\n    \"viewBox\": \"0 0 16 16\",\n    \"width\": \"16\"\n  }, mdx(\"path\", {\n    parentName: \"svg\",\n    \"fillRule\": \"evenodd\",\n    \"d\": \"M4 9h1v1H4c-1.5 0-3-1.69-3-3.5S2.55 3 4 3h4c1.45 0 3 1.69 3 3.5 0 1.41-.91 2.72-2 3.25V8.59c.58-.45 1-1.27 1-2.09C10 5.22 8.98 4 8 4H4c-.98 0-2 1.22-2 2.5S3 9 4 9zm9-3h-1v1h1c1 0 2 1.22 2 2.5S13.98 12 13 12H9c-.98 0-2-1.22-2-2.5 0-.83.42-1.64 1-2.09V6.25c-1.09.53-2 1.84-2 3.25C6 11.31 7.55 13 9 13h4c1.45 0 3-1.69 3-3.5S14.5 6 13 6z\"\n  }))), \"Typed Transaction Envelope\"), mdx(\"p\", null, \"Ethereum originally had one format for transactions. Each transaction contained a nonce, gas price, gas limit, to address, value, data, v, r, and s. These fields are RLP-encoded, to look something like this:\"), mdx(\"p\", null, mdx(\"inlineCode\", {\n    parentName: \"p\"\n  }, \"RLP([nonce, gasPrice, gasLimit, to, value, data, v, r, s])\")), mdx(\"p\", null, \"Ethereum has evolved to support multiple types of transactions to allow for new features such as access lists and \", mdx(\"a\", {\n    parentName: \"p\",\n    \"href\": \"https://github.com/ethereum/EIPs/blob/master/EIPS/eip-1559.md\"\n  }, \"EIP-1559\"), \" to be implemented without affecting legacy transaction formats.\"), mdx(\"p\", null, mdx(\"a\", {\n    parentName: \"p\",\n    \"href\": \"https://eips.ethereum.org/EIPS/eip-2718\"\n  }, \"EIP-2718: Typed Transaction Envelope\"), \" defines a transaction type that is an envelope for future transaction types.\"), mdx(\"p\", null, \"EIP-2718 is a new generalised envelope for typed transactions. In the new standard, transactions are interpreted as:\"), mdx(\"p\", null, mdx(\"inlineCode\", {\n    parentName: \"p\"\n  }, \"TransactionType || TransactionPayload\")), mdx(\"p\", null, \"Where the fields are defined as:\"), mdx(\"ul\", null, mdx(\"li\", {\n    parentName: \"ul\"\n  }, mdx(\"inlineCode\", {\n    parentName: \"li\"\n  }, \"TransactionType\"), \" - a number between 0 and 0x7f, for a total of 128 possible transaction types.\"), mdx(\"li\", {\n    parentName: \"ul\"\n  }, mdx(\"inlineCode\", {\n    parentName: \"li\"\n  }, \"TransactionPayload\"), \" - an arbitrary byte array defined by the transaction type.\")), mdx(\"h2\", {\n    \"id\": \"further-reading\",\n    \"style\": {\n      \"position\": \"relative\"\n    }\n  }, mdx(\"a\", {\n    parentName: \"h2\",\n    \"href\": \"#further-reading\",\n    \"aria-label\": \"further reading permalink\",\n    \"className\": \"header-anchor before\"\n  }, mdx(\"svg\", {\n    parentName: \"a\",\n    \"aria-hidden\": \"true\",\n    \"focusable\": \"false\",\n    \"height\": \"16\",\n    \"version\": \"1.1\",\n    \"viewBox\": \"0 0 16 16\",\n    \"width\": \"16\"\n  }, mdx(\"path\", {\n    parentName: \"svg\",\n    \"fillRule\": \"evenodd\",\n    \"d\": \"M4 9h1v1H4c-1.5 0-3-1.69-3-3.5S2.55 3 4 3h4c1.45 0 3 1.69 3 3.5 0 1.41-.91 2.72-2 3.25V8.59c.58-.45 1-1.27 1-2.09C10 5.22 8.98 4 8 4H4c-.98 0-2 1.22-2 2.5S3 9 4 9zm9-3h-1v1h1c1 0 2 1.22 2 2.5S13.98 12 13 12H9c-.98 0-2-1.22-2-2.5 0-.83.42-1.64 1-2.09V6.25c-1.09.53-2 1.84-2 3.25C6 11.31 7.55 13 9 13h4c1.45 0 3-1.69 3-3.5S14.5 6 13 6z\"\n  }))), \"Further reading\"), mdx(\"ul\", null, mdx(\"li\", {\n    parentName: \"ul\"\n  }, mdx(\"a\", {\n    parentName: \"li\",\n    \"href\": \"https://eips.ethereum.org/EIPS/eip-2718\"\n  }, \"EIP-2718: Typed Transaction Envelope\"))), mdx(\"p\", null, mdx(\"em\", {\n    parentName: \"p\"\n  }, \"Know of a community resource that helped you? Edit this page and add it!\")), mdx(\"h2\", {\n    \"id\": \"related-topics\",\n    \"style\": {\n      \"position\": \"relative\"\n    }\n  }, mdx(\"a\", {\n    parentName: \"h2\",\n    \"href\": \"#related-topics\",\n    \"aria-label\": \"related topics permalink\",\n    \"className\": \"header-anchor before\"\n  }, mdx(\"svg\", {\n    parentName: \"a\",\n    \"aria-hidden\": \"true\",\n    \"focusable\": \"false\",\n    \"height\": \"16\",\n    \"version\": \"1.1\",\n    \"viewBox\": \"0 0 16 16\",\n    \"width\": \"16\"\n  }, mdx(\"path\", {\n    parentName: \"svg\",\n    \"fillRule\": \"evenodd\",\n    \"d\": \"M4 9h1v1H4c-1.5 0-3-1.69-3-3.5S2.55 3 4 3h4c1.45 0 3 1.69 3 3.5 0 1.41-.91 2.72-2 3.25V8.59c.58-.45 1-1.27 1-2.09C10 5.22 8.98 4 8 4H4c-.98 0-2 1.22-2 2.5S3 9 4 9zm9-3h-1v1h1c1 0 2 1.22 2 2.5S13.98 12 13 12H9c-.98 0-2-1.22-2-2.5 0-.83.42-1.64 1-2.09V6.25c-1.09.53-2 1.84-2 3.25C6 11.31 7.55 13 9 13h4c1.45 0 3-1.69 3-3.5S14.5 6 13 6z\"\n  }))), \"Related topics\"), mdx(\"ul\", null, mdx(\"li\", {\n    parentName: \"ul\"\n  }, mdx(\"a\", {\n    parentName: \"li\",\n    \"href\": \"/developers/docs/accounts/\"\n  }, \"Accounts\")), mdx(\"li\", {\n    parentName: \"ul\"\n  }, mdx(\"a\", {\n    parentName: \"li\",\n    \"href\": \"/developers/docs/evm/\"\n  }, \"Ethereum virtual machine (EVM)\")), mdx(\"li\", {\n    parentName: \"ul\"\n  }, mdx(\"a\", {\n    parentName: \"li\",\n    \"href\": \"/developers/docs/gas/\"\n  }, \"Gas\")), mdx(\"li\", {\n    parentName: \"ul\"\n  }, mdx(\"a\", {\n    parentName: \"li\",\n    \"href\": \"/developers/docs/consensus-mechanisms/pow/mining/\"\n  }, \"Mining\"))));\n}\n;\nMDXContent.isMDXComponent = true;","tableOfContents":{"items":[{"url":"#prerequisites-prerequisites","title":"Prerequisites {#prerequisites}"},{"url":"#whats-a-transaction-whats-a-transaction","title":"What's a transaction? {#whats-a-transaction}"},{"url":"#types-of-transactions-types-of-transactions","title":"Types of transactions {#types-of-transactions}","items":[{"url":"#on-gas-on-gas","title":"On gas {#on-gas}"}]},{"url":"#transaction-lifecycle-transaction-lifecycle","title":"Transaction lifecycle {#transaction-lifecycle}"},{"url":"#a-visual-demo-a-visual-demo","title":"A visual demo {#a-visual-demo}"},{"url":"#typed-transaction-envelope-typed-transaction-envelope","title":"Typed Transaction Envelope {#typed-transaction-envelope}"},{"url":"#further-reading-further-reading","title":"Further reading {#further-reading}"},{"url":"#related-topics-related-topics","title":"Related topics {#related-topics}"}]}}},"pageContext":{"slug":"/zh-tw/developers/docs/transactions/","ignoreTranslationBanner":false,"isOutdated":false,"isContentEnglish":true,"relativePath":"src/content/developers/docs/transactions/index.md","intl":{"language":"zh-tw","defaultLanguage":"en","languages":["en","ar","bg","bn","ca","cs","de","el","es","fa","fi","fr","hi","hr","hu","id","ig","it","ja","ko","lt","ml","nl","nb","pl","pt","pt-br","ro","ru","se","sk","sl","tr","uk","vi","zh","zh-tw"],"messages":{"page-developer-meta-title":"Ethereum 開發者資源","page-developers-about":"關於這些開發者資源","page-developers-about-desc":"ethereum.org 可協助您透過文件了解 Ethereum 的基本概念及開發堆疊。還有多個教學課程讓您快速上手。","page-developers-about-desc-2":"透過 Mozilla Developer Network 的激發，我們認為 Ethereum 需要一個可以收集優良開發者內容和資源的地方。如同 Mozilla，這裡的所有內容都是開放式的，可供您就內容延伸並改進。","page-developers-account-desc":"合約或網路人員","page-developers-accounts-link":"帳戶","page-developers-advanced":"進階","page-developers-api-desc":"使用程式庫與智能合約互動","page-developers-api-link":"後端 API","page-developers-aria-label":"開發者選單","page-developers-block-desc":"新增至區塊鏈的異動批次","page-developers-block-explorers-desc":"取得 Ethereum 資料的入口","page-developers-block-explorers-link":"區塊瀏覽器","page-developers-blocks-link":"分塊","page-developers-browse-tutorials":"瀏覽教學課程","page-developers-choose-stack":"選擇您的堆疊","page-developers-contribute":"貢獻","page-developers-dev-env-desc":"適合去中心化應用程式開發的 IDE","page-developers-dev-env-link":"開發環境","page-developers-discord":"加入 Discord 伺服器","page-developers-docs-introductions":"簡介","page-developers-evm-desc":"處理異動的電腦","page-developers-evm-link":"Ethereum 虛擬機器 (EVM)","page-developers-explore-documentation":"探索文件","page-developers-feedback":"若有任何意見回饋，請在 GitHub 或 Discord 伺服器上提問。","page-developers-frameworks-desc":"協肋加速開發的工具","page-developers-frameworks-link":"開發架構","page-developers-fundamentals":"基礎","page-developers-gas-desc":"需要加強異動功能","page-developers-gas-link":"Gas","page-developers-get-started":"您想如何開始？","page-developers-improve-ethereum":"協助我們推出更完善的 ethereum.org","page-developers-improve-ethereum-desc":"如同 ethereum.org，這些文件是集社群之力完成的。如果看到任何錯誤或認為內容有改進空間，或想提供可協助 Ethereum 開發者的機會，請建立 PR。","page-developers-into-eth-desc":"區塊鏈和 Ethereum 簡介","page-developers-intro-dapps-desc":"去中心化應用程式簡介","page-developers-intro-dapps-link":"去中心化應用程式簡介","page-developers-intro-eth-link":"Ethereum 簡介","page-developers-intro-stack":"堆疊簡介","page-developers-intro-stack-desc":"Ethereum 堆疊簡介","page-developers-js-libraries-desc":"使用 Javascript 與智能合約互動","page-developers-js-libraries-link":"Javascript 程式庫","page-developers-language-desc":"以慣用的語言使用 Ethereum","page-developers-languages":"程式語言","page-developers-learn":"學習 Ethereum 開發","page-developers-learn-desc":"參閱我們的文件，了解核心概忥和 Ethereum 堆疊","page-developers-learn-tutorials":"透過教學課程學習","page-developers-learn-tutorials-cta":"觀看教學課程","page-developers-learn-tutorials-desc":"向經驗豐富的建置者逐步學習 Ethereum 開發","page-developers-meta-desc":"Ethereum 開發人員文件、教學課程和工具。","page-developers-mining-desc":"如何建立新區塊並達到共識","page-developers-mining-link":"挖礦","page-developers-networks-desc":"主網和測試網路概觀","page-developers-networks-link":"網路","page-developers-node-clients-desc":"如何在網路中驗證區塊和異動","page-developers-node-clients-link":"節點和用戶端","page-developers-oracle-desc":"將鏈外資料傳入智能合約","page-developers-oracles-link":"Oracles","page-developers-play-code":"程式碼大觀","page-developers-read-docs":"閱讀文件","page-developers-scaling-desc":"快速異動解決方案","page-developers-scaling-link":"縮放","page-developers-smart-contract-security-desc":"開發期間要考量的安全性措施","page-developers-smart-contract-security-link":"安全性","page-developers-set-up":"設定本機環境","page-developers-setup-desc":"設定開發還境並備妥堆疊以建置","page-developers-smart-contracts-desc":"去中心化應用程式的邏輯 - 自我執行合約","page-developers-smart-contracts-link":"智能合約","page-developers-stack":"堆疊","page-developers-start":"開始實驗","page-developers-start-desc":"想先實驗再提問嗎？","page-developers-storage-desc":"如何處理去中心化應用程式存放區","page-developers-storage-link":"存儲","page-developers-subtitle":"Ethereum 建置者手冊。取之於建置者，用之於建置者。","page-developers-title-1":"Ethereum","page-developers-title-2":"開發者","page-developers-title-3":"資源","page-developers-token-standards-desc":"接受的權杖標準概觀","page-developers-token-standards-link":"權杖標準","page-developers-transactions-desc":"Ethereum 說明變更的方式","page-developers-transactions-link":"異動","page-developers-web3-desc":"開發的 web3 世界有何不同","page-developers-web3-link":"Web2 vs Web3","page-index-hero-image-alt":"ethereum.org 主影像","page-index-meta-description":"Ethereum 是一個全球化、去中心化平台，提供營利商機和新型應用程式。您可以在 Ethereum 撰寫程式碼控制營利，並建置可從全球各地存取的應用程式。","page-index-meta-title":"首頁","page-index-sections-developers-desc":"學習 Ethereum 技術及應用程式，以便開始建置。","page-index-sections-developers-image-alt":"一隻手在使用樂高積本做出 Ethereum 的字樣的圖片","page-index-sections-developers-link-text":"開始建置","page-index-sections-developers-title":"開發者","page-index-sections-enterprise-desc":"看看 Ethereum 能如何開啟新商業模式，降低成本並承諾業務前景。","page-index-sections-enterprise-image-alt":"一群人在膝上型電腦旁工作的圖片","page-index-sections-enterprise-link-text":"企業級 Ethereum","page-index-sections-enterprise-title":"企業","page-index-sections-individuals-desc":"了解 Ethereum、Ether、錢包、權杖等，以便開始使用 Ethereum 應用程式。","page-index-sections-individuals-image-alt":"監督小狗坐在電腦前的圖片","page-index-sections-individuals-link-text":"Ethereum 入門","page-index-sections-individuals-title":"關於 Ethereum","page-index-subtitle":"在 Ethereum 上，您可以撰寫程式碼來管理數位資產，就像執行程式一般，在全球各地都可以使用。","page-index-title":"Ethereum 是一個全球性的去中心化開放程式碼應用程式平台。","about-ethereum-org":"關於 ethereum.org","about-us":"關於我們","brand-assets":"品牌資產","community":"社群","contact":"與我們聯絡","contributing":"參與貢獻","cookie-policy":"Cookie 政策","decentralized-applications-dapps":"分散的應用程式 (dapps)","developers":"開發者","developers-home":"開發者首頁","documentation":"文件","ef-blog":"Ethereum 基金會部落格","eips":"Ethereum 改進提案","enterprise":"企業","ethereum":"Ethereum","ethereum-2-0":"Ethereum 2.0","ethereum-brand-assets":"Ethereum 品牌資產","ethereum-community":"Ethereum 社群","ethereum-glossary":"Ethereum 字典","ethereum-wallets":"Ethereum 錢包","ethereum-whitepaper":"Ethereum 白皮書","get-eth":"取得 ETH","get-started":"開始使用","guides-and-resources":"指南及資源","how-ethereum-works":"Ethereum 如何運作","individuals":"個人","individuals-menu":"個人選單","language-support":"語言支援","languages":"語言","learn":"學習","learn-by-coding":"通過編碼學習","learn-more":"了解更多","mainnet-ethereum":"Mainnet Ethereum","nav-beginners":"初學者","page-404-copy":"請使用上面的搜索框來查找您想要的信息或返回主頁。","page-404-not-found":"找不到","page-enterprise":"企業","page-index":"Ethereum","page-index-section-beginners-item-one":"第一次認識 Ethereum？","page-index-section-beginners-item-three":"為什麼我要認識 Ethereum？","page-index-section-beginners-item-two":"什麼是 Ethereum？","page-index-section-beginners-title":"初學者","page-index-section-developers-item-one":"入門指南","page-index-section-developers-item-three":"最新的開發者工具","page-index-section-developers-item-two":"學習撰寫智慧型合約","page-index-section-developers-title":"開發人員","page-index-section-enterprise-item-one":"為什麼選擇企業版 Ethereum？","page-index-section-enterprise-item-three":"企業開發者社區","page-index-section-enterprise-item-two":"企業級應用特色","page-index-section-enterprise-title":"給企業用戶","page-index-section-individuals-item-one":"什麼是 Ethereum？","page-index-section-individuals-item-three":"指南以及資源","page-index-section-individuals-item-two":"使用 Ethereum","page-index-section-individuals-title":"個人","page-index-section-learn-item-one":"初學者學習資源","page-index-section-learn-item-three":"ETH 2.0","page-index-section-use-item-one":"現在我可以用 Ethereum 來做什麼？","page-index-section-use-item-three":"錢包是什麼？","page-index-section-use-item-two":"如何取得以太幣？","page-index-section-use-title":"使用","page-last-updated":"網頁上次更新","page-learning-tools-consensys-academy-description":"線上以太坊開發者訓練營","page-learning-tools-cryptozombies-description":"學習 Solidity，開發您自己的殭屍遊戲","page-learning-tools-ethernauts-description":"通過破解智能合約來闖關","privacy-policy":"隱私條款","private-ethereum":"私人 Ethereum","search":"搜尋","set-up-local-env":"設定本機環境","stablecoins":"穩定幣","terms-of-use":"使用條款","translation-banner-body-new":"由於尚未翻譯，本頁面內容以英文顯示。協助我們翻譯內容。","translation-banner-body-update":"本頁面內容已有新版本，但目前僅提供英文。協助我們翻譯最新內容。","translation-banner-button-join-translation-program":"加入翻譯計劃","translation-banner-button-learn-more":"了解更多","translation-banner-button-see-english":"查看英文","translation-banner-button-translate-page":"翻譯此頁面","translation-banner-title-new":"協助翻譯本頁面","translation-banner-title-update":"協助更新本頁面","tutorials":"指導手冊","use":"使用","use-ethereum":"使用 Ethereum","website-last-updated":"網站上次更新","what-is-ether":"什麼是 Ether (ETH)？","what-is-ethereum":"什麼是 Ethereum？"},"routed":true,"originalPath":"/developers/docs/transactions/","redirect":false}}},
    "staticQueryHashes": ["1011117294","3003422828","4096231394"]}