{
    "componentChunkName": "component---src-templates-docs-js",
    "path": "/vi/developers/docs/transactions/",
    "result": {"data":{"siteData":{"siteMetadata":{"editContentUrl":"https://github.com/ethereum/ethereum-org-website/tree/dev/"}},"pageData":{"fields":{"slug":"/en/developers/docs/transactions/"},"frontmatter":{"title":"Transactions","description":"An overview of Ethereum transactions – how they work, their data structure, and how to send them via an application.","lang":"en","incomplete":null,"sidebar":true,"sidebarDepth":null,"isOutdated":null},"body":"var _excluded = [\"components\"];\n\nfunction _extends() { _extends = Object.assign || function (target) { for (var i = 1; i < arguments.length; i++) { var source = arguments[i]; for (var key in source) { if (Object.prototype.hasOwnProperty.call(source, key)) { target[key] = source[key]; } } } return target; }; return _extends.apply(this, arguments); }\n\nfunction _objectWithoutProperties(source, excluded) { if (source == null) return {}; var target = _objectWithoutPropertiesLoose(source, excluded); var key, i; if (Object.getOwnPropertySymbols) { var sourceSymbolKeys = Object.getOwnPropertySymbols(source); for (i = 0; i < sourceSymbolKeys.length; i++) { key = sourceSymbolKeys[i]; if (excluded.indexOf(key) >= 0) continue; if (!Object.prototype.propertyIsEnumerable.call(source, key)) continue; target[key] = source[key]; } } return target; }\n\nfunction _objectWithoutPropertiesLoose(source, excluded) { if (source == null) return {}; var target = {}; var sourceKeys = Object.keys(source); var key, i; for (i = 0; i < sourceKeys.length; i++) { key = sourceKeys[i]; if (excluded.indexOf(key) >= 0) continue; target[key] = source[key]; } return target; }\n\n/* @jsxRuntime classic */\n\n/* @jsx mdx */\nvar _frontmatter = {\n  \"title\": \"Transactions\",\n  \"description\": \"An overview of Ethereum transactions – how they work, their data structure, and how to send them via an application.\",\n  \"lang\": \"en\",\n  \"sidebar\": true\n};\nvar layoutProps = {\n  _frontmatter: _frontmatter\n};\nvar MDXLayout = \"wrapper\";\nreturn function MDXContent(_ref) {\n  var components = _ref.components,\n      props = _objectWithoutProperties(_ref, _excluded);\n\n  return mdx(MDXLayout, _extends({}, layoutProps, props, {\n    components: components,\n    mdxType: \"MDXLayout\"\n  }), mdx(\"p\", null, \"Transactions are cryptographically signed instructions from accounts. An account will initiate a transaction to update the state of the Ethereum network. The simplest transaction is transferring ETH from one account to another.\"), mdx(\"h2\", {\n    \"id\": \"prerequisites\",\n    \"style\": {\n      \"position\": \"relative\"\n    }\n  }, mdx(\"a\", {\n    parentName: \"h2\",\n    \"href\": \"#prerequisites\",\n    \"aria-label\": \"prerequisites permalink\",\n    \"className\": \"header-anchor before\"\n  }, mdx(\"svg\", {\n    parentName: \"a\",\n    \"aria-hidden\": \"true\",\n    \"focusable\": \"false\",\n    \"height\": \"16\",\n    \"version\": \"1.1\",\n    \"viewBox\": \"0 0 16 16\",\n    \"width\": \"16\"\n  }, mdx(\"path\", {\n    parentName: \"svg\",\n    \"fillRule\": \"evenodd\",\n    \"d\": \"M4 9h1v1H4c-1.5 0-3-1.69-3-3.5S2.55 3 4 3h4c1.45 0 3 1.69 3 3.5 0 1.41-.91 2.72-2 3.25V8.59c.58-.45 1-1.27 1-2.09C10 5.22 8.98 4 8 4H4c-.98 0-2 1.22-2 2.5S3 9 4 9zm9-3h-1v1h1c1 0 2 1.22 2 2.5S13.98 12 13 12H9c-.98 0-2-1.22-2-2.5 0-.83.42-1.64 1-2.09V6.25c-1.09.53-2 1.84-2 3.25C6 11.31 7.55 13 9 13h4c1.45 0 3-1.69 3-3.5S14.5 6 13 6z\"\n  }))), \"Prerequisites\"), mdx(\"p\", null, \"To help you better understand this page, we recommend you first read \", mdx(\"a\", {\n    parentName: \"p\",\n    \"href\": \"/developers/docs/accounts/\"\n  }, \"Accounts\"), \" and our \", mdx(\"a\", {\n    parentName: \"p\",\n    \"href\": \"/developers/docs/intro-to-ethereum/\"\n  }, \"introduction to Ethereum\"), \".\"), mdx(\"h2\", {\n    \"id\": \"whats-a-transaction\",\n    \"style\": {\n      \"position\": \"relative\"\n    }\n  }, mdx(\"a\", {\n    parentName: \"h2\",\n    \"href\": \"#whats-a-transaction\",\n    \"aria-label\": \"whats a transaction permalink\",\n    \"className\": \"header-anchor before\"\n  }, mdx(\"svg\", {\n    parentName: \"a\",\n    \"aria-hidden\": \"true\",\n    \"focusable\": \"false\",\n    \"height\": \"16\",\n    \"version\": \"1.1\",\n    \"viewBox\": \"0 0 16 16\",\n    \"width\": \"16\"\n  }, mdx(\"path\", {\n    parentName: \"svg\",\n    \"fillRule\": \"evenodd\",\n    \"d\": \"M4 9h1v1H4c-1.5 0-3-1.69-3-3.5S2.55 3 4 3h4c1.45 0 3 1.69 3 3.5 0 1.41-.91 2.72-2 3.25V8.59c.58-.45 1-1.27 1-2.09C10 5.22 8.98 4 8 4H4c-.98 0-2 1.22-2 2.5S3 9 4 9zm9-3h-1v1h1c1 0 2 1.22 2 2.5S13.98 12 13 12H9c-.98 0-2-1.22-2-2.5 0-.83.42-1.64 1-2.09V6.25c-1.09.53-2 1.84-2 3.25C6 11.31 7.55 13 9 13h4c1.45 0 3-1.69 3-3.5S14.5 6 13 6z\"\n  }))), \"What's a transaction?\"), mdx(\"p\", null, \"An Ethereum transaction refers to an action initiated by an externally-owned account, in other words an account managed by a human, not a contract. For example, if Bob sends Alice 1 ETH, Bob's account must be debited and Alice's must be credited. This state-changing action takes place within a transaction.\"), mdx(\"p\", null, mdx(\"span\", {\n    parentName: \"p\",\n    \"className\": \"gatsby-resp-image-wrapper\",\n    \"style\": {\n      \"position\": \"relative\",\n      \"display\": \"block\",\n      \"marginLeft\": \"auto\",\n      \"marginRight\": \"auto\",\n      \"maxWidth\": \"1080px\"\n    }\n  }, \"\\n      \", mdx(\"a\", {\n    parentName: \"span\",\n    \"className\": \"gatsby-resp-image-link\",\n    \"href\": \"/static/570dedb843948d6bef5e21a6769d5c35/302a4/tx.png\",\n    \"style\": {\n      \"display\": \"block\"\n    },\n    \"target\": \"_blank\",\n    \"rel\": \"noopener\"\n  }, \"\\n    \", mdx(\"span\", {\n    parentName: \"a\",\n    \"className\": \"gatsby-resp-image-background-image\",\n    \"style\": {\n      \"paddingBottom\": \"56.333333333333336%\",\n      \"position\": \"relative\",\n      \"bottom\": \"0\",\n      \"left\": \"0\",\n      \"backgroundImage\": \"url('data:image/png;base64,iVBORw0KGgoAAAANSUhEUgAAABQAAAALCAYAAAB/Ca1DAAAACXBIWXMAAAsTAAALEwEAmpwYAAACN0lEQVQoz22Sv2sTYRjHvzFSs1SxOhVKSdpiyOQogv+Ag7g7OdhBSgeHRpxsldKhWJPmencmlx93lw7VEHRVl4gONYNTERo1DTQ1mMTcj5RSpa/Pc8SaFA8+vMfz/T7f5733XmxsLGJuroVotNlbW7Q2vbUf1vr5n39mpgaEQjswDNu/vu6czucHSSYtpNIuNKIgf/LeuXbSx72cMTGxA0xN1TkQVCTcHg7MvIPUszbePH0JMQ2I28DblSLVOp72z+vyAC+DszA5uYtMxp7O5eylXM5ZIB4Rj7NZ+6Eqty8W4h8hblHgDaAQ3wTXWGNPz8s9S5zhBY6NVaDr9hZNELpueRgGYwspeRiGEOhGr1xwo1fP87uU+h1m7S+63umt9tbo6GfQM0vb7ZY07btIJCr7yWT9IJXaOzRMx9aUxiURhJ/Cztn3r50V13GmGHt/2TC7lixXf0nSlwNFqe1nsy0KdEuABgwPf6AdOmWelMu1hWk6BE93REpthx88Fygt66feLev+u68Esko9QtoRh2QyzWM/7bA8Pl7ln7IHOpMihTaIryR8I2p0ptuKaocMuYrZgvDdeyF8ebkCWe0GWaPQmmG47OWeBmcEg3RtRkZeQ5KsoUSiFYjHfwTW1joBSerQagViKy3fHU2gPL+AzflF3DTpDJ/s+lhjbyzWIO/PXo81FA5vA5FIDbJsQVUtKMogsVgHq6uDcO2kj3s5g7PAlzGdtvmzB6BrcDyoH66xdtLPGZz1Bxq766aA8czeAAAAAElFTkSuQmCC')\",\n      \"backgroundSize\": \"cover\",\n      \"display\": \"block\"\n    }\n  }), \"\\n  \", mdx(\"img\", {\n    parentName: \"a\",\n    \"className\": \"gatsby-resp-image-image\",\n    \"alt\": \"Diagram showing a transaction cause state change\",\n    \"title\": \"Diagram showing a transaction cause state change\",\n    \"src\": \"/static/570dedb843948d6bef5e21a6769d5c35/302a4/tx.png\",\n    \"srcSet\": [\"/static/570dedb843948d6bef5e21a6769d5c35/5a46d/tx.png 300w\", \"/static/570dedb843948d6bef5e21a6769d5c35/0a47e/tx.png 600w\", \"/static/570dedb843948d6bef5e21a6769d5c35/302a4/tx.png 1080w\"],\n    \"sizes\": \"(max-width: 1080px) 100vw, 1080px\",\n    \"style\": {\n      \"width\": \"100%\",\n      \"height\": \"100%\",\n      \"margin\": \"0\",\n      \"verticalAlign\": \"middle\",\n      \"position\": \"absolute\",\n      \"top\": \"0\",\n      \"left\": \"0\"\n    },\n    \"loading\": \"lazy\",\n    \"decoding\": \"async\"\n  }), \"\\n  \"), \"\\n    \"), \"\\n\", mdx(\"em\", {\n    parentName: \"p\"\n  }, \"Diagram adapted from \", mdx(\"a\", {\n    parentName: \"em\",\n    \"href\": \"https://takenobu-hs.github.io/downloads/ethereum_evm_illustrated.pdf\"\n  }, \"Ethereum EVM illustrated\"))), mdx(\"p\", null, \"Transactions, which change the state of the EVM, need to be broadcast to the whole network. Any node can broadcast a request for a transaction to be executed on the EVM; after this happens, a miner will execute the transaction and propagate the resulting state change to the rest of the network.\"), mdx(\"p\", null, \"Transactions require a fee and must be mined to become valid. To make this overview simpler we'll cover gas fees and mining elsewhere.\"), mdx(\"p\", null, \"A submitted transaction includes the following information:\"), mdx(\"ul\", null, mdx(\"li\", {\n    parentName: \"ul\"\n  }, mdx(\"inlineCode\", {\n    parentName: \"li\"\n  }, \"recipient\"), \" \\u2013 the receiving address (if an externally-owned account, the transaction will transfer value. If a contract account, the transaction will execute the contract code)\"), mdx(\"li\", {\n    parentName: \"ul\"\n  }, mdx(\"inlineCode\", {\n    parentName: \"li\"\n  }, \"signature\"), \" \\u2013 the identifier of the sender. This is generated when the sender's private key signs the transaction and confirms the sender has authorized this transaction\"), mdx(\"li\", {\n    parentName: \"ul\"\n  }, mdx(\"inlineCode\", {\n    parentName: \"li\"\n  }, \"value\"), \" \\u2013 amount of ETH to transfer from sender to recipient (in WEI, a denomination of ETH)\"), mdx(\"li\", {\n    parentName: \"ul\"\n  }, mdx(\"inlineCode\", {\n    parentName: \"li\"\n  }, \"data\"), \" \\u2013 optional field to include arbitrary data\"), mdx(\"li\", {\n    parentName: \"ul\"\n  }, mdx(\"inlineCode\", {\n    parentName: \"li\"\n  }, \"gasLimit\"), \" \\u2013 the maximum amount of gas units that can be consumed by the transaction. Units of gas represent computational steps\"), mdx(\"li\", {\n    parentName: \"ul\"\n  }, mdx(\"inlineCode\", {\n    parentName: \"li\"\n  }, \"maxPriorityFeePerGas\"), \" - the maximum amount of gas to be included as a tip to the miner\"), mdx(\"li\", {\n    parentName: \"ul\"\n  }, mdx(\"inlineCode\", {\n    parentName: \"li\"\n  }, \"maxFeePerGas\"), \" - the maximum amount of gas willing to be paid for the transaction (inclusive of \", mdx(\"inlineCode\", {\n    parentName: \"li\"\n  }, \"baseFeePerGas\"), \" and \", mdx(\"inlineCode\", {\n    parentName: \"li\"\n  }, \"maxPriorityFeePerGas\"), \")\")), mdx(\"p\", null, \"Gas is a reference to the computation required to process the transaction by a miner. Users have to pay a fee for this computation. The \", mdx(\"inlineCode\", {\n    parentName: \"p\"\n  }, \"gasLimit\"), \", and \", mdx(\"inlineCode\", {\n    parentName: \"p\"\n  }, \"maxPriorityFeePerGas\"), \" determine the maximum transaction fee paid to the miner. \", mdx(\"a\", {\n    parentName: \"p\",\n    \"href\": \"/developers/docs/gas/\"\n  }, \"More on Gas\"), \".\"), mdx(\"p\", null, \"The transaction object will look a little like this:\"), mdx(\"pre\", null, mdx(\"code\", {\n    parentName: \"pre\",\n    \"className\": \"language-js\"\n  }, \"{\\n  from: \\\"0xEA674fdDe714fd979de3EdF0F56AA9716B898ec8\\\",\\n  to: \\\"0xac03bb73b6a9e108530aff4df5077c2b3d481e5a\\\",\\n  gasLimit: \\\"21000\\\",\\n  maxFeePerGas: \\\"300\\\",\\n  maxPriorityFeePerGas: \\\"10\\\",\\n  nonce: \\\"0\\\",\\n  value: \\\"10000000000\\\"\\n}\\n\")), mdx(\"p\", null, \"But a transaction object needs to be signed using the sender's private key. This proves that the transaction could only have come from the sender and was not sent fraudulently.\"), mdx(\"p\", null, \"An Ethereum client like Geth will handle this signing process.\"), mdx(\"p\", null, \"Example \", mdx(\"a\", {\n    parentName: \"p\",\n    \"href\": \"https://eth.wiki/json-rpc/API\"\n  }, \"JSON-RPC\"), \" call:\"), mdx(\"pre\", null, mdx(\"code\", {\n    parentName: \"pre\",\n    \"className\": \"language-json\"\n  }, \"{\\n  \\\"id\\\": 2,\\n  \\\"jsonrpc\\\": \\\"2.0\\\",\\n  \\\"method\\\": \\\"account_signTransaction\\\",\\n  \\\"params\\\": [\\n    {\\n      \\\"from\\\": \\\"0x1923f626bb8dc025849e00f99c25fe2b2f7fb0db\\\",\\n      \\\"gas\\\": \\\"0x55555\\\",\\n      \\\"maxFeePerGas\\\": \\\"0x1234\\\",\\n      \\\"maxPriorityFeePerGas\\\": \\\"0x1234\\\",\\n      \\\"input\\\": \\\"0xabcd\\\",\\n      \\\"nonce\\\": \\\"0x0\\\",\\n      \\\"to\\\": \\\"0x07a565b7ed7d7a678680a4c162885bedbb695fe0\\\",\\n      \\\"value\\\": \\\"0x1234\\\"\\n    }\\n  ]\\n}\\n\")), mdx(\"p\", null, \"Example response:\"), mdx(\"pre\", null, mdx(\"code\", {\n    parentName: \"pre\",\n    \"className\": \"language-json\"\n  }, \"{\\n  \\\"jsonrpc\\\": \\\"2.0\\\",\\n  \\\"id\\\": 2,\\n  \\\"result\\\": {\\n    \\\"raw\\\": \\\"0xf88380018203339407a565b7ed7d7a678680a4c162885bedbb695fe080a44401a6e4000000000000000000000000000000000000000000000000000000000000001226a0223a7c9bcf5531c99be5ea7082183816eb20cfe0bbc322e97cc5c7f71ab8b20ea02aadee6b34b45bb15bc42d9c09de4a6754e7000908da72d48cc7704971491663\\\",\\n    \\\"tx\\\": {\\n      \\\"nonce\\\": \\\"0x0\\\",\\n      \\\"maxFeePerGas\\\": \\\"0x1234\\\",\\n      \\\"maxPriorityFeePerGas\\\": \\\"0x1234\\\",\\n      \\\"gas\\\": \\\"0x55555\\\",\\n      \\\"to\\\": \\\"0x07a565b7ed7d7a678680a4c162885bedbb695fe0\\\",\\n      \\\"value\\\": \\\"0x1234\\\",\\n      \\\"input\\\": \\\"0xabcd\\\",\\n      \\\"v\\\": \\\"0x26\\\",\\n      \\\"r\\\": \\\"0x223a7c9bcf5531c99be5ea7082183816eb20cfe0bbc322e97cc5c7f71ab8b20e\\\",\\n      \\\"s\\\": \\\"0x2aadee6b34b45bb15bc42d9c09de4a6754e7000908da72d48cc7704971491663\\\",\\n      \\\"hash\\\": \\\"0xeba2df809e7a612a0a0d444ccfa5c839624bdc00dd29e3340d46df3870f8a30e\\\"\\n    }\\n  }\\n}\\n\")), mdx(\"ul\", null, mdx(\"li\", {\n    parentName: \"ul\"\n  }, \"the \", mdx(\"inlineCode\", {\n    parentName: \"li\"\n  }, \"raw\"), \" is the signed transaction in Recursive Length Prefix (RLP) encoded form\"), mdx(\"li\", {\n    parentName: \"ul\"\n  }, \"the \", mdx(\"inlineCode\", {\n    parentName: \"li\"\n  }, \"tx\"), \" is the signed transaction in JSON form\")), mdx(\"p\", null, \"With the signature hash, the transaction can be cryptographically proven that it came from the sender and submitted to the network.\"), mdx(\"h2\", {\n    \"id\": \"types-of-transactions\",\n    \"style\": {\n      \"position\": \"relative\"\n    }\n  }, mdx(\"a\", {\n    parentName: \"h2\",\n    \"href\": \"#types-of-transactions\",\n    \"aria-label\": \"types of transactions permalink\",\n    \"className\": \"header-anchor before\"\n  }, mdx(\"svg\", {\n    parentName: \"a\",\n    \"aria-hidden\": \"true\",\n    \"focusable\": \"false\",\n    \"height\": \"16\",\n    \"version\": \"1.1\",\n    \"viewBox\": \"0 0 16 16\",\n    \"width\": \"16\"\n  }, mdx(\"path\", {\n    parentName: \"svg\",\n    \"fillRule\": \"evenodd\",\n    \"d\": \"M4 9h1v1H4c-1.5 0-3-1.69-3-3.5S2.55 3 4 3h4c1.45 0 3 1.69 3 3.5 0 1.41-.91 2.72-2 3.25V8.59c.58-.45 1-1.27 1-2.09C10 5.22 8.98 4 8 4H4c-.98 0-2 1.22-2 2.5S3 9 4 9zm9-3h-1v1h1c1 0 2 1.22 2 2.5S13.98 12 13 12H9c-.98 0-2-1.22-2-2.5 0-.83.42-1.64 1-2.09V6.25c-1.09.53-2 1.84-2 3.25C6 11.31 7.55 13 9 13h4c1.45 0 3-1.69 3-3.5S14.5 6 13 6z\"\n  }))), \"Types of transactions\"), mdx(\"p\", null, \"On Ethereum there are a few different types of transactions:\"), mdx(\"ul\", null, mdx(\"li\", {\n    parentName: \"ul\"\n  }, \"Regular transactions: a transaction from one wallet to another.\"), mdx(\"li\", {\n    parentName: \"ul\"\n  }, \"Contract deployment transactions: a transaction without a 'to' address, where the data field is used for the contract code.\")), mdx(\"h3\", {\n    \"id\": \"on-gas\",\n    \"style\": {\n      \"position\": \"relative\"\n    }\n  }, mdx(\"a\", {\n    parentName: \"h3\",\n    \"href\": \"#on-gas\",\n    \"aria-label\": \"on gas permalink\",\n    \"className\": \"header-anchor before\"\n  }, mdx(\"svg\", {\n    parentName: \"a\",\n    \"aria-hidden\": \"true\",\n    \"focusable\": \"false\",\n    \"height\": \"16\",\n    \"version\": \"1.1\",\n    \"viewBox\": \"0 0 16 16\",\n    \"width\": \"16\"\n  }, mdx(\"path\", {\n    parentName: \"svg\",\n    \"fillRule\": \"evenodd\",\n    \"d\": \"M4 9h1v1H4c-1.5 0-3-1.69-3-3.5S2.55 3 4 3h4c1.45 0 3 1.69 3 3.5 0 1.41-.91 2.72-2 3.25V8.59c.58-.45 1-1.27 1-2.09C10 5.22 8.98 4 8 4H4c-.98 0-2 1.22-2 2.5S3 9 4 9zm9-3h-1v1h1c1 0 2 1.22 2 2.5S13.98 12 13 12H9c-.98 0-2-1.22-2-2.5 0-.83.42-1.64 1-2.09V6.25c-1.09.53-2 1.84-2 3.25C6 11.31 7.55 13 9 13h4c1.45 0 3-1.69 3-3.5S14.5 6 13 6z\"\n  }))), \"On gas\"), mdx(\"p\", null, \"As mentioned, transactions cost \", mdx(\"a\", {\n    parentName: \"p\",\n    \"href\": \"/developers/docs/gas/\"\n  }, \"gas\"), \" to execute. Simple transfer transactions require 21000 units of Gas.\"), mdx(\"p\", null, \"So for Bob to send Alice 1 ETH at a \", mdx(\"inlineCode\", {\n    parentName: \"p\"\n  }, \"baseFeePerGas\"), \" of 190 gwei and \", mdx(\"inlineCode\", {\n    parentName: \"p\"\n  }, \"maxPriorityFeePerGas\"), \" of 10 gwei, Bob will need to pay the following fee:\"), mdx(\"pre\", null, mdx(\"code\", {\n    parentName: \"pre\"\n  }, \"(190 + 10) * 21000 = 4,200,000 gwei\\n--or--\\n0.0042 ETH\\n\")), mdx(\"p\", null, \"Bob's account will be debited \", mdx(\"strong\", {\n    parentName: \"p\"\n  }, \"-1.0042 ETH\")), mdx(\"p\", null, \"Alice's account will be credited \", mdx(\"strong\", {\n    parentName: \"p\"\n  }, \"+1.0 ETH\")), mdx(\"p\", null, \"The base fee will be burned \", mdx(\"strong\", {\n    parentName: \"p\"\n  }, \"-0.00399 ETH\")), mdx(\"p\", null, \"Miner keeps the tip \", mdx(\"strong\", {\n    parentName: \"p\"\n  }, \"+0.000210 ETH\")), mdx(\"p\", null, \"Gas is required for any smart contract interaction too.\"), mdx(\"p\", null, mdx(\"span\", {\n    parentName: \"p\",\n    \"className\": \"gatsby-resp-image-wrapper\",\n    \"style\": {\n      \"position\": \"relative\",\n      \"display\": \"block\",\n      \"marginLeft\": \"auto\",\n      \"marginRight\": \"auto\",\n      \"maxWidth\": \"1080px\"\n    }\n  }, \"\\n      \", mdx(\"a\", {\n    parentName: \"span\",\n    \"className\": \"gatsby-resp-image-link\",\n    \"href\": \"/static/c3638b26a1210d2c73a7ec2335c57351/302a4/gas-tx.png\",\n    \"style\": {\n      \"display\": \"block\"\n    },\n    \"target\": \"_blank\",\n    \"rel\": \"noopener\"\n  }, \"\\n    \", mdx(\"span\", {\n    parentName: \"a\",\n    \"className\": \"gatsby-resp-image-background-image\",\n    \"style\": {\n      \"paddingBottom\": \"56.333333333333336%\",\n      \"position\": \"relative\",\n      \"bottom\": \"0\",\n      \"left\": \"0\",\n      \"backgroundImage\": \"url('data:image/png;base64,iVBORw0KGgoAAAANSUhEUgAAABQAAAALCAYAAAB/Ca1DAAAACXBIWXMAAAsTAAALEwEAmpwYAAACyUlEQVQoz5WSbUhTYRSAz151u5upEKwCNXLTZWqiQRRE/bH6kUFGH0IQQRZR6nTbNa0wKRND1BCzZLSPUhTB/MLUFBWdBpofm/WjMLS0cCjOb3Nuu6f3bkn0J+jCw3tfzn2fe95zDiAA5FYi5BkRSnWr8Mq4CHrDChgMywIK/PdjLpqDqvLPqRXPPxXrtT+yjcblfIN+6egL4wbUaMcJqkPh38j/rBo5ACJCWflcQcnTb2/Lnk3XG4wrvTrD2sVK7TQktyDhNFsfh3pQy8CVsQ/wKj0bRzlBSQR3jKNi6A0A3uqGvz7ZdK8E94M3qoJFVMhQoQf67tnLGDsbySxqDogX1bHiNTZaTGMiR1oIAHfvIFlXRW7Dc8DgFWDqqPhDgoJMtnVJOZXMB9N3C5x3Yn5nKCeYHiiw5pwW8AnEvUGIaEJQtiE4VTIJZigIaHjB685gU/98dU/PTN3w8HrryIg95Ut73yV7zrEdSxWPgGPDJTRDCS+11Hd613xHMPXMXjD12dr7THMtJtNCLqZIhQ6llECNHcHSPBQx+H4JBwdsODK6hpbhFX0D/dFKSZI/p1HwMn+KHy2+7+TDmwF8dlUvrUVPShbxceEylpb/7MMFEDYpdhG4T4MfazuCzRZn7Zhls8lscXSZ31lvoS8w6/ln/DhNGF9HIaeWC6lQNJOXJLk9jtDQuH6+usI20Ky1YHflWD+WBTLjx0UEXJlRBJOlIueoCXADwTZhhe4h9Jpo7TxMJeLN7CNAr+PuNN/FVWUUJGYhdKjLAasehEyVFg5/LSlunE+ND8BrfIPVMjoaYRLUXRdgYbwXFp8i9oKzXrO6XCGXoRBQET86hMr5mSQuCrJBZCrlpBc/x5aEyz4DsF2Aaf6MIyOWAKr2ABUyzsxoD1kxDMcqGLwhcY/MX2ND2dq72L2M4+4hMccGibhMWhY2XIzKnfALPNeVtmIWABEAAAAASUVORK5CYII=')\",\n      \"backgroundSize\": \"cover\",\n      \"display\": \"block\"\n    }\n  }), \"\\n  \", mdx(\"img\", {\n    parentName: \"a\",\n    \"className\": \"gatsby-resp-image-image\",\n    \"alt\": \"Diagram showing how unused gas is refunded\",\n    \"title\": \"Diagram showing how unused gas is refunded\",\n    \"src\": \"/static/c3638b26a1210d2c73a7ec2335c57351/302a4/gas-tx.png\",\n    \"srcSet\": [\"/static/c3638b26a1210d2c73a7ec2335c57351/5a46d/gas-tx.png 300w\", \"/static/c3638b26a1210d2c73a7ec2335c57351/0a47e/gas-tx.png 600w\", \"/static/c3638b26a1210d2c73a7ec2335c57351/302a4/gas-tx.png 1080w\"],\n    \"sizes\": \"(max-width: 1080px) 100vw, 1080px\",\n    \"style\": {\n      \"width\": \"100%\",\n      \"height\": \"100%\",\n      \"margin\": \"0\",\n      \"verticalAlign\": \"middle\",\n      \"position\": \"absolute\",\n      \"top\": \"0\",\n      \"left\": \"0\"\n    },\n    \"loading\": \"lazy\",\n    \"decoding\": \"async\"\n  }), \"\\n  \"), \"\\n    \"), \"\\n\", mdx(\"em\", {\n    parentName: \"p\"\n  }, \"Diagram adapted from \", mdx(\"a\", {\n    parentName: \"em\",\n    \"href\": \"https://takenobu-hs.github.io/downloads/ethereum_evm_illustrated.pdf\"\n  }, \"Ethereum EVM illustrated\"))), mdx(\"p\", null, \"Any gas not used in a transaction is refunded to the user account.\"), mdx(\"h2\", {\n    \"id\": \"transaction-lifecycle\",\n    \"style\": {\n      \"position\": \"relative\"\n    }\n  }, mdx(\"a\", {\n    parentName: \"h2\",\n    \"href\": \"#transaction-lifecycle\",\n    \"aria-label\": \"transaction lifecycle permalink\",\n    \"className\": \"header-anchor before\"\n  }, mdx(\"svg\", {\n    parentName: \"a\",\n    \"aria-hidden\": \"true\",\n    \"focusable\": \"false\",\n    \"height\": \"16\",\n    \"version\": \"1.1\",\n    \"viewBox\": \"0 0 16 16\",\n    \"width\": \"16\"\n  }, mdx(\"path\", {\n    parentName: \"svg\",\n    \"fillRule\": \"evenodd\",\n    \"d\": \"M4 9h1v1H4c-1.5 0-3-1.69-3-3.5S2.55 3 4 3h4c1.45 0 3 1.69 3 3.5 0 1.41-.91 2.72-2 3.25V8.59c.58-.45 1-1.27 1-2.09C10 5.22 8.98 4 8 4H4c-.98 0-2 1.22-2 2.5S3 9 4 9zm9-3h-1v1h1c1 0 2 1.22 2 2.5S13.98 12 13 12H9c-.98 0-2-1.22-2-2.5 0-.83.42-1.64 1-2.09V6.25c-1.09.53-2 1.84-2 3.25C6 11.31 7.55 13 9 13h4c1.45 0 3-1.69 3-3.5S14.5 6 13 6z\"\n  }))), \"Transaction lifecycle\"), mdx(\"p\", null, \"Once the transaction has been submitted the following happens:\"), mdx(\"ol\", null, mdx(\"li\", {\n    parentName: \"ol\"\n  }, \"Once you send a transaction, cryptography generates a transaction hash:\\n\", mdx(\"inlineCode\", {\n    parentName: \"li\"\n  }, \"0x97d99bc7729211111a21b12c933c949d4f31684f1d6954ff477d0477538ff017\")), mdx(\"li\", {\n    parentName: \"ol\"\n  }, \"The transaction is then broadcast to the network and included in a pool with lots of other transactions.\"), mdx(\"li\", {\n    parentName: \"ol\"\n  }, \"A miner must pick your transaction and include it in a block in order to verify the transaction and consider it \\\"successful\\\".\", mdx(\"ul\", {\n    parentName: \"li\"\n  }, mdx(\"li\", {\n    parentName: \"ul\"\n  }, \"You may end up waiting at this stage if the network is busy and miners aren't able to keep up.\"))), mdx(\"li\", {\n    parentName: \"ol\"\n  }, \"Your transaction will receive \\\"confirmations\\\". The number of confirmations is the number of blocks created since the block that included your transaction. The higher the number, the greater the certainty that the network processed and recognized the transaction.\", mdx(\"ul\", {\n    parentName: \"li\"\n  }, mdx(\"li\", {\n    parentName: \"ul\"\n  }, \"Recent blocks may get re-organized, giving the impression the transaction was unsuccessful; however, the transaction may still be valid but included in a different block.\"), mdx(\"li\", {\n    parentName: \"ul\"\n  }, \"The probability of a re-organization diminishes with every subsequent block mined, i.e. the greater the number of confirmations, the more immutable the transaction is.\")))), mdx(\"h2\", {\n    \"id\": \"a-visual-demo\",\n    \"style\": {\n      \"position\": \"relative\"\n    }\n  }, mdx(\"a\", {\n    parentName: \"h2\",\n    \"href\": \"#a-visual-demo\",\n    \"aria-label\": \"a visual demo permalink\",\n    \"className\": \"header-anchor before\"\n  }, mdx(\"svg\", {\n    parentName: \"a\",\n    \"aria-hidden\": \"true\",\n    \"focusable\": \"false\",\n    \"height\": \"16\",\n    \"version\": \"1.1\",\n    \"viewBox\": \"0 0 16 16\",\n    \"width\": \"16\"\n  }, mdx(\"path\", {\n    parentName: \"svg\",\n    \"fillRule\": \"evenodd\",\n    \"d\": \"M4 9h1v1H4c-1.5 0-3-1.69-3-3.5S2.55 3 4 3h4c1.45 0 3 1.69 3 3.5 0 1.41-.91 2.72-2 3.25V8.59c.58-.45 1-1.27 1-2.09C10 5.22 8.98 4 8 4H4c-.98 0-2 1.22-2 2.5S3 9 4 9zm9-3h-1v1h1c1 0 2 1.22 2 2.5S13.98 12 13 12H9c-.98 0-2-1.22-2-2.5 0-.83.42-1.64 1-2.09V6.25c-1.09.53-2 1.84-2 3.25C6 11.31 7.55 13 9 13h4c1.45 0 3-1.69 3-3.5S14.5 6 13 6z\"\n  }))), \"A visual demo\"), mdx(\"p\", null, \"Watch Austin walk you through transactions, gas, and mining.\"), mdx(\"iframe\", {\n    width: \"100%\",\n    height: \"315\",\n    src: \"https://www.youtube.com/embed/er-0ihqFQB0\",\n    frameBorder: \"0\",\n    allow: \"accelerometer; autoplay; clipboard-write; encrypted-media; gyroscope; picture-in-picture\",\n    allowFullScreen: true\n  }), mdx(\"h2\", {\n    \"id\": \"typed-transaction-envelope\",\n    \"style\": {\n      \"position\": \"relative\"\n    }\n  }, mdx(\"a\", {\n    parentName: \"h2\",\n    \"href\": \"#typed-transaction-envelope\",\n    \"aria-label\": \"typed transaction envelope permalink\",\n    \"className\": \"header-anchor before\"\n  }, mdx(\"svg\", {\n    parentName: \"a\",\n    \"aria-hidden\": \"true\",\n    \"focusable\": \"false\",\n    \"height\": \"16\",\n    \"version\": \"1.1\",\n    \"viewBox\": \"0 0 16 16\",\n    \"width\": \"16\"\n  }, mdx(\"path\", {\n    parentName: \"svg\",\n    \"fillRule\": \"evenodd\",\n    \"d\": \"M4 9h1v1H4c-1.5 0-3-1.69-3-3.5S2.55 3 4 3h4c1.45 0 3 1.69 3 3.5 0 1.41-.91 2.72-2 3.25V8.59c.58-.45 1-1.27 1-2.09C10 5.22 8.98 4 8 4H4c-.98 0-2 1.22-2 2.5S3 9 4 9zm9-3h-1v1h1c1 0 2 1.22 2 2.5S13.98 12 13 12H9c-.98 0-2-1.22-2-2.5 0-.83.42-1.64 1-2.09V6.25c-1.09.53-2 1.84-2 3.25C6 11.31 7.55 13 9 13h4c1.45 0 3-1.69 3-3.5S14.5 6 13 6z\"\n  }))), \"Typed Transaction Envelope\"), mdx(\"p\", null, \"Ethereum originally had one format for transactions. Each transaction contained a nonce, gas price, gas limit, to address, value, data, v, r, and s. These fields are RLP-encoded, to look something like this:\"), mdx(\"p\", null, mdx(\"inlineCode\", {\n    parentName: \"p\"\n  }, \"RLP([nonce, gasPrice, gasLimit, to, value, data, v, r, s])\")), mdx(\"p\", null, \"Ethereum has evolved to support multiple types of transactions to allow for new features such as access lists and \", mdx(\"a\", {\n    parentName: \"p\",\n    \"href\": \"https://github.com/ethereum/EIPs/blob/master/EIPS/eip-1559.md\"\n  }, \"EIP-1559\"), \" to be implemented without affecting legacy transaction formats.\"), mdx(\"p\", null, mdx(\"a\", {\n    parentName: \"p\",\n    \"href\": \"https://eips.ethereum.org/EIPS/eip-2718\"\n  }, \"EIP-2718: Typed Transaction Envelope\"), \" defines a transaction type that is an envelope for future transaction types.\"), mdx(\"p\", null, \"EIP-2718 is a new generalised envelope for typed transactions. In the new standard, transactions are interpreted as:\"), mdx(\"p\", null, mdx(\"inlineCode\", {\n    parentName: \"p\"\n  }, \"TransactionType || TransactionPayload\")), mdx(\"p\", null, \"Where the fields are defined as:\"), mdx(\"ul\", null, mdx(\"li\", {\n    parentName: \"ul\"\n  }, mdx(\"inlineCode\", {\n    parentName: \"li\"\n  }, \"TransactionType\"), \" - a number between 0 and 0x7f, for a total of 128 possible transaction types.\"), mdx(\"li\", {\n    parentName: \"ul\"\n  }, mdx(\"inlineCode\", {\n    parentName: \"li\"\n  }, \"TransactionPayload\"), \" - an arbitrary byte array defined by the transaction type.\")), mdx(\"h2\", {\n    \"id\": \"further-reading\",\n    \"style\": {\n      \"position\": \"relative\"\n    }\n  }, mdx(\"a\", {\n    parentName: \"h2\",\n    \"href\": \"#further-reading\",\n    \"aria-label\": \"further reading permalink\",\n    \"className\": \"header-anchor before\"\n  }, mdx(\"svg\", {\n    parentName: \"a\",\n    \"aria-hidden\": \"true\",\n    \"focusable\": \"false\",\n    \"height\": \"16\",\n    \"version\": \"1.1\",\n    \"viewBox\": \"0 0 16 16\",\n    \"width\": \"16\"\n  }, mdx(\"path\", {\n    parentName: \"svg\",\n    \"fillRule\": \"evenodd\",\n    \"d\": \"M4 9h1v1H4c-1.5 0-3-1.69-3-3.5S2.55 3 4 3h4c1.45 0 3 1.69 3 3.5 0 1.41-.91 2.72-2 3.25V8.59c.58-.45 1-1.27 1-2.09C10 5.22 8.98 4 8 4H4c-.98 0-2 1.22-2 2.5S3 9 4 9zm9-3h-1v1h1c1 0 2 1.22 2 2.5S13.98 12 13 12H9c-.98 0-2-1.22-2-2.5 0-.83.42-1.64 1-2.09V6.25c-1.09.53-2 1.84-2 3.25C6 11.31 7.55 13 9 13h4c1.45 0 3-1.69 3-3.5S14.5 6 13 6z\"\n  }))), \"Further reading\"), mdx(\"ul\", null, mdx(\"li\", {\n    parentName: \"ul\"\n  }, mdx(\"a\", {\n    parentName: \"li\",\n    \"href\": \"https://eips.ethereum.org/EIPS/eip-2718\"\n  }, \"EIP-2718: Typed Transaction Envelope\"))), mdx(\"p\", null, mdx(\"em\", {\n    parentName: \"p\"\n  }, \"Know of a community resource that helped you? Edit this page and add it!\")), mdx(\"h2\", {\n    \"id\": \"related-topics\",\n    \"style\": {\n      \"position\": \"relative\"\n    }\n  }, mdx(\"a\", {\n    parentName: \"h2\",\n    \"href\": \"#related-topics\",\n    \"aria-label\": \"related topics permalink\",\n    \"className\": \"header-anchor before\"\n  }, mdx(\"svg\", {\n    parentName: \"a\",\n    \"aria-hidden\": \"true\",\n    \"focusable\": \"false\",\n    \"height\": \"16\",\n    \"version\": \"1.1\",\n    \"viewBox\": \"0 0 16 16\",\n    \"width\": \"16\"\n  }, mdx(\"path\", {\n    parentName: \"svg\",\n    \"fillRule\": \"evenodd\",\n    \"d\": \"M4 9h1v1H4c-1.5 0-3-1.69-3-3.5S2.55 3 4 3h4c1.45 0 3 1.69 3 3.5 0 1.41-.91 2.72-2 3.25V8.59c.58-.45 1-1.27 1-2.09C10 5.22 8.98 4 8 4H4c-.98 0-2 1.22-2 2.5S3 9 4 9zm9-3h-1v1h1c1 0 2 1.22 2 2.5S13.98 12 13 12H9c-.98 0-2-1.22-2-2.5 0-.83.42-1.64 1-2.09V6.25c-1.09.53-2 1.84-2 3.25C6 11.31 7.55 13 9 13h4c1.45 0 3-1.69 3-3.5S14.5 6 13 6z\"\n  }))), \"Related topics\"), mdx(\"ul\", null, mdx(\"li\", {\n    parentName: \"ul\"\n  }, mdx(\"a\", {\n    parentName: \"li\",\n    \"href\": \"/developers/docs/accounts/\"\n  }, \"Accounts\")), mdx(\"li\", {\n    parentName: \"ul\"\n  }, mdx(\"a\", {\n    parentName: \"li\",\n    \"href\": \"/developers/docs/evm/\"\n  }, \"Ethereum virtual machine (EVM)\")), mdx(\"li\", {\n    parentName: \"ul\"\n  }, mdx(\"a\", {\n    parentName: \"li\",\n    \"href\": \"/developers/docs/gas/\"\n  }, \"Gas\")), mdx(\"li\", {\n    parentName: \"ul\"\n  }, mdx(\"a\", {\n    parentName: \"li\",\n    \"href\": \"/developers/docs/consensus-mechanisms/pow/mining/\"\n  }, \"Mining\"))));\n}\n;\nMDXContent.isMDXComponent = true;","tableOfContents":{"items":[{"url":"#prerequisites-prerequisites","title":"Prerequisites {#prerequisites}"},{"url":"#whats-a-transaction-whats-a-transaction","title":"What's a transaction? {#whats-a-transaction}"},{"url":"#types-of-transactions-types-of-transactions","title":"Types of transactions {#types-of-transactions}","items":[{"url":"#on-gas-on-gas","title":"On gas {#on-gas}"}]},{"url":"#transaction-lifecycle-transaction-lifecycle","title":"Transaction lifecycle {#transaction-lifecycle}"},{"url":"#a-visual-demo-a-visual-demo","title":"A visual demo {#a-visual-demo}"},{"url":"#typed-transaction-envelope-typed-transaction-envelope","title":"Typed Transaction Envelope {#typed-transaction-envelope}"},{"url":"#further-reading-further-reading","title":"Further reading {#further-reading}"},{"url":"#related-topics-related-topics","title":"Related topics {#related-topics}"}]}}},"pageContext":{"slug":"/vi/developers/docs/transactions/","ignoreTranslationBanner":false,"isOutdated":false,"isContentEnglish":true,"relativePath":"src/content/developers/docs/transactions/index.md","intl":{"language":"vi","defaultLanguage":"en","languages":["en","ar","bg","bn","ca","cs","de","el","es","fa","fi","fr","hi","hr","hu","id","ig","it","ja","ko","lt","ml","nl","nb","pl","pt","pt-br","ro","ru","se","sk","sl","tr","uk","vi","zh","zh-tw"],"messages":{"page-developer-meta-title":"Tài nguyên dành cho nhà phát triển Ethereum","page-developers-about":"Giới thiệu về các tài nguyên dành cho nhà phát triển này","page-developers-about-desc":"ethereum.org là nơi giúp bạn xây dựng cùng Ethereum bằng tài liệu tham khảo về các khái niệm nền tảng cũng như ngăn xếp phát triển. Ngoài ra còn có các hướng dẫn để bắt đầu triển khai và đi vào hoạt động.","page-developers-about-desc-2":"Lấy cảm hứng từ Mạng lưới Nhà phát triển của Mozilla, chúng tôi nghĩ rằng Ethereum cần một nơi để lưu giữ nội dung và tài nguyên dành cho nhà phát triển. Giống như các bạn chúng tôi tại Mozilla, mọi thứ ở đây đều là nguồn mở và sẵn sàng để bạn phát triển và cải thiện.","page-developers-account-desc":"Hợp đồng hoặc những người trên mạng lưới này","page-developers-accounts-link":"Tài khoản","page-developers-advanced":"Nâng cao","page-developers-api-desc":"Sử dụng các thư viện để tương tác với các hợp đồng thông minh","page-developers-api-link":"API đầu cuối","page-developers-aria-label":"Menu của nhà phát triển","page-developers-block-desc":"Hàng loạt giao dịch được bổ sung vào chuỗi khối","page-developers-block-explorers-desc":"Cổng thông tin vào dữ liệu Ethereum của bạn","page-developers-block-explorers-link":"Trình duyệt khối","page-developers-blocks-link":"Khối","page-developers-browse-tutorials":"Duyệt tìm hướng dẫn","page-developers-choose-stack":"Chọn ngăn xếp","page-developers-contribute":"Đóng góp","page-developers-dev-env-desc":"IDE phù hợp cho việc phát triển ứng dụng phi tập trung","page-developers-dev-env-link":"Môi trường phát triển","page-developers-discord":"Tham gia Discord","page-developers-docs-introductions":"Giới thiệu","page-developers-evm-desc":"Máy tính xử lý các giao dịch","page-developers-evm-link":"Máy ảo Ethereum (EVM)","page-developers-explore-documentation":"Khám phá tài liệu tham khảo","page-developers-feedback":"Nếu bạn có bất kỳ ý kiến gì, hãy liên hệ với chúng tôi qua vấn đề GitHub hoặc máy tính Discord của chúng tôi.","page-developers-frameworks-desc":"Các công cụ giúp tăng tốc phát triển","page-developers-frameworks-link":"Khuôn khổ phát triển","page-developers-fundamentals":"Nguyên tắc cơ bản","page-developers-gas-desc":"Cần Ether để cho phép giao dịch","page-developers-gas-link":"Gas","page-developers-get-started":"Bạn muốn bắt đầu như thế nào?","page-developers-improve-ethereum":"Giúp chúng tôi hoàn thiện thêm ethereum.org","page-developers-improve-ethereum-desc":"Cũng giống như ethereum.org, các tài liệu này là nỗ lực của cả cộng đồng. Hãy tạo một PR nếu bạn thấy lỗi, các điểm có thể cải tiến, hoặc các cơ hội mới để giúp các nhà phát triển Ethereum.","page-developers-into-eth-desc":"Giới thiệu về chuỗi khối và Ethereum","page-developers-intro-dapps-desc":"Giới thiệu về ứng dụng phi tập trung","page-developers-intro-dapps-link":"Giới thiệu về ứng dụng phi tập trung","page-developers-intro-eth-link":"Giới thiệu về Ethereum","page-developers-intro-stack":"Giới thiệu về ngăn xếp","page-developers-intro-stack-desc":"Giới thiệu về ngăn xếp Ethereum","page-developers-js-libraries-desc":"Sử dụng javascript để tương tác với các hợp đồng thông minh","page-developers-js-libraries-link":"Thư viện javascript","page-developers-language-desc":"Sử dụng Ethereum với các ngôn ngữ quen thuộc","page-developers-languages":"Ngôn ngữ lập trình","page-developers-learn":"Học cách phát triển Ethereum","page-developers-learn-desc":"Tìm hiểu các khái niệm chính và ngăn xếp Ethereum bằng các tài liệu của chúng tôi","page-developers-learn-tutorials":"Học thông qua các hướng dẫn","page-developers-learn-tutorials-cta":"Xem hướng dẫn","page-developers-learn-tutorials-desc":"Học cách phát triển Ethereum từng bước từ các nhà phát triển đã từng làm điều đó.","page-developers-meta-desc":"Tài liệu tham khảo, hướng dẫn và công cụ để các nhà phát triển xây dựng trên Ethereum.","page-developers-mining-desc":"Cách các khối mới được tạo và đạt đến sự đồng thuận","page-developers-mining-link":"Khai thác","page-developers-networks-desc":"Tổng quan về mạng chính và các mạng kiểm thử","page-developers-networks-link":"Mạng","page-developers-node-clients-desc":"Cách các khối và giao dịch được xác minh trong mạng","page-developers-node-clients-link":" Nút và ứng dụng","page-developers-oracle-desc":"Đưa dữ liệu ngoài chuỗi vào các hợp đồng thông minh","page-developers-oracles-link":"Oracles","page-developers-play-code":"Sử dụng mã","page-developers-read-docs":"Đọc tài liệu","page-developers-scaling-desc":"Các giải pháp để giao dịch nhanh hơn","page-developers-scaling-link":"Thay đổi quy mô","page-developers-smart-contract-security-desc":"Các biện pháp bảo mật cần xem xét trong quá trình phát triển","page-developers-smart-contract-security-link":"Bảo mật","page-developers-set-up":"Thiết lập môi trường cục bộ","page-developers-setup-desc":"Chuẩn bị ngăn xếp sẵn sàng để xây dựng bằng cách định cấu hình môi trường phát triển.","page-developers-smart-contracts-desc":"Lôgic đằng sau các ứng dụng phi tập trung - thỏa thuận tự thực thi","page-developers-smart-contracts-link":"Hợp đồng thông minh","page-developers-stack":"Ngăn xếp","page-developers-start":"Bắt đầu thử nghiệm","page-developers-start-desc":"Bạn muốn thử nghiệm trước, đặt câu hỏi sau?","page-developers-storage-desc":"Cách xử lý việc lưu trữ ứng dụng phi tập trung","page-developers-storage-link":"Lưu trữ","page-developers-subtitle":"Hướng dành cho nhà phát triển về Ethereum. Bởi nhà phát triển, dành cho nhà phát triển.","page-developers-title-1":"Ethereum","page-developers-title-2":"nhà phát triển","page-developers-title-3":"tài nguyên","page-developers-token-standards-desc":"Tổng quan về các tiêu chuẩn mã thông báo được chấp nhận","page-developers-token-standards-link":"Tiêu chuẩn mã thông báo","page-developers-transactions-desc":"Cách Ethereum tuyên bố thay đổi","page-developers-transactions-link":"Giao dịch","page-developers-web3-desc":"Sự khác biệt của thế giới phát triển web3","page-developers-web3-link":"Web2 vs Web3","page-index-hero-image-alt":"hình ảnh anh hùng ethereum.org","page-index-meta-description":"Ethereum là một nền tảng toàn cầu, phi tập trung dành cho các ứng dụng về tài chính và các loại ứng dụng mới. Trên Ethereum, bạn có thể viết mã kiểm soát tài chính và xây dựng các ứng dụng có thể truy cập được từ bất cứ đâu trên thế giới.","page-index-meta-title":"Trang chủ","page-index-sections-developers-desc":"Tìm hiểu thêm về công nghệ đằng sau Ethereum và các ứng dụng của nền tảng này để bạn có thể bắt đầu xây dựng cùng nó.","page-index-sections-developers-image-alt":"Minh họa việc xây dựng thủ công một nét khắc Ethereum được làm từ các khối lego","page-index-sections-developers-link-text":"Bắt đầu xây dựng","page-index-sections-developers-title":"Nhà phát triển","page-index-sections-enterprise-desc":"Xem cách Ethereum có thể mở ra các mô hình kinh doanh mới, giảm chi phí và chuẩn bị doanh nghiệp sẵn sàng cho tương lai.","page-index-sections-enterprise-image-alt":"Minh họa một nhóm đang thực hiện một dự án Ethereum quanh một máy tính để bàn","page-index-sections-enterprise-link-text":"Ethereum cho Doanh nghiệp","page-index-sections-enterprise-title":"Doanh nghiệp","page-index-sections-individuals-desc":"Làm quen với Ethereum, Ether, ví, mã thông báo, v. v. để bạn có thể bắt đầu sử dụng các ứng dụng Ethereum.","page-index-sections-individuals-image-alt":"Minh họa một chú chó doge ngồi cạnh máy tính","page-index-sections-individuals-link-text":"Bắt đầu với Ethereum","page-index-sections-individuals-title":"Giới thiệu về Ethereum","page-index-subtitle":"Trên Ethereum, bạn có thể viết mã kiểm soát giá trị kỹ thuật số, chạy chính xác như được lập trình và có thể truy cập ở mọi nơi trên thế giới.","page-index-title":"Ethereum là một nền tảng, nguồn mở toàn cầu cho các ứng dụng phi tập trung.","about-ethereum-org":"Giới thiệu về ethereum.org","about-us":"Về chúng tôi","brand-assets":"Tài sản thương hiệu","community":"Cộng đồng","contact":"Liên hệ","contributing":"Đóng góp","cookie-policy":"Chính sách về Cookie","decentralized-applications-dapps":"Ứng dụng phi tập trung (dapps)","developers":"Nhà phát triển","developers-home":"Trang chủ dành cho nhà phát triển","documentation":"Tài liệu tham khảo","ef-blog":"Blog về Nền tảng Ethereum","eips":"Đề xuất Cải tiến Ethereum","enterprise":"Doanh nghiệp","ethereum":"Ethereum","ethereum-2-0":"Ethereum 2.0","ethereum-brand-assets":"Tài sản Thương hiệu Ethereum","ethereum-community":"Cộng đồng Ethereum","ethereum-glossary":"Thuật ngữ về Ethereum","ethereum-wallets":"Ví Ethereum","ethereum-whitepaper":"Sách trắng Ethereum","get-eth":"Tải ETH","get-started":"Bắt đầu","guides-and-resources":"Hướng dẫn và tài nguyên","how-ethereum-works":"Cách Ethereum hoạt động","individuals":"Cá nhân","individuals-menu":"Menu của cá nhân","language-support":"Hỗ trợ ngôn ngữ","languages":"Ngôn ngữ","learn":"Tìm hiểu","learn-by-coding":"Học lập trình","learn-more":"Tìm hiểu thêm","mainnet-ethereum":"Ethereum Mạng chính","nav-beginners":"Người mới bắt đầu","page-404-copy":"Vui lòng sử dụng hộp tìm kiếm ở trên để tìm những gì bạn cần tìm hoặc trở về trang chủ.","page-404-not-found":"Không tìm thấy","page-enterprise":"Doanh nghiệp","page-index":"Ethereum","page-index-section-beginners-item-one":"Bạn chưa từng dùng Etherereum?","page-index-section-beginners-item-three":"Tại sao tôi phải quan tâm?","page-index-section-beginners-item-two":"Ethereum là gì?","page-index-section-beginners-title":"Người mới bắt đầu","page-index-section-developers-item-one":"Hướng dẫn bắt đầu","page-index-section-developers-item-three":"Các công cụ mới nhất cho nhà phát triển","page-index-section-developers-item-two":"Tìm hiểu về hợp đồng thông minh","page-index-section-developers-title":"Dành cho nhà phát triển","page-index-section-enterprise-item-one":"Vì sao nên sử dụng Enterprise Ethereum?","page-index-section-enterprise-item-three":"Cộng đồng nhà phát triển doanh nghiệp","page-index-section-enterprise-item-two":"Tính năng doanh nghiệp","page-index-section-enterprise-title":"Dành cho Doanh nghiệp","page-index-section-individuals-item-one":"Ethereum là gì?","page-index-section-individuals-item-three":"Hướng dẫn và tài nguyên","page-index-section-individuals-item-two":"Sử dụng Ethereum","page-index-section-individuals-title":"Dành cho cá nhân","page-index-section-learn-item-one":"Tài nguyên cho người mới bắt đầu","page-index-section-learn-item-three":"ETH 2.0","page-index-section-use-item-one":"Hôm nay tôi có thể làm gì với Ethereum?","page-index-section-use-item-three":"Ví là gì?","page-index-section-use-item-two":"Làm thế nào để có được ether?","page-index-section-use-title":"Sử dụng","page-last-updated":"Trang cập nhật mới nhất","page-learning-tools-consensys-academy-description":"Trại huấn luyện dành cho nhà phát triển Ethereum trực tuyến","page-learning-tools-cryptozombies-description":"Tìm hiểu Solidity xây dựng trò chơi Zombie của riêng bạn","page-learning-tools-ethernauts-description":"Hoàn thành các cấp độ bằng cách bẻ khóa các hợp đồng thông minh","privacy-policy":"Chính sách quyền riêng tư","private-ethereum":"Ethereum riêng","search":"Tìm kiếm","set-up-local-env":"Thiết lập môi trường cục bộ","stablecoins":"Stablecoin","terms-of-use":"Điều khoản Sử dụng","translation-banner-body-new":"Bạn đang xem trang này bằng tiếng Anh vì chúng tôi chưa dịch trang này. Giúp chúng tôi dịch nội dung này.","translation-banner-body-update":"Có phiên bản mới của trang này nhưng hiện chỉ có bằng tiếng Anh. Giúp chúng tôi dịch phiên bản mới nhất.","translation-banner-button-join-translation-program":"Tham gia chương trình dịch","translation-banner-button-learn-more":"Tìm hiểu thêm","translation-banner-button-see-english":"Xem tiếng Anh","translation-banner-button-translate-page":"Dịch trang","translation-banner-title-new":"Giúp dịch trang này","translation-banner-title-update":"Giúp cập nhật trang này","tutorials":"Hướng dẫn","use":"Sử dụng","use-ethereum":"Sử dụng Ethereum","website-last-updated":"Trang cập nhật mới nhất","what-is-ether":"Ether (ETH) là gì?","what-is-ethereum":"Ethereum là gì?"},"routed":true,"originalPath":"/developers/docs/transactions/","redirect":false}}},
    "staticQueryHashes": ["1011117294","3003422828","4096231394"]}