{
    "componentChunkName": "component---src-templates-docs-js",
    "path": "/ko/developers/docs/transactions/",
    "result": {"data":{"siteData":{"siteMetadata":{"editContentUrl":"https://github.com/ethereum/ethereum-org-website/tree/dev/"}},"pageData":{"fields":{"slug":"/en/developers/docs/transactions/"},"frontmatter":{"title":"Transactions","description":"An overview of Ethereum transactions – how they work, their data structure, and how to send them via an application.","lang":"en","incomplete":null,"sidebar":true,"sidebarDepth":null,"isOutdated":null},"body":"var _excluded = [\"components\"];\n\nfunction _extends() { _extends = Object.assign || function (target) { for (var i = 1; i < arguments.length; i++) { var source = arguments[i]; for (var key in source) { if (Object.prototype.hasOwnProperty.call(source, key)) { target[key] = source[key]; } } } return target; }; return _extends.apply(this, arguments); }\n\nfunction _objectWithoutProperties(source, excluded) { if (source == null) return {}; var target = _objectWithoutPropertiesLoose(source, excluded); var key, i; if (Object.getOwnPropertySymbols) { var sourceSymbolKeys = Object.getOwnPropertySymbols(source); for (i = 0; i < sourceSymbolKeys.length; i++) { key = sourceSymbolKeys[i]; if (excluded.indexOf(key) >= 0) continue; if (!Object.prototype.propertyIsEnumerable.call(source, key)) continue; target[key] = source[key]; } } return target; }\n\nfunction _objectWithoutPropertiesLoose(source, excluded) { if (source == null) return {}; var target = {}; var sourceKeys = Object.keys(source); var key, i; for (i = 0; i < sourceKeys.length; i++) { key = sourceKeys[i]; if (excluded.indexOf(key) >= 0) continue; target[key] = source[key]; } return target; }\n\n/* @jsxRuntime classic */\n\n/* @jsx mdx */\nvar _frontmatter = {\n  \"title\": \"Transactions\",\n  \"description\": \"An overview of Ethereum transactions – how they work, their data structure, and how to send them via an application.\",\n  \"lang\": \"en\",\n  \"sidebar\": true\n};\nvar layoutProps = {\n  _frontmatter: _frontmatter\n};\nvar MDXLayout = \"wrapper\";\nreturn function MDXContent(_ref) {\n  var components = _ref.components,\n      props = _objectWithoutProperties(_ref, _excluded);\n\n  return mdx(MDXLayout, _extends({}, layoutProps, props, {\n    components: components,\n    mdxType: \"MDXLayout\"\n  }), mdx(\"p\", null, \"Transactions are cryptographically signed instructions from accounts. An account will initiate a transaction to update the state of the Ethereum network. The simplest transaction is transferring ETH from one account to another.\"), mdx(\"h2\", {\n    \"id\": \"prerequisites\",\n    \"style\": {\n      \"position\": \"relative\"\n    }\n  }, mdx(\"a\", {\n    parentName: \"h2\",\n    \"href\": \"#prerequisites\",\n    \"aria-label\": \"prerequisites permalink\",\n    \"className\": \"header-anchor before\"\n  }, mdx(\"svg\", {\n    parentName: \"a\",\n    \"aria-hidden\": \"true\",\n    \"focusable\": \"false\",\n    \"height\": \"16\",\n    \"version\": \"1.1\",\n    \"viewBox\": \"0 0 16 16\",\n    \"width\": \"16\"\n  }, mdx(\"path\", {\n    parentName: \"svg\",\n    \"fillRule\": \"evenodd\",\n    \"d\": \"M4 9h1v1H4c-1.5 0-3-1.69-3-3.5S2.55 3 4 3h4c1.45 0 3 1.69 3 3.5 0 1.41-.91 2.72-2 3.25V8.59c.58-.45 1-1.27 1-2.09C10 5.22 8.98 4 8 4H4c-.98 0-2 1.22-2 2.5S3 9 4 9zm9-3h-1v1h1c1 0 2 1.22 2 2.5S13.98 12 13 12H9c-.98 0-2-1.22-2-2.5 0-.83.42-1.64 1-2.09V6.25c-1.09.53-2 1.84-2 3.25C6 11.31 7.55 13 9 13h4c1.45 0 3-1.69 3-3.5S14.5 6 13 6z\"\n  }))), \"Prerequisites\"), mdx(\"p\", null, \"To help you better understand this page, we recommend you first read \", mdx(\"a\", {\n    parentName: \"p\",\n    \"href\": \"/developers/docs/accounts/\"\n  }, \"Accounts\"), \" and our \", mdx(\"a\", {\n    parentName: \"p\",\n    \"href\": \"/developers/docs/intro-to-ethereum/\"\n  }, \"introduction to Ethereum\"), \".\"), mdx(\"h2\", {\n    \"id\": \"whats-a-transaction\",\n    \"style\": {\n      \"position\": \"relative\"\n    }\n  }, mdx(\"a\", {\n    parentName: \"h2\",\n    \"href\": \"#whats-a-transaction\",\n    \"aria-label\": \"whats a transaction permalink\",\n    \"className\": \"header-anchor before\"\n  }, mdx(\"svg\", {\n    parentName: \"a\",\n    \"aria-hidden\": \"true\",\n    \"focusable\": \"false\",\n    \"height\": \"16\",\n    \"version\": \"1.1\",\n    \"viewBox\": \"0 0 16 16\",\n    \"width\": \"16\"\n  }, mdx(\"path\", {\n    parentName: \"svg\",\n    \"fillRule\": \"evenodd\",\n    \"d\": \"M4 9h1v1H4c-1.5 0-3-1.69-3-3.5S2.55 3 4 3h4c1.45 0 3 1.69 3 3.5 0 1.41-.91 2.72-2 3.25V8.59c.58-.45 1-1.27 1-2.09C10 5.22 8.98 4 8 4H4c-.98 0-2 1.22-2 2.5S3 9 4 9zm9-3h-1v1h1c1 0 2 1.22 2 2.5S13.98 12 13 12H9c-.98 0-2-1.22-2-2.5 0-.83.42-1.64 1-2.09V6.25c-1.09.53-2 1.84-2 3.25C6 11.31 7.55 13 9 13h4c1.45 0 3-1.69 3-3.5S14.5 6 13 6z\"\n  }))), \"What's a transaction?\"), mdx(\"p\", null, \"An Ethereum transaction refers to an action initiated by an externally-owned account, in other words an account managed by a human, not a contract. For example, if Bob sends Alice 1 ETH, Bob's account must be debited and Alice's must be credited. This state-changing action takes place within a transaction.\"), mdx(\"p\", null, mdx(\"span\", {\n    parentName: \"p\",\n    \"className\": \"gatsby-resp-image-wrapper\",\n    \"style\": {\n      \"position\": \"relative\",\n      \"display\": \"block\",\n      \"marginLeft\": \"auto\",\n      \"marginRight\": \"auto\",\n      \"maxWidth\": \"1080px\"\n    }\n  }, \"\\n      \", mdx(\"a\", {\n    parentName: \"span\",\n    \"className\": \"gatsby-resp-image-link\",\n    \"href\": \"/static/570dedb843948d6bef5e21a6769d5c35/302a4/tx.png\",\n    \"style\": {\n      \"display\": \"block\"\n    },\n    \"target\": \"_blank\",\n    \"rel\": \"noopener\"\n  }, \"\\n    \", mdx(\"span\", {\n    parentName: \"a\",\n    \"className\": \"gatsby-resp-image-background-image\",\n    \"style\": {\n      \"paddingBottom\": \"56.333333333333336%\",\n      \"position\": \"relative\",\n      \"bottom\": \"0\",\n      \"left\": \"0\",\n      \"backgroundImage\": \"url('data:image/png;base64,iVBORw0KGgoAAAANSUhEUgAAABQAAAALCAYAAAB/Ca1DAAAACXBIWXMAAAsTAAALEwEAmpwYAAACN0lEQVQoz22Sv2sTYRjHvzFSs1SxOhVKSdpiyOQogv+Ag7g7OdhBSgeHRpxsldKhWJPmencmlx93lw7VEHRVl4gONYNTERo1DTQ1mMTcj5RSpa/Pc8SaFA8+vMfz/T7f5733XmxsLGJuroVotNlbW7Q2vbUf1vr5n39mpgaEQjswDNu/vu6czucHSSYtpNIuNKIgf/LeuXbSx72cMTGxA0xN1TkQVCTcHg7MvIPUszbePH0JMQ2I28DblSLVOp72z+vyAC+DszA5uYtMxp7O5eylXM5ZIB4Rj7NZ+6Eqty8W4h8hblHgDaAQ3wTXWGNPz8s9S5zhBY6NVaDr9hZNELpueRgGYwspeRiGEOhGr1xwo1fP87uU+h1m7S+63umt9tbo6GfQM0vb7ZY07btIJCr7yWT9IJXaOzRMx9aUxiURhJ/Cztn3r50V13GmGHt/2TC7lixXf0nSlwNFqe1nsy0KdEuABgwPf6AdOmWelMu1hWk6BE93REpthx88Fygt66feLev+u68Esko9QtoRh2QyzWM/7bA8Pl7ln7IHOpMihTaIryR8I2p0ptuKaocMuYrZgvDdeyF8ebkCWe0GWaPQmmG47OWeBmcEg3RtRkZeQ5KsoUSiFYjHfwTW1joBSerQagViKy3fHU2gPL+AzflF3DTpDJ/s+lhjbyzWIO/PXo81FA5vA5FIDbJsQVUtKMogsVgHq6uDcO2kj3s5g7PAlzGdtvmzB6BrcDyoH66xdtLPGZz1Bxq766aA8czeAAAAAElFTkSuQmCC')\",\n      \"backgroundSize\": \"cover\",\n      \"display\": \"block\"\n    }\n  }), \"\\n  \", mdx(\"img\", {\n    parentName: \"a\",\n    \"className\": \"gatsby-resp-image-image\",\n    \"alt\": \"Diagram showing a transaction cause state change\",\n    \"title\": \"Diagram showing a transaction cause state change\",\n    \"src\": \"/static/570dedb843948d6bef5e21a6769d5c35/302a4/tx.png\",\n    \"srcSet\": [\"/static/570dedb843948d6bef5e21a6769d5c35/5a46d/tx.png 300w\", \"/static/570dedb843948d6bef5e21a6769d5c35/0a47e/tx.png 600w\", \"/static/570dedb843948d6bef5e21a6769d5c35/302a4/tx.png 1080w\"],\n    \"sizes\": \"(max-width: 1080px) 100vw, 1080px\",\n    \"style\": {\n      \"width\": \"100%\",\n      \"height\": \"100%\",\n      \"margin\": \"0\",\n      \"verticalAlign\": \"middle\",\n      \"position\": \"absolute\",\n      \"top\": \"0\",\n      \"left\": \"0\"\n    },\n    \"loading\": \"lazy\",\n    \"decoding\": \"async\"\n  }), \"\\n  \"), \"\\n    \"), \"\\n\", mdx(\"em\", {\n    parentName: \"p\"\n  }, \"Diagram adapted from \", mdx(\"a\", {\n    parentName: \"em\",\n    \"href\": \"https://takenobu-hs.github.io/downloads/ethereum_evm_illustrated.pdf\"\n  }, \"Ethereum EVM illustrated\"))), mdx(\"p\", null, \"Transactions, which change the state of the EVM, need to be broadcast to the whole network. Any node can broadcast a request for a transaction to be executed on the EVM; after this happens, a miner will execute the transaction and propagate the resulting state change to the rest of the network.\"), mdx(\"p\", null, \"Transactions require a fee and must be mined to become valid. To make this overview simpler we'll cover gas fees and mining elsewhere.\"), mdx(\"p\", null, \"A submitted transaction includes the following information:\"), mdx(\"ul\", null, mdx(\"li\", {\n    parentName: \"ul\"\n  }, mdx(\"inlineCode\", {\n    parentName: \"li\"\n  }, \"recipient\"), \" \\u2013 the receiving address (if an externally-owned account, the transaction will transfer value. If a contract account, the transaction will execute the contract code)\"), mdx(\"li\", {\n    parentName: \"ul\"\n  }, mdx(\"inlineCode\", {\n    parentName: \"li\"\n  }, \"signature\"), \" \\u2013 the identifier of the sender. This is generated when the sender's private key signs the transaction and confirms the sender has authorized this transaction\"), mdx(\"li\", {\n    parentName: \"ul\"\n  }, mdx(\"inlineCode\", {\n    parentName: \"li\"\n  }, \"value\"), \" \\u2013 amount of ETH to transfer from sender to recipient (in WEI, a denomination of ETH)\"), mdx(\"li\", {\n    parentName: \"ul\"\n  }, mdx(\"inlineCode\", {\n    parentName: \"li\"\n  }, \"data\"), \" \\u2013 optional field to include arbitrary data\"), mdx(\"li\", {\n    parentName: \"ul\"\n  }, mdx(\"inlineCode\", {\n    parentName: \"li\"\n  }, \"gasLimit\"), \" \\u2013 the maximum amount of gas units that can be consumed by the transaction. Units of gas represent computational steps\"), mdx(\"li\", {\n    parentName: \"ul\"\n  }, mdx(\"inlineCode\", {\n    parentName: \"li\"\n  }, \"maxPriorityFeePerGas\"), \" - the maximum amount of gas to be included as a tip to the miner\"), mdx(\"li\", {\n    parentName: \"ul\"\n  }, mdx(\"inlineCode\", {\n    parentName: \"li\"\n  }, \"maxFeePerGas\"), \" - the maximum amount of gas willing to be paid for the transaction (inclusive of \", mdx(\"inlineCode\", {\n    parentName: \"li\"\n  }, \"baseFeePerGas\"), \" and \", mdx(\"inlineCode\", {\n    parentName: \"li\"\n  }, \"maxPriorityFeePerGas\"), \")\")), mdx(\"p\", null, \"Gas is a reference to the computation required to process the transaction by a miner. Users have to pay a fee for this computation. The \", mdx(\"inlineCode\", {\n    parentName: \"p\"\n  }, \"gasLimit\"), \", and \", mdx(\"inlineCode\", {\n    parentName: \"p\"\n  }, \"maxPriorityFeePerGas\"), \" determine the maximum transaction fee paid to the miner. \", mdx(\"a\", {\n    parentName: \"p\",\n    \"href\": \"/developers/docs/gas/\"\n  }, \"More on Gas\"), \".\"), mdx(\"p\", null, \"The transaction object will look a little like this:\"), mdx(\"pre\", null, mdx(\"code\", {\n    parentName: \"pre\",\n    \"className\": \"language-js\"\n  }, \"{\\n  from: \\\"0xEA674fdDe714fd979de3EdF0F56AA9716B898ec8\\\",\\n  to: \\\"0xac03bb73b6a9e108530aff4df5077c2b3d481e5a\\\",\\n  gasLimit: \\\"21000\\\",\\n  maxFeePerGas: \\\"300\\\",\\n  maxPriorityFeePerGas: \\\"10\\\",\\n  nonce: \\\"0\\\",\\n  value: \\\"10000000000\\\"\\n}\\n\")), mdx(\"p\", null, \"But a transaction object needs to be signed using the sender's private key. This proves that the transaction could only have come from the sender and was not sent fraudulently.\"), mdx(\"p\", null, \"An Ethereum client like Geth will handle this signing process.\"), mdx(\"p\", null, \"Example \", mdx(\"a\", {\n    parentName: \"p\",\n    \"href\": \"https://eth.wiki/json-rpc/API\"\n  }, \"JSON-RPC\"), \" call:\"), mdx(\"pre\", null, mdx(\"code\", {\n    parentName: \"pre\",\n    \"className\": \"language-json\"\n  }, \"{\\n  \\\"id\\\": 2,\\n  \\\"jsonrpc\\\": \\\"2.0\\\",\\n  \\\"method\\\": \\\"account_signTransaction\\\",\\n  \\\"params\\\": [\\n    {\\n      \\\"from\\\": \\\"0x1923f626bb8dc025849e00f99c25fe2b2f7fb0db\\\",\\n      \\\"gas\\\": \\\"0x55555\\\",\\n      \\\"maxFeePerGas\\\": \\\"0x1234\\\",\\n      \\\"maxPriorityFeePerGas\\\": \\\"0x1234\\\",\\n      \\\"input\\\": \\\"0xabcd\\\",\\n      \\\"nonce\\\": \\\"0x0\\\",\\n      \\\"to\\\": \\\"0x07a565b7ed7d7a678680a4c162885bedbb695fe0\\\",\\n      \\\"value\\\": \\\"0x1234\\\"\\n    }\\n  ]\\n}\\n\")), mdx(\"p\", null, \"Example response:\"), mdx(\"pre\", null, mdx(\"code\", {\n    parentName: \"pre\",\n    \"className\": \"language-json\"\n  }, \"{\\n  \\\"jsonrpc\\\": \\\"2.0\\\",\\n  \\\"id\\\": 2,\\n  \\\"result\\\": {\\n    \\\"raw\\\": \\\"0xf88380018203339407a565b7ed7d7a678680a4c162885bedbb695fe080a44401a6e4000000000000000000000000000000000000000000000000000000000000001226a0223a7c9bcf5531c99be5ea7082183816eb20cfe0bbc322e97cc5c7f71ab8b20ea02aadee6b34b45bb15bc42d9c09de4a6754e7000908da72d48cc7704971491663\\\",\\n    \\\"tx\\\": {\\n      \\\"nonce\\\": \\\"0x0\\\",\\n      \\\"maxFeePerGas\\\": \\\"0x1234\\\",\\n      \\\"maxPriorityFeePerGas\\\": \\\"0x1234\\\",\\n      \\\"gas\\\": \\\"0x55555\\\",\\n      \\\"to\\\": \\\"0x07a565b7ed7d7a678680a4c162885bedbb695fe0\\\",\\n      \\\"value\\\": \\\"0x1234\\\",\\n      \\\"input\\\": \\\"0xabcd\\\",\\n      \\\"v\\\": \\\"0x26\\\",\\n      \\\"r\\\": \\\"0x223a7c9bcf5531c99be5ea7082183816eb20cfe0bbc322e97cc5c7f71ab8b20e\\\",\\n      \\\"s\\\": \\\"0x2aadee6b34b45bb15bc42d9c09de4a6754e7000908da72d48cc7704971491663\\\",\\n      \\\"hash\\\": \\\"0xeba2df809e7a612a0a0d444ccfa5c839624bdc00dd29e3340d46df3870f8a30e\\\"\\n    }\\n  }\\n}\\n\")), mdx(\"ul\", null, mdx(\"li\", {\n    parentName: \"ul\"\n  }, \"the \", mdx(\"inlineCode\", {\n    parentName: \"li\"\n  }, \"raw\"), \" is the signed transaction in Recursive Length Prefix (RLP) encoded form\"), mdx(\"li\", {\n    parentName: \"ul\"\n  }, \"the \", mdx(\"inlineCode\", {\n    parentName: \"li\"\n  }, \"tx\"), \" is the signed transaction in JSON form\")), mdx(\"p\", null, \"With the signature hash, the transaction can be cryptographically proven that it came from the sender and submitted to the network.\"), mdx(\"h2\", {\n    \"id\": \"types-of-transactions\",\n    \"style\": {\n      \"position\": \"relative\"\n    }\n  }, mdx(\"a\", {\n    parentName: \"h2\",\n    \"href\": \"#types-of-transactions\",\n    \"aria-label\": \"types of transactions permalink\",\n    \"className\": \"header-anchor before\"\n  }, mdx(\"svg\", {\n    parentName: \"a\",\n    \"aria-hidden\": \"true\",\n    \"focusable\": \"false\",\n    \"height\": \"16\",\n    \"version\": \"1.1\",\n    \"viewBox\": \"0 0 16 16\",\n    \"width\": \"16\"\n  }, mdx(\"path\", {\n    parentName: \"svg\",\n    \"fillRule\": \"evenodd\",\n    \"d\": \"M4 9h1v1H4c-1.5 0-3-1.69-3-3.5S2.55 3 4 3h4c1.45 0 3 1.69 3 3.5 0 1.41-.91 2.72-2 3.25V8.59c.58-.45 1-1.27 1-2.09C10 5.22 8.98 4 8 4H4c-.98 0-2 1.22-2 2.5S3 9 4 9zm9-3h-1v1h1c1 0 2 1.22 2 2.5S13.98 12 13 12H9c-.98 0-2-1.22-2-2.5 0-.83.42-1.64 1-2.09V6.25c-1.09.53-2 1.84-2 3.25C6 11.31 7.55 13 9 13h4c1.45 0 3-1.69 3-3.5S14.5 6 13 6z\"\n  }))), \"Types of transactions\"), mdx(\"p\", null, \"On Ethereum there are a few different types of transactions:\"), mdx(\"ul\", null, mdx(\"li\", {\n    parentName: \"ul\"\n  }, \"Regular transactions: a transaction from one wallet to another.\"), mdx(\"li\", {\n    parentName: \"ul\"\n  }, \"Contract deployment transactions: a transaction without a 'to' address, where the data field is used for the contract code.\")), mdx(\"h3\", {\n    \"id\": \"on-gas\",\n    \"style\": {\n      \"position\": \"relative\"\n    }\n  }, mdx(\"a\", {\n    parentName: \"h3\",\n    \"href\": \"#on-gas\",\n    \"aria-label\": \"on gas permalink\",\n    \"className\": \"header-anchor before\"\n  }, mdx(\"svg\", {\n    parentName: \"a\",\n    \"aria-hidden\": \"true\",\n    \"focusable\": \"false\",\n    \"height\": \"16\",\n    \"version\": \"1.1\",\n    \"viewBox\": \"0 0 16 16\",\n    \"width\": \"16\"\n  }, mdx(\"path\", {\n    parentName: \"svg\",\n    \"fillRule\": \"evenodd\",\n    \"d\": \"M4 9h1v1H4c-1.5 0-3-1.69-3-3.5S2.55 3 4 3h4c1.45 0 3 1.69 3 3.5 0 1.41-.91 2.72-2 3.25V8.59c.58-.45 1-1.27 1-2.09C10 5.22 8.98 4 8 4H4c-.98 0-2 1.22-2 2.5S3 9 4 9zm9-3h-1v1h1c1 0 2 1.22 2 2.5S13.98 12 13 12H9c-.98 0-2-1.22-2-2.5 0-.83.42-1.64 1-2.09V6.25c-1.09.53-2 1.84-2 3.25C6 11.31 7.55 13 9 13h4c1.45 0 3-1.69 3-3.5S14.5 6 13 6z\"\n  }))), \"On gas\"), mdx(\"p\", null, \"As mentioned, transactions cost \", mdx(\"a\", {\n    parentName: \"p\",\n    \"href\": \"/developers/docs/gas/\"\n  }, \"gas\"), \" to execute. Simple transfer transactions require 21000 units of Gas.\"), mdx(\"p\", null, \"So for Bob to send Alice 1 ETH at a \", mdx(\"inlineCode\", {\n    parentName: \"p\"\n  }, \"baseFeePerGas\"), \" of 190 gwei and \", mdx(\"inlineCode\", {\n    parentName: \"p\"\n  }, \"maxPriorityFeePerGas\"), \" of 10 gwei, Bob will need to pay the following fee:\"), mdx(\"pre\", null, mdx(\"code\", {\n    parentName: \"pre\"\n  }, \"(190 + 10) * 21000 = 4,200,000 gwei\\n--or--\\n0.0042 ETH\\n\")), mdx(\"p\", null, \"Bob's account will be debited \", mdx(\"strong\", {\n    parentName: \"p\"\n  }, \"-1.0042 ETH\")), mdx(\"p\", null, \"Alice's account will be credited \", mdx(\"strong\", {\n    parentName: \"p\"\n  }, \"+1.0 ETH\")), mdx(\"p\", null, \"The base fee will be burned \", mdx(\"strong\", {\n    parentName: \"p\"\n  }, \"-0.00399 ETH\")), mdx(\"p\", null, \"Miner keeps the tip \", mdx(\"strong\", {\n    parentName: \"p\"\n  }, \"+0.000210 ETH\")), mdx(\"p\", null, \"Gas is required for any smart contract interaction too.\"), mdx(\"p\", null, mdx(\"span\", {\n    parentName: \"p\",\n    \"className\": \"gatsby-resp-image-wrapper\",\n    \"style\": {\n      \"position\": \"relative\",\n      \"display\": \"block\",\n      \"marginLeft\": \"auto\",\n      \"marginRight\": \"auto\",\n      \"maxWidth\": \"1080px\"\n    }\n  }, \"\\n      \", mdx(\"a\", {\n    parentName: \"span\",\n    \"className\": \"gatsby-resp-image-link\",\n    \"href\": \"/static/c3638b26a1210d2c73a7ec2335c57351/302a4/gas-tx.png\",\n    \"style\": {\n      \"display\": \"block\"\n    },\n    \"target\": \"_blank\",\n    \"rel\": \"noopener\"\n  }, \"\\n    \", mdx(\"span\", {\n    parentName: \"a\",\n    \"className\": \"gatsby-resp-image-background-image\",\n    \"style\": {\n      \"paddingBottom\": \"56.333333333333336%\",\n      \"position\": \"relative\",\n      \"bottom\": \"0\",\n      \"left\": \"0\",\n      \"backgroundImage\": \"url('data:image/png;base64,iVBORw0KGgoAAAANSUhEUgAAABQAAAALCAYAAAB/Ca1DAAAACXBIWXMAAAsTAAALEwEAmpwYAAACyUlEQVQoz5WSbUhTYRSAz151u5upEKwCNXLTZWqiQRRE/bH6kUFGH0IQQRZR6nTbNa0wKRND1BCzZLSPUhTB/MLUFBWdBpofm/WjMLS0cCjOb3Nuu6f3bkn0J+jCw3tfzn2fe95zDiAA5FYi5BkRSnWr8Mq4CHrDChgMywIK/PdjLpqDqvLPqRXPPxXrtT+yjcblfIN+6egL4wbUaMcJqkPh38j/rBo5ACJCWflcQcnTb2/Lnk3XG4wrvTrD2sVK7TQktyDhNFsfh3pQy8CVsQ/wKj0bRzlBSQR3jKNi6A0A3uqGvz7ZdK8E94M3qoJFVMhQoQf67tnLGDsbySxqDogX1bHiNTZaTGMiR1oIAHfvIFlXRW7Dc8DgFWDqqPhDgoJMtnVJOZXMB9N3C5x3Yn5nKCeYHiiw5pwW8AnEvUGIaEJQtiE4VTIJZigIaHjB685gU/98dU/PTN3w8HrryIg95Ut73yV7zrEdSxWPgGPDJTRDCS+11Hd613xHMPXMXjD12dr7THMtJtNCLqZIhQ6llECNHcHSPBQx+H4JBwdsODK6hpbhFX0D/dFKSZI/p1HwMn+KHy2+7+TDmwF8dlUvrUVPShbxceEylpb/7MMFEDYpdhG4T4MfazuCzRZn7Zhls8lscXSZ31lvoS8w6/ln/DhNGF9HIaeWC6lQNJOXJLk9jtDQuH6+usI20Ky1YHflWD+WBTLjx0UEXJlRBJOlIueoCXADwTZhhe4h9Jpo7TxMJeLN7CNAr+PuNN/FVWUUJGYhdKjLAasehEyVFg5/LSlunE+ND8BrfIPVMjoaYRLUXRdgYbwXFp8i9oKzXrO6XCGXoRBQET86hMr5mSQuCrJBZCrlpBc/x5aEyz4DsF2Aaf6MIyOWAKr2ABUyzsxoD1kxDMcqGLwhcY/MX2ND2dq72L2M4+4hMccGibhMWhY2XIzKnfALPNeVtmIWABEAAAAASUVORK5CYII=')\",\n      \"backgroundSize\": \"cover\",\n      \"display\": \"block\"\n    }\n  }), \"\\n  \", mdx(\"img\", {\n    parentName: \"a\",\n    \"className\": \"gatsby-resp-image-image\",\n    \"alt\": \"Diagram showing how unused gas is refunded\",\n    \"title\": \"Diagram showing how unused gas is refunded\",\n    \"src\": \"/static/c3638b26a1210d2c73a7ec2335c57351/302a4/gas-tx.png\",\n    \"srcSet\": [\"/static/c3638b26a1210d2c73a7ec2335c57351/5a46d/gas-tx.png 300w\", \"/static/c3638b26a1210d2c73a7ec2335c57351/0a47e/gas-tx.png 600w\", \"/static/c3638b26a1210d2c73a7ec2335c57351/302a4/gas-tx.png 1080w\"],\n    \"sizes\": \"(max-width: 1080px) 100vw, 1080px\",\n    \"style\": {\n      \"width\": \"100%\",\n      \"height\": \"100%\",\n      \"margin\": \"0\",\n      \"verticalAlign\": \"middle\",\n      \"position\": \"absolute\",\n      \"top\": \"0\",\n      \"left\": \"0\"\n    },\n    \"loading\": \"lazy\",\n    \"decoding\": \"async\"\n  }), \"\\n  \"), \"\\n    \"), \"\\n\", mdx(\"em\", {\n    parentName: \"p\"\n  }, \"Diagram adapted from \", mdx(\"a\", {\n    parentName: \"em\",\n    \"href\": \"https://takenobu-hs.github.io/downloads/ethereum_evm_illustrated.pdf\"\n  }, \"Ethereum EVM illustrated\"))), mdx(\"p\", null, \"Any gas not used in a transaction is refunded to the user account.\"), mdx(\"h2\", {\n    \"id\": \"transaction-lifecycle\",\n    \"style\": {\n      \"position\": \"relative\"\n    }\n  }, mdx(\"a\", {\n    parentName: \"h2\",\n    \"href\": \"#transaction-lifecycle\",\n    \"aria-label\": \"transaction lifecycle permalink\",\n    \"className\": \"header-anchor before\"\n  }, mdx(\"svg\", {\n    parentName: \"a\",\n    \"aria-hidden\": \"true\",\n    \"focusable\": \"false\",\n    \"height\": \"16\",\n    \"version\": \"1.1\",\n    \"viewBox\": \"0 0 16 16\",\n    \"width\": \"16\"\n  }, mdx(\"path\", {\n    parentName: \"svg\",\n    \"fillRule\": \"evenodd\",\n    \"d\": \"M4 9h1v1H4c-1.5 0-3-1.69-3-3.5S2.55 3 4 3h4c1.45 0 3 1.69 3 3.5 0 1.41-.91 2.72-2 3.25V8.59c.58-.45 1-1.27 1-2.09C10 5.22 8.98 4 8 4H4c-.98 0-2 1.22-2 2.5S3 9 4 9zm9-3h-1v1h1c1 0 2 1.22 2 2.5S13.98 12 13 12H9c-.98 0-2-1.22-2-2.5 0-.83.42-1.64 1-2.09V6.25c-1.09.53-2 1.84-2 3.25C6 11.31 7.55 13 9 13h4c1.45 0 3-1.69 3-3.5S14.5 6 13 6z\"\n  }))), \"Transaction lifecycle\"), mdx(\"p\", null, \"Once the transaction has been submitted the following happens:\"), mdx(\"ol\", null, mdx(\"li\", {\n    parentName: \"ol\"\n  }, \"Once you send a transaction, cryptography generates a transaction hash:\\n\", mdx(\"inlineCode\", {\n    parentName: \"li\"\n  }, \"0x97d99bc7729211111a21b12c933c949d4f31684f1d6954ff477d0477538ff017\")), mdx(\"li\", {\n    parentName: \"ol\"\n  }, \"The transaction is then broadcast to the network and included in a pool with lots of other transactions.\"), mdx(\"li\", {\n    parentName: \"ol\"\n  }, \"A miner must pick your transaction and include it in a block in order to verify the transaction and consider it \\\"successful\\\".\", mdx(\"ul\", {\n    parentName: \"li\"\n  }, mdx(\"li\", {\n    parentName: \"ul\"\n  }, \"You may end up waiting at this stage if the network is busy and miners aren't able to keep up.\"))), mdx(\"li\", {\n    parentName: \"ol\"\n  }, \"Your transaction will receive \\\"confirmations\\\". The number of confirmations is the number of blocks created since the block that included your transaction. The higher the number, the greater the certainty that the network processed and recognized the transaction.\", mdx(\"ul\", {\n    parentName: \"li\"\n  }, mdx(\"li\", {\n    parentName: \"ul\"\n  }, \"Recent blocks may get re-organized, giving the impression the transaction was unsuccessful; however, the transaction may still be valid but included in a different block.\"), mdx(\"li\", {\n    parentName: \"ul\"\n  }, \"The probability of a re-organization diminishes with every subsequent block mined, i.e. the greater the number of confirmations, the more immutable the transaction is.\")))), mdx(\"h2\", {\n    \"id\": \"a-visual-demo\",\n    \"style\": {\n      \"position\": \"relative\"\n    }\n  }, mdx(\"a\", {\n    parentName: \"h2\",\n    \"href\": \"#a-visual-demo\",\n    \"aria-label\": \"a visual demo permalink\",\n    \"className\": \"header-anchor before\"\n  }, mdx(\"svg\", {\n    parentName: \"a\",\n    \"aria-hidden\": \"true\",\n    \"focusable\": \"false\",\n    \"height\": \"16\",\n    \"version\": \"1.1\",\n    \"viewBox\": \"0 0 16 16\",\n    \"width\": \"16\"\n  }, mdx(\"path\", {\n    parentName: \"svg\",\n    \"fillRule\": \"evenodd\",\n    \"d\": \"M4 9h1v1H4c-1.5 0-3-1.69-3-3.5S2.55 3 4 3h4c1.45 0 3 1.69 3 3.5 0 1.41-.91 2.72-2 3.25V8.59c.58-.45 1-1.27 1-2.09C10 5.22 8.98 4 8 4H4c-.98 0-2 1.22-2 2.5S3 9 4 9zm9-3h-1v1h1c1 0 2 1.22 2 2.5S13.98 12 13 12H9c-.98 0-2-1.22-2-2.5 0-.83.42-1.64 1-2.09V6.25c-1.09.53-2 1.84-2 3.25C6 11.31 7.55 13 9 13h4c1.45 0 3-1.69 3-3.5S14.5 6 13 6z\"\n  }))), \"A visual demo\"), mdx(\"p\", null, \"Watch Austin walk you through transactions, gas, and mining.\"), mdx(\"iframe\", {\n    width: \"100%\",\n    height: \"315\",\n    src: \"https://www.youtube.com/embed/er-0ihqFQB0\",\n    frameBorder: \"0\",\n    allow: \"accelerometer; autoplay; clipboard-write; encrypted-media; gyroscope; picture-in-picture\",\n    allowFullScreen: true\n  }), mdx(\"h2\", {\n    \"id\": \"typed-transaction-envelope\",\n    \"style\": {\n      \"position\": \"relative\"\n    }\n  }, mdx(\"a\", {\n    parentName: \"h2\",\n    \"href\": \"#typed-transaction-envelope\",\n    \"aria-label\": \"typed transaction envelope permalink\",\n    \"className\": \"header-anchor before\"\n  }, mdx(\"svg\", {\n    parentName: \"a\",\n    \"aria-hidden\": \"true\",\n    \"focusable\": \"false\",\n    \"height\": \"16\",\n    \"version\": \"1.1\",\n    \"viewBox\": \"0 0 16 16\",\n    \"width\": \"16\"\n  }, mdx(\"path\", {\n    parentName: \"svg\",\n    \"fillRule\": \"evenodd\",\n    \"d\": \"M4 9h1v1H4c-1.5 0-3-1.69-3-3.5S2.55 3 4 3h4c1.45 0 3 1.69 3 3.5 0 1.41-.91 2.72-2 3.25V8.59c.58-.45 1-1.27 1-2.09C10 5.22 8.98 4 8 4H4c-.98 0-2 1.22-2 2.5S3 9 4 9zm9-3h-1v1h1c1 0 2 1.22 2 2.5S13.98 12 13 12H9c-.98 0-2-1.22-2-2.5 0-.83.42-1.64 1-2.09V6.25c-1.09.53-2 1.84-2 3.25C6 11.31 7.55 13 9 13h4c1.45 0 3-1.69 3-3.5S14.5 6 13 6z\"\n  }))), \"Typed Transaction Envelope\"), mdx(\"p\", null, \"Ethereum originally had one format for transactions. Each transaction contained a nonce, gas price, gas limit, to address, value, data, v, r, and s. These fields are RLP-encoded, to look something like this:\"), mdx(\"p\", null, mdx(\"inlineCode\", {\n    parentName: \"p\"\n  }, \"RLP([nonce, gasPrice, gasLimit, to, value, data, v, r, s])\")), mdx(\"p\", null, \"Ethereum has evolved to support multiple types of transactions to allow for new features such as access lists and \", mdx(\"a\", {\n    parentName: \"p\",\n    \"href\": \"https://github.com/ethereum/EIPs/blob/master/EIPS/eip-1559.md\"\n  }, \"EIP-1559\"), \" to be implemented without affecting legacy transaction formats.\"), mdx(\"p\", null, mdx(\"a\", {\n    parentName: \"p\",\n    \"href\": \"https://eips.ethereum.org/EIPS/eip-2718\"\n  }, \"EIP-2718: Typed Transaction Envelope\"), \" defines a transaction type that is an envelope for future transaction types.\"), mdx(\"p\", null, \"EIP-2718 is a new generalised envelope for typed transactions. In the new standard, transactions are interpreted as:\"), mdx(\"p\", null, mdx(\"inlineCode\", {\n    parentName: \"p\"\n  }, \"TransactionType || TransactionPayload\")), mdx(\"p\", null, \"Where the fields are defined as:\"), mdx(\"ul\", null, mdx(\"li\", {\n    parentName: \"ul\"\n  }, mdx(\"inlineCode\", {\n    parentName: \"li\"\n  }, \"TransactionType\"), \" - a number between 0 and 0x7f, for a total of 128 possible transaction types.\"), mdx(\"li\", {\n    parentName: \"ul\"\n  }, mdx(\"inlineCode\", {\n    parentName: \"li\"\n  }, \"TransactionPayload\"), \" - an arbitrary byte array defined by the transaction type.\")), mdx(\"h2\", {\n    \"id\": \"further-reading\",\n    \"style\": {\n      \"position\": \"relative\"\n    }\n  }, mdx(\"a\", {\n    parentName: \"h2\",\n    \"href\": \"#further-reading\",\n    \"aria-label\": \"further reading permalink\",\n    \"className\": \"header-anchor before\"\n  }, mdx(\"svg\", {\n    parentName: \"a\",\n    \"aria-hidden\": \"true\",\n    \"focusable\": \"false\",\n    \"height\": \"16\",\n    \"version\": \"1.1\",\n    \"viewBox\": \"0 0 16 16\",\n    \"width\": \"16\"\n  }, mdx(\"path\", {\n    parentName: \"svg\",\n    \"fillRule\": \"evenodd\",\n    \"d\": \"M4 9h1v1H4c-1.5 0-3-1.69-3-3.5S2.55 3 4 3h4c1.45 0 3 1.69 3 3.5 0 1.41-.91 2.72-2 3.25V8.59c.58-.45 1-1.27 1-2.09C10 5.22 8.98 4 8 4H4c-.98 0-2 1.22-2 2.5S3 9 4 9zm9-3h-1v1h1c1 0 2 1.22 2 2.5S13.98 12 13 12H9c-.98 0-2-1.22-2-2.5 0-.83.42-1.64 1-2.09V6.25c-1.09.53-2 1.84-2 3.25C6 11.31 7.55 13 9 13h4c1.45 0 3-1.69 3-3.5S14.5 6 13 6z\"\n  }))), \"Further reading\"), mdx(\"ul\", null, mdx(\"li\", {\n    parentName: \"ul\"\n  }, mdx(\"a\", {\n    parentName: \"li\",\n    \"href\": \"https://eips.ethereum.org/EIPS/eip-2718\"\n  }, \"EIP-2718: Typed Transaction Envelope\"))), mdx(\"p\", null, mdx(\"em\", {\n    parentName: \"p\"\n  }, \"Know of a community resource that helped you? Edit this page and add it!\")), mdx(\"h2\", {\n    \"id\": \"related-topics\",\n    \"style\": {\n      \"position\": \"relative\"\n    }\n  }, mdx(\"a\", {\n    parentName: \"h2\",\n    \"href\": \"#related-topics\",\n    \"aria-label\": \"related topics permalink\",\n    \"className\": \"header-anchor before\"\n  }, mdx(\"svg\", {\n    parentName: \"a\",\n    \"aria-hidden\": \"true\",\n    \"focusable\": \"false\",\n    \"height\": \"16\",\n    \"version\": \"1.1\",\n    \"viewBox\": \"0 0 16 16\",\n    \"width\": \"16\"\n  }, mdx(\"path\", {\n    parentName: \"svg\",\n    \"fillRule\": \"evenodd\",\n    \"d\": \"M4 9h1v1H4c-1.5 0-3-1.69-3-3.5S2.55 3 4 3h4c1.45 0 3 1.69 3 3.5 0 1.41-.91 2.72-2 3.25V8.59c.58-.45 1-1.27 1-2.09C10 5.22 8.98 4 8 4H4c-.98 0-2 1.22-2 2.5S3 9 4 9zm9-3h-1v1h1c1 0 2 1.22 2 2.5S13.98 12 13 12H9c-.98 0-2-1.22-2-2.5 0-.83.42-1.64 1-2.09V6.25c-1.09.53-2 1.84-2 3.25C6 11.31 7.55 13 9 13h4c1.45 0 3-1.69 3-3.5S14.5 6 13 6z\"\n  }))), \"Related topics\"), mdx(\"ul\", null, mdx(\"li\", {\n    parentName: \"ul\"\n  }, mdx(\"a\", {\n    parentName: \"li\",\n    \"href\": \"/developers/docs/accounts/\"\n  }, \"Accounts\")), mdx(\"li\", {\n    parentName: \"ul\"\n  }, mdx(\"a\", {\n    parentName: \"li\",\n    \"href\": \"/developers/docs/evm/\"\n  }, \"Ethereum virtual machine (EVM)\")), mdx(\"li\", {\n    parentName: \"ul\"\n  }, mdx(\"a\", {\n    parentName: \"li\",\n    \"href\": \"/developers/docs/gas/\"\n  }, \"Gas\")), mdx(\"li\", {\n    parentName: \"ul\"\n  }, mdx(\"a\", {\n    parentName: \"li\",\n    \"href\": \"/developers/docs/consensus-mechanisms/pow/mining/\"\n  }, \"Mining\"))));\n}\n;\nMDXContent.isMDXComponent = true;","tableOfContents":{"items":[{"url":"#prerequisites-prerequisites","title":"Prerequisites {#prerequisites}"},{"url":"#whats-a-transaction-whats-a-transaction","title":"What's a transaction? {#whats-a-transaction}"},{"url":"#types-of-transactions-types-of-transactions","title":"Types of transactions {#types-of-transactions}","items":[{"url":"#on-gas-on-gas","title":"On gas {#on-gas}"}]},{"url":"#transaction-lifecycle-transaction-lifecycle","title":"Transaction lifecycle {#transaction-lifecycle}"},{"url":"#a-visual-demo-a-visual-demo","title":"A visual demo {#a-visual-demo}"},{"url":"#typed-transaction-envelope-typed-transaction-envelope","title":"Typed Transaction Envelope {#typed-transaction-envelope}"},{"url":"#further-reading-further-reading","title":"Further reading {#further-reading}"},{"url":"#related-topics-related-topics","title":"Related topics {#related-topics}"}]}}},"pageContext":{"slug":"/ko/developers/docs/transactions/","ignoreTranslationBanner":false,"isOutdated":false,"isContentEnglish":true,"relativePath":"src/content/developers/docs/transactions/index.md","intl":{"language":"ko","defaultLanguage":"en","languages":["en","ar","bg","bn","ca","cs","de","el","es","fa","fi","fr","hi","hr","hu","id","ig","it","ja","ko","lt","ml","nl","nb","pl","pt","pt-br","ro","ru","se","sk","sl","tr","uk","vi","zh","zh-tw"],"messages":{"about-ethereum-org":"ethereum.org 소개","about-us":"소개","brand-assets":"브랜드 자산","community":"커뮤니티","contact":"연락처","contributing":"기여","cookie-policy":"쿠키 정책","decentralized-applications-dapps":"탈중앙화된 애플리케이션(디앱)","developers":"개발자","developers-home":"개발자 홈","documentation":"개발문서","ef-blog":"이더리움 재단 블로그","eips":"이더리움 개선 제안","enterprise":"엔터프라이즈","ethereum":"이더리움","ethereum-2-0":"이더리움 2.0","ethereum-brand-assets":"이더리움 브랜드 자산","ethereum-community":"이더리움 커뮤니티","ethereum-glossary":"이더리움 용어집","ethereum-wallets":"이더리움 지갑","ethereum-whitepaper":"이더리움 백서","get-eth":"이더 받기","get-started":"시작하기","guides-and-resources":"가이드 및 참고 자료","how-ethereum-works":"이더리움의 작동 원리","individuals":"개인","individuals-menu":"개인 메뉴","language-support":"언어 지원","languages":"언어","learn":"학습","learn-by-coding":"코딩으로 학습","learn-more":"자세히 보기","mainnet-ethereum":"메인넷(Mainnet) 이더리움","nav-beginners":"입문자","page-404-copy":"위 검색 상자를 사용하여 원하는 내용을 찾거나 홈으로 돌아가세요.","page-404-not-found":"찾을 수 없음","page-enterprise":"엔터프라이즈","page-index":"이더리움","page-index-section-beginners-item-one":"이더리움을 처음 접하시나요?","page-index-section-beginners-item-three":"왜 관심을 가져야 하나요?","page-index-section-beginners-item-two":"이더리움이란 무엇인가요?","page-index-section-beginners-title":"입문자","page-index-section-developers-item-one":"시작 가이드","page-index-section-developers-item-three":"최신 개발자 도구","page-index-section-developers-item-two":"스마트 컨트랙트 프로그래밍 배우기","page-index-section-developers-title":"개발자 전용","page-index-section-enterprise-item-one":"엔터프라이즈 이더리움을 선택해야 하는 이유","page-index-section-enterprise-item-three":"엔터프라이즈 개발자 커뮤니티","page-index-section-enterprise-item-two":"엔터프라이즈 기능","page-index-section-enterprise-title":"엔터프라이즈 전용","page-index-section-individuals-item-one":"이더리움이란 무엇인가요?","page-index-section-individuals-item-three":"가이드 및 참고 자료","page-index-section-individuals-item-two":"이더리움 사용하기","page-index-section-individuals-title":"개인 전용","page-index-section-learn-item-one":"입문자용 참고 자료","page-index-section-learn-item-three":"ETH 2.0","page-index-section-use-item-one":"현재 이더리움으로 무엇을 할 수 있나요?","page-index-section-use-item-three":"지갑이란 무엇인가요?","page-index-section-use-item-two":"이더를 사용하려면 어떻게 해야 하나요?","page-index-section-use-title":"사용법","page-last-updated":"페이지를 마지막으로 업데이트한 날짜","page-learning-tools-consensys-academy-description":"온라인 이더리움 개발자 부트캠프","page-learning-tools-cryptozombies-description":"솔리디티를 배워 나만의 좀비 게임 만들기","page-learning-tools-ethernauts-description":"스마트 컨트랙트 해킹을 통한 레벨 완료","privacy-policy":"개인정보 보호정책","private-ethereum":"프라이빗 이더리움","search":"검색","set-up-local-env":"로컬 환경 설정하기","stablecoins":"스테이블 코인","terms-of-use":"이용 약관","translation-banner-body-new":"아직 내용이 번역되지 않아 영어로 페이지를 보고 계십니다. 이 콘텐츠 번역을 도와주세요.","translation-banner-body-update":"이 페이지의 새로운 버전이 있지만 지금 영어로만 제공됩니다. 최신 버전 번역을 도와주세요.","translation-banner-button-join-translation-program":"번역 프로그램에 참여","translation-banner-button-learn-more":"자세히 보기","translation-banner-button-see-english":"영어 보기","translation-banner-button-translate-page":"페이지 번역","translation-banner-title-new":"이 페이지 번역 돕기","translation-banner-title-update":"이 페이지 업데이트 돕기","tutorials":"자습서","use":"사용법","use-ethereum":"이더리움 사용하기","website-last-updated":"웹사이트를 마지막으로 업데이트한 날짜","what-is-ether":"이더(ETH)란 무엇인가요?","what-is-ethereum":"이더리움은 무엇인가요?","page-developer-meta-title":"이더리움 개발자 참고자료","page-developers-about":"개발자 참고자료 소개","page-developers-about-desc":"ethereum.org는 이더리움으로 개발하는 데 도움이 되는 기초 개념 및 개발 스택 관련 문서가 제공되는 공간입니다. 초심자가 빠르게 익숙해질 수 있도록 돕는 튜토리얼도 준비되어 있습니다.","page-developers-about-desc-2":"Mozilla Developer Network에서 영감을 받아 개발자 콘텐츠와 참고자료가 모여 있는 클럽하우스가 이더리움에도 필요하다고 생각했습니다. 우리의 친구 Mozilla처럼 여기 있는 모든 내용은 오픈 소스로, 여러분이 직접 내용을 보강하고 개선할 수 있습니다.","page-developers-account-desc":"컨트랙트 또는 네트워크 이용자","page-developers-accounts-link":"계정","page-developers-advanced":"고급","page-developers-api-desc":"라이브러리를 사용하여 스마트 컨트랙트로 상호 작용","page-developers-api-link":"백엔드 API","page-developers-aria-label":"개발자 메뉴","page-developers-block-desc":"블록체인에 추가된 트랜잭션의 배치","page-developers-block-explorers-desc":"이더리움 데이터 포털","page-developers-block-explorers-link":"블록 탐색기","page-developers-blocks-link":"블록","page-developers-browse-tutorials":"튜토리얼 둘러보기","page-developers-choose-stack":"스택 선택","page-developers-contribute":"기여하기","page-developers-dev-env-desc":"디앱 개발에 적합한 IDE","page-developers-dev-env-link":"개발 환경","page-developers-discord":"Discord 참여하기","page-developers-docs-introductions":"소개","page-developers-evm-desc":"트랜잭션을 처리하는 컴퓨터","page-developers-evm-link":"이더리움 가상머신(EVM; Ethereum Virtual Machine)","page-developers-explore-documentation":"문서 탐색하기","page-developers-feedback":"피드백이 있다면 GitHub 이슈 또는 Discord 서버를 통해 알려주세요.","page-developers-frameworks-desc":"개발 속도를 높이는 데 도움이 되는 도구","page-developers-frameworks-link":"개발 프레임워크","page-developers-fundamentals":"기초","page-developers-gas-desc":"파워 트랜잭션에 필요한 이더","page-developers-gas-link":"가스","page-developers-get-started":"어떤 방식으로 시작하시겠어요?","page-developers-improve-ethereum":"ethereum.org 개선에 도움 주기","page-developers-improve-ethereum-desc":"ethereum.org에서와 마찬가지로 여기 있는 문서도 커뮤니티의 노력이 합쳐진 결과물입니다. 실수를 발견하거나 개선할 점, 이더리움 개발자에게 도움이 되는 새로운 정보가 있으면 PR을 생성해 주세요.","page-developers-into-eth-desc":"블록체인 및 이더리움 소개","page-developers-intro-dapps-desc":"탈중앙화 애플리케이션 소개","page-developers-intro-dapps-link":"디앱 소개","page-developers-intro-eth-link":"이더리움 소개","page-developers-intro-stack":"스택 소개","page-developers-intro-stack-desc":"이더리움 스택 소개","page-developers-js-libraries-desc":"JavaScript를 사용하여 스마트 컨트랙트로 상호 작용","page-developers-js-libraries-link":"JavaScript 라이브러리","page-developers-language-desc":"친숙한 언어로 이더리움 사용하기","page-developers-languages":"프로그래밍 언어","page-developers-learn":"이더리움 개발 학습하기","page-developers-learn-desc":"핵심 개념과 이더리움 스택에 대한 문서 읽기","page-developers-learn-tutorials":"튜토리얼을 통해 학습하기","page-developers-learn-tutorials-cta":"튜토리얼 보기","page-developers-learn-tutorials-desc":"이미 개발에 성공한 개발자의 도움을 받아 이더리움 개발에 대해 단계별로 학습해 보세요.","page-developers-meta-desc":"이더리움에서 개발하는 개발자를 위한 문서, 튜토리얼, 도구가 준비되어 있습니다.","page-developers-mining-desc":"새로운 블록이 생성되고 합의에 이르는 과정","page-developers-mining-link":"채굴","page-developers-networks-desc":"메인넷 및 테스트 네트워크 개요","page-developers-networks-link":"네트워크","page-developers-node-clients-desc":"블록과 트랜잭션이 네트워크 내에서 검증되는 과정","page-developers-node-clients-link":" 노드 및 클라이언트","page-developers-oracle-desc":"오프체인 데이터를 스마트 컨트랙트에 넣기","page-developers-oracles-link":"오라클","page-developers-play-code":"코드 자유자재로 다루기","page-developers-read-docs":"문서 읽기","page-developers-scaling-desc":"더욱 빠른 트랜잭션을 위한 솔루션","page-developers-scaling-link":"확장","page-developers-smart-contract-security-desc":"개발 중 고려해야 할 보안 수단","page-developers-smart-contract-security-link":"보안","page-developers-set-up":"로컬 환경 설정하기","page-developers-setup-desc":"개발 환경을 구성하여 스택을 개발에 맞게 준비시키세요.","page-developers-smart-contracts-desc":"디앱 이면의 로직 - 자가수행 합의","page-developers-smart-contracts-link":"스마트 컨트랙트","page-developers-stack":"스택","page-developers-start":"실험 시작하기","page-developers-start-desc":"우선 실험하고 나중에 질문하고 싶으세요?","page-developers-storage-desc":"디앱 스토리지 처리 방법","page-developers-storage-link":"스토리지","page-developers-subtitle":"개발자가 개발자를 위해 만든 이더리움 개발자 매뉴얼입니다.","page-developers-title-1":"이더리움","page-developers-title-2":"개발자","page-developers-title-3":"참고자료","page-developers-token-standards-desc":"수락된 토큰 표준 개요","page-developers-token-standards-link":"토큰 표준","page-developers-transactions-desc":"이더리움 상태가 변화하는 과정","page-developers-transactions-link":"트랜잭션","page-developers-web3-desc":"web3 개발 환경의 차별점","page-developers-web3-link":"Web2와 Web3의 비교","page-index-hero-image-alt":"ethereum.org 히어로 이미지","page-index-meta-description":"이더리움은 디지털 화폐와 새로운 형태의 애플리케이션을 위한 탈중앙화 글로벌 플랫폼입니다. 이더리움을 통해 디지털 화폐를 제어하고, 전 세계 어디서나 이용할 수 있는 코드를 작성할 수 있습니다.","page-index-meta-title":"홈","page-index-sections-developers-desc":"이더리움 및 관련 애플리케이션의 기반 기술에 대해 학습하고 개발을 시작해 보세요.","page-index-sections-developers-image-alt":"레고 블록을 손으로 쌓아 만든 이더리움 로고 그림","page-index-sections-developers-link-text":"개발 시작하기","page-index-sections-developers-title":"개발자","page-index-sections-enterprise-desc":"새로운 비즈니스 모델을 개척하고 비용을 절감하며 미래의 비즈니스에 대비하는 데 이더리움이 어떤 역할을 할 수 있는지 알아보세요.","page-index-sections-enterprise-image-alt":"랩탑에 둘러앉아 이더리움 프로젝트 그룹 작업을 수행하는 그림","page-index-sections-enterprise-link-text":"엔터프라이즈용 이더리움","page-index-sections-enterprise-title":"엔터프라이즈","page-index-sections-individuals-desc":"이더리움, 이더, 지갑, 토큰 등에 대해 학습하고 이더리움 애플리케이션 사용을 시작해 보세요.","page-index-sections-individuals-image-alt":"컴퓨터 앞에 앉아 있는 시바견 그림","page-index-sections-individuals-link-text":"이더리움 시작하기","page-index-sections-individuals-title":"이더리움 소개","page-index-subtitle":"이더리움을 통해 디지털화된 가치를 제어하고, 프로그래밍한 대로 실행되며, 전 세계 어디서나 이용할 수 있는 코드를 작성할 수 있습니다.","page-index-title":"이더리움은 탈중앙화된 애플리케이션을 위한 글로벌 오픈 소스 플랫폼입니다."},"routed":true,"originalPath":"/developers/docs/transactions/","redirect":false}}},
    "staticQueryHashes": ["1011117294","3003422828","4096231394"]}