{
    "componentChunkName": "component---src-templates-docs-js",
    "path": "/fa/developers/docs/transactions/",
    "result": {"data":{"siteData":{"siteMetadata":{"editContentUrl":"https://github.com/ethereum/ethereum-org-website/tree/dev/"}},"pageData":{"fields":{"slug":"/en/developers/docs/transactions/"},"frontmatter":{"title":"Transactions","description":"An overview of Ethereum transactions – how they work, their data structure, and how to send them via an application.","lang":"en","incomplete":null,"sidebar":true,"sidebarDepth":null,"isOutdated":null},"body":"var _excluded = [\"components\"];\n\nfunction _extends() { _extends = Object.assign || function (target) { for (var i = 1; i < arguments.length; i++) { var source = arguments[i]; for (var key in source) { if (Object.prototype.hasOwnProperty.call(source, key)) { target[key] = source[key]; } } } return target; }; return _extends.apply(this, arguments); }\n\nfunction _objectWithoutProperties(source, excluded) { if (source == null) return {}; var target = _objectWithoutPropertiesLoose(source, excluded); var key, i; if (Object.getOwnPropertySymbols) { var sourceSymbolKeys = Object.getOwnPropertySymbols(source); for (i = 0; i < sourceSymbolKeys.length; i++) { key = sourceSymbolKeys[i]; if (excluded.indexOf(key) >= 0) continue; if (!Object.prototype.propertyIsEnumerable.call(source, key)) continue; target[key] = source[key]; } } return target; }\n\nfunction _objectWithoutPropertiesLoose(source, excluded) { if (source == null) return {}; var target = {}; var sourceKeys = Object.keys(source); var key, i; for (i = 0; i < sourceKeys.length; i++) { key = sourceKeys[i]; if (excluded.indexOf(key) >= 0) continue; target[key] = source[key]; } return target; }\n\n/* @jsxRuntime classic */\n\n/* @jsx mdx */\nvar _frontmatter = {\n  \"title\": \"Transactions\",\n  \"description\": \"An overview of Ethereum transactions – how they work, their data structure, and how to send them via an application.\",\n  \"lang\": \"en\",\n  \"sidebar\": true\n};\nvar layoutProps = {\n  _frontmatter: _frontmatter\n};\nvar MDXLayout = \"wrapper\";\nreturn function MDXContent(_ref) {\n  var components = _ref.components,\n      props = _objectWithoutProperties(_ref, _excluded);\n\n  return mdx(MDXLayout, _extends({}, layoutProps, props, {\n    components: components,\n    mdxType: \"MDXLayout\"\n  }), mdx(\"p\", null, \"Transactions are cryptographically signed instructions from accounts. An account will initiate a transaction to update the state of the Ethereum network. The simplest transaction is transferring ETH from one account to another.\"), mdx(\"h2\", {\n    \"id\": \"prerequisites\",\n    \"style\": {\n      \"position\": \"relative\"\n    }\n  }, mdx(\"a\", {\n    parentName: \"h2\",\n    \"href\": \"#prerequisites\",\n    \"aria-label\": \"prerequisites permalink\",\n    \"className\": \"header-anchor before\"\n  }, mdx(\"svg\", {\n    parentName: \"a\",\n    \"aria-hidden\": \"true\",\n    \"focusable\": \"false\",\n    \"height\": \"16\",\n    \"version\": \"1.1\",\n    \"viewBox\": \"0 0 16 16\",\n    \"width\": \"16\"\n  }, mdx(\"path\", {\n    parentName: \"svg\",\n    \"fillRule\": \"evenodd\",\n    \"d\": \"M4 9h1v1H4c-1.5 0-3-1.69-3-3.5S2.55 3 4 3h4c1.45 0 3 1.69 3 3.5 0 1.41-.91 2.72-2 3.25V8.59c.58-.45 1-1.27 1-2.09C10 5.22 8.98 4 8 4H4c-.98 0-2 1.22-2 2.5S3 9 4 9zm9-3h-1v1h1c1 0 2 1.22 2 2.5S13.98 12 13 12H9c-.98 0-2-1.22-2-2.5 0-.83.42-1.64 1-2.09V6.25c-1.09.53-2 1.84-2 3.25C6 11.31 7.55 13 9 13h4c1.45 0 3-1.69 3-3.5S14.5 6 13 6z\"\n  }))), \"Prerequisites\"), mdx(\"p\", null, \"To help you better understand this page, we recommend you first read \", mdx(\"a\", {\n    parentName: \"p\",\n    \"href\": \"/developers/docs/accounts/\"\n  }, \"Accounts\"), \" and our \", mdx(\"a\", {\n    parentName: \"p\",\n    \"href\": \"/developers/docs/intro-to-ethereum/\"\n  }, \"introduction to Ethereum\"), \".\"), mdx(\"h2\", {\n    \"id\": \"whats-a-transaction\",\n    \"style\": {\n      \"position\": \"relative\"\n    }\n  }, mdx(\"a\", {\n    parentName: \"h2\",\n    \"href\": \"#whats-a-transaction\",\n    \"aria-label\": \"whats a transaction permalink\",\n    \"className\": \"header-anchor before\"\n  }, mdx(\"svg\", {\n    parentName: \"a\",\n    \"aria-hidden\": \"true\",\n    \"focusable\": \"false\",\n    \"height\": \"16\",\n    \"version\": \"1.1\",\n    \"viewBox\": \"0 0 16 16\",\n    \"width\": \"16\"\n  }, mdx(\"path\", {\n    parentName: \"svg\",\n    \"fillRule\": \"evenodd\",\n    \"d\": \"M4 9h1v1H4c-1.5 0-3-1.69-3-3.5S2.55 3 4 3h4c1.45 0 3 1.69 3 3.5 0 1.41-.91 2.72-2 3.25V8.59c.58-.45 1-1.27 1-2.09C10 5.22 8.98 4 8 4H4c-.98 0-2 1.22-2 2.5S3 9 4 9zm9-3h-1v1h1c1 0 2 1.22 2 2.5S13.98 12 13 12H9c-.98 0-2-1.22-2-2.5 0-.83.42-1.64 1-2.09V6.25c-1.09.53-2 1.84-2 3.25C6 11.31 7.55 13 9 13h4c1.45 0 3-1.69 3-3.5S14.5 6 13 6z\"\n  }))), \"What's a transaction?\"), mdx(\"p\", null, \"An Ethereum transaction refers to an action initiated by an externally-owned account, in other words an account managed by a human, not a contract. For example, if Bob sends Alice 1 ETH, Bob's account must be debited and Alice's must be credited. This state-changing action takes place within a transaction.\"), mdx(\"p\", null, mdx(\"span\", {\n    parentName: \"p\",\n    \"className\": \"gatsby-resp-image-wrapper\",\n    \"style\": {\n      \"position\": \"relative\",\n      \"display\": \"block\",\n      \"marginLeft\": \"auto\",\n      \"marginRight\": \"auto\",\n      \"maxWidth\": \"1080px\"\n    }\n  }, \"\\n      \", mdx(\"a\", {\n    parentName: \"span\",\n    \"className\": \"gatsby-resp-image-link\",\n    \"href\": \"/static/570dedb843948d6bef5e21a6769d5c35/302a4/tx.png\",\n    \"style\": {\n      \"display\": \"block\"\n    },\n    \"target\": \"_blank\",\n    \"rel\": \"noopener\"\n  }, \"\\n    \", mdx(\"span\", {\n    parentName: \"a\",\n    \"className\": \"gatsby-resp-image-background-image\",\n    \"style\": {\n      \"paddingBottom\": \"56.333333333333336%\",\n      \"position\": \"relative\",\n      \"bottom\": \"0\",\n      \"left\": \"0\",\n      \"backgroundImage\": \"url('data:image/png;base64,iVBORw0KGgoAAAANSUhEUgAAABQAAAALCAYAAAB/Ca1DAAAACXBIWXMAAAsTAAALEwEAmpwYAAACN0lEQVQoz22Sv2sTYRjHvzFSs1SxOhVKSdpiyOQogv+Ag7g7OdhBSgeHRpxsldKhWJPmencmlx93lw7VEHRVl4gONYNTERo1DTQ1mMTcj5RSpa/Pc8SaFA8+vMfz/T7f5733XmxsLGJuroVotNlbW7Q2vbUf1vr5n39mpgaEQjswDNu/vu6czucHSSYtpNIuNKIgf/LeuXbSx72cMTGxA0xN1TkQVCTcHg7MvIPUszbePH0JMQ2I28DblSLVOp72z+vyAC+DszA5uYtMxp7O5eylXM5ZIB4Rj7NZ+6Eqty8W4h8hblHgDaAQ3wTXWGNPz8s9S5zhBY6NVaDr9hZNELpueRgGYwspeRiGEOhGr1xwo1fP87uU+h1m7S+63umt9tbo6GfQM0vb7ZY07btIJCr7yWT9IJXaOzRMx9aUxiURhJ/Cztn3r50V13GmGHt/2TC7lixXf0nSlwNFqe1nsy0KdEuABgwPf6AdOmWelMu1hWk6BE93REpthx88Fygt66feLev+u68Esko9QtoRh2QyzWM/7bA8Pl7ln7IHOpMihTaIryR8I2p0ptuKaocMuYrZgvDdeyF8ebkCWe0GWaPQmmG47OWeBmcEg3RtRkZeQ5KsoUSiFYjHfwTW1joBSerQagViKy3fHU2gPL+AzflF3DTpDJ/s+lhjbyzWIO/PXo81FA5vA5FIDbJsQVUtKMogsVgHq6uDcO2kj3s5g7PAlzGdtvmzB6BrcDyoH66xdtLPGZz1Bxq766aA8czeAAAAAElFTkSuQmCC')\",\n      \"backgroundSize\": \"cover\",\n      \"display\": \"block\"\n    }\n  }), \"\\n  \", mdx(\"img\", {\n    parentName: \"a\",\n    \"className\": \"gatsby-resp-image-image\",\n    \"alt\": \"Diagram showing a transaction cause state change\",\n    \"title\": \"Diagram showing a transaction cause state change\",\n    \"src\": \"/static/570dedb843948d6bef5e21a6769d5c35/302a4/tx.png\",\n    \"srcSet\": [\"/static/570dedb843948d6bef5e21a6769d5c35/5a46d/tx.png 300w\", \"/static/570dedb843948d6bef5e21a6769d5c35/0a47e/tx.png 600w\", \"/static/570dedb843948d6bef5e21a6769d5c35/302a4/tx.png 1080w\"],\n    \"sizes\": \"(max-width: 1080px) 100vw, 1080px\",\n    \"style\": {\n      \"width\": \"100%\",\n      \"height\": \"100%\",\n      \"margin\": \"0\",\n      \"verticalAlign\": \"middle\",\n      \"position\": \"absolute\",\n      \"top\": \"0\",\n      \"left\": \"0\"\n    },\n    \"loading\": \"lazy\",\n    \"decoding\": \"async\"\n  }), \"\\n  \"), \"\\n    \"), \"\\n\", mdx(\"em\", {\n    parentName: \"p\"\n  }, \"Diagram adapted from \", mdx(\"a\", {\n    parentName: \"em\",\n    \"href\": \"https://takenobu-hs.github.io/downloads/ethereum_evm_illustrated.pdf\"\n  }, \"Ethereum EVM illustrated\"))), mdx(\"p\", null, \"Transactions, which change the state of the EVM, need to be broadcast to the whole network. Any node can broadcast a request for a transaction to be executed on the EVM; after this happens, a miner will execute the transaction and propagate the resulting state change to the rest of the network.\"), mdx(\"p\", null, \"Transactions require a fee and must be mined to become valid. To make this overview simpler we'll cover gas fees and mining elsewhere.\"), mdx(\"p\", null, \"A submitted transaction includes the following information:\"), mdx(\"ul\", null, mdx(\"li\", {\n    parentName: \"ul\"\n  }, mdx(\"inlineCode\", {\n    parentName: \"li\"\n  }, \"recipient\"), \" \\u2013 the receiving address (if an externally-owned account, the transaction will transfer value. If a contract account, the transaction will execute the contract code)\"), mdx(\"li\", {\n    parentName: \"ul\"\n  }, mdx(\"inlineCode\", {\n    parentName: \"li\"\n  }, \"signature\"), \" \\u2013 the identifier of the sender. This is generated when the sender's private key signs the transaction and confirms the sender has authorized this transaction\"), mdx(\"li\", {\n    parentName: \"ul\"\n  }, mdx(\"inlineCode\", {\n    parentName: \"li\"\n  }, \"value\"), \" \\u2013 amount of ETH to transfer from sender to recipient (in WEI, a denomination of ETH)\"), mdx(\"li\", {\n    parentName: \"ul\"\n  }, mdx(\"inlineCode\", {\n    parentName: \"li\"\n  }, \"data\"), \" \\u2013 optional field to include arbitrary data\"), mdx(\"li\", {\n    parentName: \"ul\"\n  }, mdx(\"inlineCode\", {\n    parentName: \"li\"\n  }, \"gasLimit\"), \" \\u2013 the maximum amount of gas units that can be consumed by the transaction. Units of gas represent computational steps\"), mdx(\"li\", {\n    parentName: \"ul\"\n  }, mdx(\"inlineCode\", {\n    parentName: \"li\"\n  }, \"maxPriorityFeePerGas\"), \" - the maximum amount of gas to be included as a tip to the miner\"), mdx(\"li\", {\n    parentName: \"ul\"\n  }, mdx(\"inlineCode\", {\n    parentName: \"li\"\n  }, \"maxFeePerGas\"), \" - the maximum amount of gas willing to be paid for the transaction (inclusive of \", mdx(\"inlineCode\", {\n    parentName: \"li\"\n  }, \"baseFeePerGas\"), \" and \", mdx(\"inlineCode\", {\n    parentName: \"li\"\n  }, \"maxPriorityFeePerGas\"), \")\")), mdx(\"p\", null, \"Gas is a reference to the computation required to process the transaction by a miner. Users have to pay a fee for this computation. The \", mdx(\"inlineCode\", {\n    parentName: \"p\"\n  }, \"gasLimit\"), \", and \", mdx(\"inlineCode\", {\n    parentName: \"p\"\n  }, \"maxPriorityFeePerGas\"), \" determine the maximum transaction fee paid to the miner. \", mdx(\"a\", {\n    parentName: \"p\",\n    \"href\": \"/developers/docs/gas/\"\n  }, \"More on Gas\"), \".\"), mdx(\"p\", null, \"The transaction object will look a little like this:\"), mdx(\"pre\", null, mdx(\"code\", {\n    parentName: \"pre\",\n    \"className\": \"language-js\"\n  }, \"{\\n  from: \\\"0xEA674fdDe714fd979de3EdF0F56AA9716B898ec8\\\",\\n  to: \\\"0xac03bb73b6a9e108530aff4df5077c2b3d481e5a\\\",\\n  gasLimit: \\\"21000\\\",\\n  maxFeePerGas: \\\"300\\\",\\n  maxPriorityFeePerGas: \\\"10\\\",\\n  nonce: \\\"0\\\",\\n  value: \\\"10000000000\\\"\\n}\\n\")), mdx(\"p\", null, \"But a transaction object needs to be signed using the sender's private key. This proves that the transaction could only have come from the sender and was not sent fraudulently.\"), mdx(\"p\", null, \"An Ethereum client like Geth will handle this signing process.\"), mdx(\"p\", null, \"Example \", mdx(\"a\", {\n    parentName: \"p\",\n    \"href\": \"https://eth.wiki/json-rpc/API\"\n  }, \"JSON-RPC\"), \" call:\"), mdx(\"pre\", null, mdx(\"code\", {\n    parentName: \"pre\",\n    \"className\": \"language-json\"\n  }, \"{\\n  \\\"id\\\": 2,\\n  \\\"jsonrpc\\\": \\\"2.0\\\",\\n  \\\"method\\\": \\\"account_signTransaction\\\",\\n  \\\"params\\\": [\\n    {\\n      \\\"from\\\": \\\"0x1923f626bb8dc025849e00f99c25fe2b2f7fb0db\\\",\\n      \\\"gas\\\": \\\"0x55555\\\",\\n      \\\"maxFeePerGas\\\": \\\"0x1234\\\",\\n      \\\"maxPriorityFeePerGas\\\": \\\"0x1234\\\",\\n      \\\"input\\\": \\\"0xabcd\\\",\\n      \\\"nonce\\\": \\\"0x0\\\",\\n      \\\"to\\\": \\\"0x07a565b7ed7d7a678680a4c162885bedbb695fe0\\\",\\n      \\\"value\\\": \\\"0x1234\\\"\\n    }\\n  ]\\n}\\n\")), mdx(\"p\", null, \"Example response:\"), mdx(\"pre\", null, mdx(\"code\", {\n    parentName: \"pre\",\n    \"className\": \"language-json\"\n  }, \"{\\n  \\\"jsonrpc\\\": \\\"2.0\\\",\\n  \\\"id\\\": 2,\\n  \\\"result\\\": {\\n    \\\"raw\\\": \\\"0xf88380018203339407a565b7ed7d7a678680a4c162885bedbb695fe080a44401a6e4000000000000000000000000000000000000000000000000000000000000001226a0223a7c9bcf5531c99be5ea7082183816eb20cfe0bbc322e97cc5c7f71ab8b20ea02aadee6b34b45bb15bc42d9c09de4a6754e7000908da72d48cc7704971491663\\\",\\n    \\\"tx\\\": {\\n      \\\"nonce\\\": \\\"0x0\\\",\\n      \\\"maxFeePerGas\\\": \\\"0x1234\\\",\\n      \\\"maxPriorityFeePerGas\\\": \\\"0x1234\\\",\\n      \\\"gas\\\": \\\"0x55555\\\",\\n      \\\"to\\\": \\\"0x07a565b7ed7d7a678680a4c162885bedbb695fe0\\\",\\n      \\\"value\\\": \\\"0x1234\\\",\\n      \\\"input\\\": \\\"0xabcd\\\",\\n      \\\"v\\\": \\\"0x26\\\",\\n      \\\"r\\\": \\\"0x223a7c9bcf5531c99be5ea7082183816eb20cfe0bbc322e97cc5c7f71ab8b20e\\\",\\n      \\\"s\\\": \\\"0x2aadee6b34b45bb15bc42d9c09de4a6754e7000908da72d48cc7704971491663\\\",\\n      \\\"hash\\\": \\\"0xeba2df809e7a612a0a0d444ccfa5c839624bdc00dd29e3340d46df3870f8a30e\\\"\\n    }\\n  }\\n}\\n\")), mdx(\"ul\", null, mdx(\"li\", {\n    parentName: \"ul\"\n  }, \"the \", mdx(\"inlineCode\", {\n    parentName: \"li\"\n  }, \"raw\"), \" is the signed transaction in Recursive Length Prefix (RLP) encoded form\"), mdx(\"li\", {\n    parentName: \"ul\"\n  }, \"the \", mdx(\"inlineCode\", {\n    parentName: \"li\"\n  }, \"tx\"), \" is the signed transaction in JSON form\")), mdx(\"p\", null, \"With the signature hash, the transaction can be cryptographically proven that it came from the sender and submitted to the network.\"), mdx(\"h2\", {\n    \"id\": \"types-of-transactions\",\n    \"style\": {\n      \"position\": \"relative\"\n    }\n  }, mdx(\"a\", {\n    parentName: \"h2\",\n    \"href\": \"#types-of-transactions\",\n    \"aria-label\": \"types of transactions permalink\",\n    \"className\": \"header-anchor before\"\n  }, mdx(\"svg\", {\n    parentName: \"a\",\n    \"aria-hidden\": \"true\",\n    \"focusable\": \"false\",\n    \"height\": \"16\",\n    \"version\": \"1.1\",\n    \"viewBox\": \"0 0 16 16\",\n    \"width\": \"16\"\n  }, mdx(\"path\", {\n    parentName: \"svg\",\n    \"fillRule\": \"evenodd\",\n    \"d\": \"M4 9h1v1H4c-1.5 0-3-1.69-3-3.5S2.55 3 4 3h4c1.45 0 3 1.69 3 3.5 0 1.41-.91 2.72-2 3.25V8.59c.58-.45 1-1.27 1-2.09C10 5.22 8.98 4 8 4H4c-.98 0-2 1.22-2 2.5S3 9 4 9zm9-3h-1v1h1c1 0 2 1.22 2 2.5S13.98 12 13 12H9c-.98 0-2-1.22-2-2.5 0-.83.42-1.64 1-2.09V6.25c-1.09.53-2 1.84-2 3.25C6 11.31 7.55 13 9 13h4c1.45 0 3-1.69 3-3.5S14.5 6 13 6z\"\n  }))), \"Types of transactions\"), mdx(\"p\", null, \"On Ethereum there are a few different types of transactions:\"), mdx(\"ul\", null, mdx(\"li\", {\n    parentName: \"ul\"\n  }, \"Regular transactions: a transaction from one wallet to another.\"), mdx(\"li\", {\n    parentName: \"ul\"\n  }, \"Contract deployment transactions: a transaction without a 'to' address, where the data field is used for the contract code.\")), mdx(\"h3\", {\n    \"id\": \"on-gas\",\n    \"style\": {\n      \"position\": \"relative\"\n    }\n  }, mdx(\"a\", {\n    parentName: \"h3\",\n    \"href\": \"#on-gas\",\n    \"aria-label\": \"on gas permalink\",\n    \"className\": \"header-anchor before\"\n  }, mdx(\"svg\", {\n    parentName: \"a\",\n    \"aria-hidden\": \"true\",\n    \"focusable\": \"false\",\n    \"height\": \"16\",\n    \"version\": \"1.1\",\n    \"viewBox\": \"0 0 16 16\",\n    \"width\": \"16\"\n  }, mdx(\"path\", {\n    parentName: \"svg\",\n    \"fillRule\": \"evenodd\",\n    \"d\": \"M4 9h1v1H4c-1.5 0-3-1.69-3-3.5S2.55 3 4 3h4c1.45 0 3 1.69 3 3.5 0 1.41-.91 2.72-2 3.25V8.59c.58-.45 1-1.27 1-2.09C10 5.22 8.98 4 8 4H4c-.98 0-2 1.22-2 2.5S3 9 4 9zm9-3h-1v1h1c1 0 2 1.22 2 2.5S13.98 12 13 12H9c-.98 0-2-1.22-2-2.5 0-.83.42-1.64 1-2.09V6.25c-1.09.53-2 1.84-2 3.25C6 11.31 7.55 13 9 13h4c1.45 0 3-1.69 3-3.5S14.5 6 13 6z\"\n  }))), \"On gas\"), mdx(\"p\", null, \"As mentioned, transactions cost \", mdx(\"a\", {\n    parentName: \"p\",\n    \"href\": \"/developers/docs/gas/\"\n  }, \"gas\"), \" to execute. Simple transfer transactions require 21000 units of Gas.\"), mdx(\"p\", null, \"So for Bob to send Alice 1 ETH at a \", mdx(\"inlineCode\", {\n    parentName: \"p\"\n  }, \"baseFeePerGas\"), \" of 190 gwei and \", mdx(\"inlineCode\", {\n    parentName: \"p\"\n  }, \"maxPriorityFeePerGas\"), \" of 10 gwei, Bob will need to pay the following fee:\"), mdx(\"pre\", null, mdx(\"code\", {\n    parentName: \"pre\"\n  }, \"(190 + 10) * 21000 = 4,200,000 gwei\\n--or--\\n0.0042 ETH\\n\")), mdx(\"p\", null, \"Bob's account will be debited \", mdx(\"strong\", {\n    parentName: \"p\"\n  }, \"-1.0042 ETH\")), mdx(\"p\", null, \"Alice's account will be credited \", mdx(\"strong\", {\n    parentName: \"p\"\n  }, \"+1.0 ETH\")), mdx(\"p\", null, \"The base fee will be burned \", mdx(\"strong\", {\n    parentName: \"p\"\n  }, \"-0.00399 ETH\")), mdx(\"p\", null, \"Miner keeps the tip \", mdx(\"strong\", {\n    parentName: \"p\"\n  }, \"+0.000210 ETH\")), mdx(\"p\", null, \"Gas is required for any smart contract interaction too.\"), mdx(\"p\", null, mdx(\"span\", {\n    parentName: \"p\",\n    \"className\": \"gatsby-resp-image-wrapper\",\n    \"style\": {\n      \"position\": \"relative\",\n      \"display\": \"block\",\n      \"marginLeft\": \"auto\",\n      \"marginRight\": \"auto\",\n      \"maxWidth\": \"1080px\"\n    }\n  }, \"\\n      \", mdx(\"a\", {\n    parentName: \"span\",\n    \"className\": \"gatsby-resp-image-link\",\n    \"href\": \"/static/c3638b26a1210d2c73a7ec2335c57351/302a4/gas-tx.png\",\n    \"style\": {\n      \"display\": \"block\"\n    },\n    \"target\": \"_blank\",\n    \"rel\": \"noopener\"\n  }, \"\\n    \", mdx(\"span\", {\n    parentName: \"a\",\n    \"className\": \"gatsby-resp-image-background-image\",\n    \"style\": {\n      \"paddingBottom\": \"56.333333333333336%\",\n      \"position\": \"relative\",\n      \"bottom\": \"0\",\n      \"left\": \"0\",\n      \"backgroundImage\": \"url('data:image/png;base64,iVBORw0KGgoAAAANSUhEUgAAABQAAAALCAYAAAB/Ca1DAAAACXBIWXMAAAsTAAALEwEAmpwYAAACyUlEQVQoz5WSbUhTYRSAz151u5upEKwCNXLTZWqiQRRE/bH6kUFGH0IQQRZR6nTbNa0wKRND1BCzZLSPUhTB/MLUFBWdBpofm/WjMLS0cCjOb3Nuu6f3bkn0J+jCw3tfzn2fe95zDiAA5FYi5BkRSnWr8Mq4CHrDChgMywIK/PdjLpqDqvLPqRXPPxXrtT+yjcblfIN+6egL4wbUaMcJqkPh38j/rBo5ACJCWflcQcnTb2/Lnk3XG4wrvTrD2sVK7TQktyDhNFsfh3pQy8CVsQ/wKj0bRzlBSQR3jKNi6A0A3uqGvz7ZdK8E94M3qoJFVMhQoQf67tnLGDsbySxqDogX1bHiNTZaTGMiR1oIAHfvIFlXRW7Dc8DgFWDqqPhDgoJMtnVJOZXMB9N3C5x3Yn5nKCeYHiiw5pwW8AnEvUGIaEJQtiE4VTIJZigIaHjB685gU/98dU/PTN3w8HrryIg95Ut73yV7zrEdSxWPgGPDJTRDCS+11Hd613xHMPXMXjD12dr7THMtJtNCLqZIhQ6llECNHcHSPBQx+H4JBwdsODK6hpbhFX0D/dFKSZI/p1HwMn+KHy2+7+TDmwF8dlUvrUVPShbxceEylpb/7MMFEDYpdhG4T4MfazuCzRZn7Zhls8lscXSZ31lvoS8w6/ln/DhNGF9HIaeWC6lQNJOXJLk9jtDQuH6+usI20Ky1YHflWD+WBTLjx0UEXJlRBJOlIueoCXADwTZhhe4h9Jpo7TxMJeLN7CNAr+PuNN/FVWUUJGYhdKjLAasehEyVFg5/LSlunE+ND8BrfIPVMjoaYRLUXRdgYbwXFp8i9oKzXrO6XCGXoRBQET86hMr5mSQuCrJBZCrlpBc/x5aEyz4DsF2Aaf6MIyOWAKr2ABUyzsxoD1kxDMcqGLwhcY/MX2ND2dq72L2M4+4hMccGibhMWhY2XIzKnfALPNeVtmIWABEAAAAASUVORK5CYII=')\",\n      \"backgroundSize\": \"cover\",\n      \"display\": \"block\"\n    }\n  }), \"\\n  \", mdx(\"img\", {\n    parentName: \"a\",\n    \"className\": \"gatsby-resp-image-image\",\n    \"alt\": \"Diagram showing how unused gas is refunded\",\n    \"title\": \"Diagram showing how unused gas is refunded\",\n    \"src\": \"/static/c3638b26a1210d2c73a7ec2335c57351/302a4/gas-tx.png\",\n    \"srcSet\": [\"/static/c3638b26a1210d2c73a7ec2335c57351/5a46d/gas-tx.png 300w\", \"/static/c3638b26a1210d2c73a7ec2335c57351/0a47e/gas-tx.png 600w\", \"/static/c3638b26a1210d2c73a7ec2335c57351/302a4/gas-tx.png 1080w\"],\n    \"sizes\": \"(max-width: 1080px) 100vw, 1080px\",\n    \"style\": {\n      \"width\": \"100%\",\n      \"height\": \"100%\",\n      \"margin\": \"0\",\n      \"verticalAlign\": \"middle\",\n      \"position\": \"absolute\",\n      \"top\": \"0\",\n      \"left\": \"0\"\n    },\n    \"loading\": \"lazy\",\n    \"decoding\": \"async\"\n  }), \"\\n  \"), \"\\n    \"), \"\\n\", mdx(\"em\", {\n    parentName: \"p\"\n  }, \"Diagram adapted from \", mdx(\"a\", {\n    parentName: \"em\",\n    \"href\": \"https://takenobu-hs.github.io/downloads/ethereum_evm_illustrated.pdf\"\n  }, \"Ethereum EVM illustrated\"))), mdx(\"p\", null, \"Any gas not used in a transaction is refunded to the user account.\"), mdx(\"h2\", {\n    \"id\": \"transaction-lifecycle\",\n    \"style\": {\n      \"position\": \"relative\"\n    }\n  }, mdx(\"a\", {\n    parentName: \"h2\",\n    \"href\": \"#transaction-lifecycle\",\n    \"aria-label\": \"transaction lifecycle permalink\",\n    \"className\": \"header-anchor before\"\n  }, mdx(\"svg\", {\n    parentName: \"a\",\n    \"aria-hidden\": \"true\",\n    \"focusable\": \"false\",\n    \"height\": \"16\",\n    \"version\": \"1.1\",\n    \"viewBox\": \"0 0 16 16\",\n    \"width\": \"16\"\n  }, mdx(\"path\", {\n    parentName: \"svg\",\n    \"fillRule\": \"evenodd\",\n    \"d\": \"M4 9h1v1H4c-1.5 0-3-1.69-3-3.5S2.55 3 4 3h4c1.45 0 3 1.69 3 3.5 0 1.41-.91 2.72-2 3.25V8.59c.58-.45 1-1.27 1-2.09C10 5.22 8.98 4 8 4H4c-.98 0-2 1.22-2 2.5S3 9 4 9zm9-3h-1v1h1c1 0 2 1.22 2 2.5S13.98 12 13 12H9c-.98 0-2-1.22-2-2.5 0-.83.42-1.64 1-2.09V6.25c-1.09.53-2 1.84-2 3.25C6 11.31 7.55 13 9 13h4c1.45 0 3-1.69 3-3.5S14.5 6 13 6z\"\n  }))), \"Transaction lifecycle\"), mdx(\"p\", null, \"Once the transaction has been submitted the following happens:\"), mdx(\"ol\", null, mdx(\"li\", {\n    parentName: \"ol\"\n  }, \"Once you send a transaction, cryptography generates a transaction hash:\\n\", mdx(\"inlineCode\", {\n    parentName: \"li\"\n  }, \"0x97d99bc7729211111a21b12c933c949d4f31684f1d6954ff477d0477538ff017\")), mdx(\"li\", {\n    parentName: \"ol\"\n  }, \"The transaction is then broadcast to the network and included in a pool with lots of other transactions.\"), mdx(\"li\", {\n    parentName: \"ol\"\n  }, \"A miner must pick your transaction and include it in a block in order to verify the transaction and consider it \\\"successful\\\".\", mdx(\"ul\", {\n    parentName: \"li\"\n  }, mdx(\"li\", {\n    parentName: \"ul\"\n  }, \"You may end up waiting at this stage if the network is busy and miners aren't able to keep up.\"))), mdx(\"li\", {\n    parentName: \"ol\"\n  }, \"Your transaction will receive \\\"confirmations\\\". The number of confirmations is the number of blocks created since the block that included your transaction. The higher the number, the greater the certainty that the network processed and recognized the transaction.\", mdx(\"ul\", {\n    parentName: \"li\"\n  }, mdx(\"li\", {\n    parentName: \"ul\"\n  }, \"Recent blocks may get re-organized, giving the impression the transaction was unsuccessful; however, the transaction may still be valid but included in a different block.\"), mdx(\"li\", {\n    parentName: \"ul\"\n  }, \"The probability of a re-organization diminishes with every subsequent block mined, i.e. the greater the number of confirmations, the more immutable the transaction is.\")))), mdx(\"h2\", {\n    \"id\": \"a-visual-demo\",\n    \"style\": {\n      \"position\": \"relative\"\n    }\n  }, mdx(\"a\", {\n    parentName: \"h2\",\n    \"href\": \"#a-visual-demo\",\n    \"aria-label\": \"a visual demo permalink\",\n    \"className\": \"header-anchor before\"\n  }, mdx(\"svg\", {\n    parentName: \"a\",\n    \"aria-hidden\": \"true\",\n    \"focusable\": \"false\",\n    \"height\": \"16\",\n    \"version\": \"1.1\",\n    \"viewBox\": \"0 0 16 16\",\n    \"width\": \"16\"\n  }, mdx(\"path\", {\n    parentName: \"svg\",\n    \"fillRule\": \"evenodd\",\n    \"d\": \"M4 9h1v1H4c-1.5 0-3-1.69-3-3.5S2.55 3 4 3h4c1.45 0 3 1.69 3 3.5 0 1.41-.91 2.72-2 3.25V8.59c.58-.45 1-1.27 1-2.09C10 5.22 8.98 4 8 4H4c-.98 0-2 1.22-2 2.5S3 9 4 9zm9-3h-1v1h1c1 0 2 1.22 2 2.5S13.98 12 13 12H9c-.98 0-2-1.22-2-2.5 0-.83.42-1.64 1-2.09V6.25c-1.09.53-2 1.84-2 3.25C6 11.31 7.55 13 9 13h4c1.45 0 3-1.69 3-3.5S14.5 6 13 6z\"\n  }))), \"A visual demo\"), mdx(\"p\", null, \"Watch Austin walk you through transactions, gas, and mining.\"), mdx(\"iframe\", {\n    width: \"100%\",\n    height: \"315\",\n    src: \"https://www.youtube.com/embed/er-0ihqFQB0\",\n    frameBorder: \"0\",\n    allow: \"accelerometer; autoplay; clipboard-write; encrypted-media; gyroscope; picture-in-picture\",\n    allowFullScreen: true\n  }), mdx(\"h2\", {\n    \"id\": \"typed-transaction-envelope\",\n    \"style\": {\n      \"position\": \"relative\"\n    }\n  }, mdx(\"a\", {\n    parentName: \"h2\",\n    \"href\": \"#typed-transaction-envelope\",\n    \"aria-label\": \"typed transaction envelope permalink\",\n    \"className\": \"header-anchor before\"\n  }, mdx(\"svg\", {\n    parentName: \"a\",\n    \"aria-hidden\": \"true\",\n    \"focusable\": \"false\",\n    \"height\": \"16\",\n    \"version\": \"1.1\",\n    \"viewBox\": \"0 0 16 16\",\n    \"width\": \"16\"\n  }, mdx(\"path\", {\n    parentName: \"svg\",\n    \"fillRule\": \"evenodd\",\n    \"d\": \"M4 9h1v1H4c-1.5 0-3-1.69-3-3.5S2.55 3 4 3h4c1.45 0 3 1.69 3 3.5 0 1.41-.91 2.72-2 3.25V8.59c.58-.45 1-1.27 1-2.09C10 5.22 8.98 4 8 4H4c-.98 0-2 1.22-2 2.5S3 9 4 9zm9-3h-1v1h1c1 0 2 1.22 2 2.5S13.98 12 13 12H9c-.98 0-2-1.22-2-2.5 0-.83.42-1.64 1-2.09V6.25c-1.09.53-2 1.84-2 3.25C6 11.31 7.55 13 9 13h4c1.45 0 3-1.69 3-3.5S14.5 6 13 6z\"\n  }))), \"Typed Transaction Envelope\"), mdx(\"p\", null, \"Ethereum originally had one format for transactions. Each transaction contained a nonce, gas price, gas limit, to address, value, data, v, r, and s. These fields are RLP-encoded, to look something like this:\"), mdx(\"p\", null, mdx(\"inlineCode\", {\n    parentName: \"p\"\n  }, \"RLP([nonce, gasPrice, gasLimit, to, value, data, v, r, s])\")), mdx(\"p\", null, \"Ethereum has evolved to support multiple types of transactions to allow for new features such as access lists and \", mdx(\"a\", {\n    parentName: \"p\",\n    \"href\": \"https://github.com/ethereum/EIPs/blob/master/EIPS/eip-1559.md\"\n  }, \"EIP-1559\"), \" to be implemented without affecting legacy transaction formats.\"), mdx(\"p\", null, mdx(\"a\", {\n    parentName: \"p\",\n    \"href\": \"https://eips.ethereum.org/EIPS/eip-2718\"\n  }, \"EIP-2718: Typed Transaction Envelope\"), \" defines a transaction type that is an envelope for future transaction types.\"), mdx(\"p\", null, \"EIP-2718 is a new generalised envelope for typed transactions. In the new standard, transactions are interpreted as:\"), mdx(\"p\", null, mdx(\"inlineCode\", {\n    parentName: \"p\"\n  }, \"TransactionType || TransactionPayload\")), mdx(\"p\", null, \"Where the fields are defined as:\"), mdx(\"ul\", null, mdx(\"li\", {\n    parentName: \"ul\"\n  }, mdx(\"inlineCode\", {\n    parentName: \"li\"\n  }, \"TransactionType\"), \" - a number between 0 and 0x7f, for a total of 128 possible transaction types.\"), mdx(\"li\", {\n    parentName: \"ul\"\n  }, mdx(\"inlineCode\", {\n    parentName: \"li\"\n  }, \"TransactionPayload\"), \" - an arbitrary byte array defined by the transaction type.\")), mdx(\"h2\", {\n    \"id\": \"further-reading\",\n    \"style\": {\n      \"position\": \"relative\"\n    }\n  }, mdx(\"a\", {\n    parentName: \"h2\",\n    \"href\": \"#further-reading\",\n    \"aria-label\": \"further reading permalink\",\n    \"className\": \"header-anchor before\"\n  }, mdx(\"svg\", {\n    parentName: \"a\",\n    \"aria-hidden\": \"true\",\n    \"focusable\": \"false\",\n    \"height\": \"16\",\n    \"version\": \"1.1\",\n    \"viewBox\": \"0 0 16 16\",\n    \"width\": \"16\"\n  }, mdx(\"path\", {\n    parentName: \"svg\",\n    \"fillRule\": \"evenodd\",\n    \"d\": \"M4 9h1v1H4c-1.5 0-3-1.69-3-3.5S2.55 3 4 3h4c1.45 0 3 1.69 3 3.5 0 1.41-.91 2.72-2 3.25V8.59c.58-.45 1-1.27 1-2.09C10 5.22 8.98 4 8 4H4c-.98 0-2 1.22-2 2.5S3 9 4 9zm9-3h-1v1h1c1 0 2 1.22 2 2.5S13.98 12 13 12H9c-.98 0-2-1.22-2-2.5 0-.83.42-1.64 1-2.09V6.25c-1.09.53-2 1.84-2 3.25C6 11.31 7.55 13 9 13h4c1.45 0 3-1.69 3-3.5S14.5 6 13 6z\"\n  }))), \"Further reading\"), mdx(\"ul\", null, mdx(\"li\", {\n    parentName: \"ul\"\n  }, mdx(\"a\", {\n    parentName: \"li\",\n    \"href\": \"https://eips.ethereum.org/EIPS/eip-2718\"\n  }, \"EIP-2718: Typed Transaction Envelope\"))), mdx(\"p\", null, mdx(\"em\", {\n    parentName: \"p\"\n  }, \"Know of a community resource that helped you? Edit this page and add it!\")), mdx(\"h2\", {\n    \"id\": \"related-topics\",\n    \"style\": {\n      \"position\": \"relative\"\n    }\n  }, mdx(\"a\", {\n    parentName: \"h2\",\n    \"href\": \"#related-topics\",\n    \"aria-label\": \"related topics permalink\",\n    \"className\": \"header-anchor before\"\n  }, mdx(\"svg\", {\n    parentName: \"a\",\n    \"aria-hidden\": \"true\",\n    \"focusable\": \"false\",\n    \"height\": \"16\",\n    \"version\": \"1.1\",\n    \"viewBox\": \"0 0 16 16\",\n    \"width\": \"16\"\n  }, mdx(\"path\", {\n    parentName: \"svg\",\n    \"fillRule\": \"evenodd\",\n    \"d\": \"M4 9h1v1H4c-1.5 0-3-1.69-3-3.5S2.55 3 4 3h4c1.45 0 3 1.69 3 3.5 0 1.41-.91 2.72-2 3.25V8.59c.58-.45 1-1.27 1-2.09C10 5.22 8.98 4 8 4H4c-.98 0-2 1.22-2 2.5S3 9 4 9zm9-3h-1v1h1c1 0 2 1.22 2 2.5S13.98 12 13 12H9c-.98 0-2-1.22-2-2.5 0-.83.42-1.64 1-2.09V6.25c-1.09.53-2 1.84-2 3.25C6 11.31 7.55 13 9 13h4c1.45 0 3-1.69 3-3.5S14.5 6 13 6z\"\n  }))), \"Related topics\"), mdx(\"ul\", null, mdx(\"li\", {\n    parentName: \"ul\"\n  }, mdx(\"a\", {\n    parentName: \"li\",\n    \"href\": \"/developers/docs/accounts/\"\n  }, \"Accounts\")), mdx(\"li\", {\n    parentName: \"ul\"\n  }, mdx(\"a\", {\n    parentName: \"li\",\n    \"href\": \"/developers/docs/evm/\"\n  }, \"Ethereum virtual machine (EVM)\")), mdx(\"li\", {\n    parentName: \"ul\"\n  }, mdx(\"a\", {\n    parentName: \"li\",\n    \"href\": \"/developers/docs/gas/\"\n  }, \"Gas\")), mdx(\"li\", {\n    parentName: \"ul\"\n  }, mdx(\"a\", {\n    parentName: \"li\",\n    \"href\": \"/developers/docs/consensus-mechanisms/pow/mining/\"\n  }, \"Mining\"))));\n}\n;\nMDXContent.isMDXComponent = true;","tableOfContents":{"items":[{"url":"#prerequisites-prerequisites","title":"Prerequisites {#prerequisites}"},{"url":"#whats-a-transaction-whats-a-transaction","title":"What's a transaction? {#whats-a-transaction}"},{"url":"#types-of-transactions-types-of-transactions","title":"Types of transactions {#types-of-transactions}","items":[{"url":"#on-gas-on-gas","title":"On gas {#on-gas}"}]},{"url":"#transaction-lifecycle-transaction-lifecycle","title":"Transaction lifecycle {#transaction-lifecycle}"},{"url":"#a-visual-demo-a-visual-demo","title":"A visual demo {#a-visual-demo}"},{"url":"#typed-transaction-envelope-typed-transaction-envelope","title":"Typed Transaction Envelope {#typed-transaction-envelope}"},{"url":"#further-reading-further-reading","title":"Further reading {#further-reading}"},{"url":"#related-topics-related-topics","title":"Related topics {#related-topics}"}]}}},"pageContext":{"slug":"/fa/developers/docs/transactions/","ignoreTranslationBanner":false,"isOutdated":false,"isContentEnglish":true,"relativePath":"src/content/developers/docs/transactions/index.md","intl":{"language":"fa","defaultLanguage":"en","languages":["en","ar","bg","bn","ca","cs","de","el","es","fa","fi","fr","hi","hr","hu","id","ig","it","ja","ko","lt","ml","nl","nb","pl","pt","pt-br","ro","ru","se","sk","sl","tr","uk","vi","zh","zh-tw"],"messages":{"about-ethereum-org":"در ارتباط با ethereum.org","about-us":"در مورد ما","community":"جامعه","contact":"تماس","contributing":"همکاری","cookie-policy":"سیاست کوکی‌ ها","decentralized-applications-dapps":"برنامه های کاربردی غیر متمرکز(dapps)","developers":"توسعه دهندگان","developers-home":"خانه توسعه دهنده","documentation":"مستندات","ef-blog":"وبلاک بنیاد اتریوم","eips":"توصیه های پیشبرد اتریوم","ethereum":"اتریوم","ethereum-2-0":"Ethereum 2.0","ethereum-brand-assets":"دارایی های نام تجاری اتریوم","ethereum-community":"جامعه اتریوم","ethereum-glossary":"واژه نامه اترتوم","ethereum-wallets":"کیف پول های اتریوم","ethereum-whitepaper":"برگه سفید اتریوم","get-eth":"دریافت اتریوم","get-started":"شروع کنید","guides-and-resources":"راهنماها و منابع","how-ethereum-works":"اتریوم چگونه کار می کند؟","language-support":"پشتیبانی زبان","languages":"زبان‌ها","learn":"آموزش","learn-by-coding":"آموزش از طریق کدگذاری","learn-more":"Learn more","mainnet-ethereum":"Mainnet اتریوم","nav-beginners":"مبتدیان","page-enterprise":"سازمان","page-index":"اتریوم","page-index-section-beginners-item-one":"آیا هیچ ایده‌ای درباره‌ اتریوم ندارید؟","page-index-section-beginners-item-three":"چرا باید اهمیت بدهم؟","page-index-section-beginners-item-two":"اتریوم چیست؟","page-index-section-beginners-title":"مبتدیان","page-index-section-developers-item-one":"مطالبی برای شروع","page-index-section-developers-item-three":"جدیدترین ابزارها برای توسعه دهندگان","page-index-section-developers-item-two":"آموزش برنامه‌نویسی قراردادهای هوشمند","page-index-section-developers-title":"توسعه دهندگان","page-index-section-enterprise-item-one":"","page-index-section-enterprise-item-three":"","page-index-section-enterprise-item-two":"","page-index-section-enterprise-title":"Enterprise","page-index-section-learn-item-one":"مراجع برای مبتدیان","page-index-section-learn-item-three":"ETH 2.0","page-index-section-use-item-one":"از یک برنامه کاربردی ساخته‌شده روی اتریوم استفاده کنید","page-index-section-use-item-three":"کیف پول (والت) چیست؟","page-index-section-use-item-two":"چگونه اتریوم بدست بیاورید؟","page-index-section-use-title":"استفاده","page-last-updated":"صفحه آخرین به روزرسانی","privacy-policy":"سیاست حفظ حریم خصوصی","private-ethereum":"اتریوم خصوصی","search":"جستجو","set-up-local-env":"تنظیم محیط محلی","stablecoins":"Stablecoins","terms-of-use":"شرایط کاربری","translation-banner-body-new":"شما این صفحه را به زبان انگلیسی می بینید زیرا ما هنوز آنرا ترجمه نکردیم. برای ترجمه این محتوا به ما کمک کنید.","translation-banner-body-update":"نسخه جدیدی از این صفحه موجود است اما در حال حاضر فقط به زبان انگلیسی است. برای ترجمه آخرین نسخه به ما کمک کنید.","translation-banner-button-join-translation-program":"برای برنامه ترجمه به ما بپیوندید","translation-banner-button-learn-more":"بیشتر بدانید","translation-banner-button-see-english":"انگلیسی را ببینید","translation-banner-button-translate-page":"ترجمه صفحه","translation-banner-title-new":"کمک برای ترجمه این صفحه","translation-banner-title-update":"کمک برای به روز رسانی این صفحه","tutorials":"آموزش‌ها","use":"استفاده","use-ethereum":"استفاده از اتریوم","website-last-updated":"آخرین وب سایت به روز شد","what-is-ether":"اتریوم (ETH) چیست؟","what-is-ethereum":"اتریوم چیست؟","page-developer-meta-title":"منابع توسعه دهنده اتریوم","page-developers-about":"در ارتباط با این منابع توسعه دهندگان","page-developers-about-desc":"ethereum.org برای کمک به ساخت اتریوم با اسناد در مورد مفاهیم بنیادی و همچنین مجموعه توسعه به شما کمک می کند. همچنین آموزشهایی برای به راه اندازی و شروع برای شما موجود است.\n","page-developers-about-desc-2":"با الهام از شبکه توسعه دهنده موزیلا، ما فکر کردیم که اتریوم به مکانی برای نگه داشتن محتوای توسعه دهنده و منابع نیاز دارد. مانند دوستانمان در موزیلا، تمامی موارد در اینجا منبع باز و آماده برای گسترش و پیشرفت شما است.","page-developers-account-desc":"قراردادها یا افراد در شبکه","page-developers-accounts-link":"حساب ها","page-developers-advanced":"پیشرفته","page-developers-api-desc":"استفاده از کتابخانه ها برای تعامل با قراردادهای هوشمند","page-developers-api-link":"Backend APIs","page-developers-aria-label":"منوی توسعه دهنده","page-developers-block-desc":"دسته هایی از تراکنش های اضافه شده به رنجیره بلوکی","page-developers-block-explorers-desc":"پورتال شما به داده اتریوم","page-developers-block-explorers-link":" جستجوگر‌های بلاک","page-developers-blocks-link":"بلوک‌ها","page-developers-browse-tutorials":"مرور آموزش ها","page-developers-choose-stack":"انتخاب مجموعه تان","page-developers-contribute":"مشارکت","page-developers-dev-env-desc":"آی دی ای (IDE)هایی که برای توسعه dapp (اپلیکیشن غیر متمرکز بر پایه اتریوم) مناسب هستند","page-developers-dev-env-link":"محیط های برنامه نویسی","page-developers-discord":"به سرور دیسکورد بپیوندید","page-developers-docs-introductions":"معرفی","page-developers-evm-desc":"رایانه ای که تراکنش ها را پردازش می کند","page-developers-evm-link":"دستگاه مجازی اتریوم (EVM)","page-developers-explore-documentation":"جستجوی اسناد","page-developers-feedback":"اگر بازخوردی دارید، از طریق یک مورد GitHub یا در سرور دیسکورد ما با ما تماس بگیرید.","page-developers-frameworks-desc":"ابزار برای کمک به تسریع توسعه","page-developers-frameworks-link":"چارچوب های توسعه","page-developers-fundamentals":"اصول بنیادی","page-developers-gas-desc":"برای نیرو بخشین به تراکنش ها اتر مورد نیاز است","page-developers-gas-link":"گاز","page-developers-get-started":"چگونه می خواهید شروع کنید؟","page-developers-improve-ethereum":"به ما در بهبود ethereum.org کمک کنید","page-developers-improve-ethereum-desc":"مانند ethereum.org  این اسناد تلاشی در سطح جامعه است. در صورت مشاهده اشتباه، فضایی برای بهبود، یا فرصتهای جدید، برای کمک به توسعه دهندگان اتریوم یک PR ایجاد کنید. ","page-developers-into-eth-desc":"معرفی زنجیره بلوکی و اتریوم","page-developers-intro-dapps-desc":"معرفی اپلیکیشن های غیر متمرکز","page-developers-intro-dapps-link":"معرفی برنامه های کاربردی غیرمتمرکز (dapps)","page-developers-intro-eth-link":"معرفی اتریوم","page-developers-intro-stack":"معرفی مجموعه","page-developers-intro-stack-desc":"معرفی مجموعه اتریوم","page-developers-js-libraries-desc":"استفاده از جاوا اسکریپت برای تعامل با قراردادهای هوشمند","page-developers-js-libraries-link":"کتابخانه های جاوا اسکریپت","page-developers-language-desc":"کاربرد اتریوم با زبانهای آشنا","page-developers-languages":"زبانهای برنامه ریزی","page-developers-learn":"فراگیری توسعه اتریوم","page-developers-learn-desc":"مفاهیم اصلی ومجموعه اتریوم را با اسناد ما بخوانید","page-developers-learn-tutorials":"از طریق برنامه آموزشی یاد بگیرید","page-developers-learn-tutorials-cta":"مشاهده برنامه آموزشی","page-developers-learn-tutorials-desc":"توسعه اتریوم را گام به گام از سازندگانی که قبلاً آنرا انجام داده اند یاد بگیرید.","page-developers-meta-desc":"اسناد، برنامه های آموزشی و ابزار‌هایی برای توسعه دهندگان اتریوم.","page-developers-mining-desc":"نحوه ایجاد بلوکهای جدید و دستیابی به اتفاق نظر","page-developers-mining-link":"استخراج معدن","page-developers-networks-desc":"مروری بر شبکه اصلی و شبکه های آزمایشی","page-developers-networks-link":"شبکه ها","page-developers-node-clients-desc":"بلوکها و تراکنش ها چگونه در شبکه بررسی می شوند","page-developers-node-clients-link":"نودها و کلاینت ها","page-developers-oracle-desc":"وارد کردن داده های زنجیره ای در قراردادهای هوشمند شما","page-developers-oracles-link":"Oracles","page-developers-play-code":"بازی با کد","page-developers-read-docs":"مطالعه اسناد","page-developers-scaling-desc":"راه حل هایی برای تراکنش های سریعتر","page-developers-scaling-link":"مقیاس‌پذیری","page-developers-smart-contract-security-desc":"در نظرگرفتن اقدامات ایمنی طی توسعه","page-developers-smart-contract-security-link":"ایمنی","page-developers-set-up":"تنظیم محیط محلی","page-developers-setup-desc":"مجموعه تان را برای ساخت از طریق شکل دهی یک محیط توسعه آماده کنید.","page-developers-smart-contracts-desc":"منطق پشت اپلیکیشن غیر متمرکز - موافقتنامه های خوداجرا","page-developers-smart-contracts-link":"قرارداد‌های هوشمند","page-developers-stack":"مجموعه","page-developers-start":"شروع به آزمایش","page-developers-start-desc":"می خواهید اول آزمایش کرده، سپس سؤال کنید؟","page-developers-storage-desc":"نحوه مدیریت ذخیره سازی اپلیکیشن غیر متمرکز","page-developers-storage-link":"ذخیره سازی","page-developers-subtitle":"کتابچه راهنمای سازندگان برای اتریوم. توسط سازندگان، برای سازندگان.","page-developers-title-1":"اتریوم","page-developers-title-2":"توسعه‌دهنده","page-developers-title-3":"منابع","page-developers-token-standards-desc":"مروری بر استانداردهای قبول شده توکن","page-developers-token-standards-link":"استانداردهای توکن","page-developers-transactions-desc":"نحوه تغییر حالت اتریوم","page-developers-transactions-link":"تراکنش‌ها","page-developers-web3-desc":"دنیای توسعه web3 چگونه متفاوت است","page-developers-web3-link":"Web2 در مقابل Web3","page-index-hero-image-alt":"تصویر قهرمان ethereum.org","page-index-meta-description":"اتریوم یک پلتفرم جهانی و غیرمتمرکز برای پول و انواع جدیدی از برنامه ها است. در اتریوم می توانید کدی بنویسید که پول را کنترل می کند، و برنامه هایی را بسازید که در هر جای دنیا قابل دسترسی باشد.","page-index-meta-title":"خانه","page-index-sections-developers-desc":"درباره فناوری پشت اتریوم و کاربردهای آن بیاموزید تا بتوانید با آن شروع به ساخت کنید.","page-index-sections-developers-image-alt":"تصویری از دستی که گلیف اتریوم ساخته شده از آجرهای لگو را می سازد","page-index-sections-developers-link-text":"ساخت را آغاز کنید","page-index-sections-developers-title":"توسعه دهندگان","page-index-sections-enterprise-desc":"ببینید چگونه اتریوم می تواند مدل هایی از کسب و کارهای جدید ایجاد کرده، هزینه ها را کاهش دهد و آینده کسب و کار شما را تضمین نماید.","page-index-sections-enterprise-image-alt":"تصویر گروهی که کنار یک لب تاپ بر روی یک پروژه اتریوم کار می کند","page-index-sections-enterprise-link-text":"اتریوم برای سازمان","page-index-sections-enterprise-title":"سازمان","page-index-sections-individuals-desc":"با اتریوم، اتر، کیف پول ها، توکن ها و موارد دیگر آشنا شوید تا بتوانید شروع به استفاده از اپلیکیشن های اتریوم نمایید.","page-index-sections-individuals-image-alt":"تصویر یک سگ دوج که روی کامپیوتر نشسته است","page-index-sections-individuals-link-text":"با اتریوم شروع کنید","page-index-sections-individuals-title":"در ارتباط با اتریوم","page-index-subtitle":"در اتریوم، شما میتوانید برنامه‌ای بنویسید که ارزش دیجیتالی داشته باشد، دقیقا همان کدی که نوشته‌اید را اجرا میکند، و در تمامی نقاط جهان قابل دسترسی است.","page-index-title":"اتریوم یک پلتفرم متن باز جهانی، برای برنامه های غیر متمرکز است."},"routed":true,"originalPath":"/developers/docs/transactions/","redirect":false}}},
    "staticQueryHashes": ["1011117294","3003422828","4096231394"]}